{"abi":[{"type":"constructor","inputs":[{"name":"controller","type":"address","internalType":"address"},{"name":"graphTallyCollector","type":"address","internalType":"address"}],"stateMutability":"nonpayable"},{"type":"function","name":"BURN_TAX_PPM","inputs":[],"outputs":[{"name":"","type":"uint256","internalType":"uint256"}],"stateMutability":"view"},{"type":"function","name":"GRAPH_TALLY_COLLECTOR","inputs":[],"outputs":[{"name":"","type":"address","internalType":"contract IGraphTallyCollector"}],"stateMutability":"view"},{"type":"function","name":"UPGRADE_INTERFACE_VERSION","inputs":[],"outputs":[{"name":"","type":"string","internalType":"string"}],"stateMutability":"view"},{"type":"function","name":"acceptOwnership","inputs":[],"outputs":[],"stateMutability":"nonpayable"},{"type":"function","name":"acceptProvisionPendingParameters","inputs":[{"name":"indexer","type":"address","internalType":"address"},{"name":"","type":"bytes","internalType":"bytes"}],"outputs":[],"stateMutability":"nonpayable"},{"type":"function","name":"collect","inputs":[{"name":"indexer","type":"address","internalType":"address"},{"name":"paymentType","type":"uint8","internalType":"enum IGraphPayments.PaymentTypes"},{"name":"data","type":"bytes","internalType":"bytes"}],"outputs":[{"name":"","type":"uint256","internalType":"uint256"}],"stateMutability":"nonpayable"},{"type":"function","name":"getDelegationRatio","inputs":[],"outputs":[{"name":"","type":"uint32","internalType":"uint32"}],"stateMutability":"view"},{"type":"function","name":"getProvisionTokensRange","inputs":[],"outputs":[{"name":"","type":"uint256","internalType":"uint256"},{"name":"","type":"uint256","internalType":"uint256"}],"stateMutability":"view"},{"type":"function","name":"getThawingPeriodRange","inputs":[],"outputs":[{"name":"","type":"uint64","internalType":"uint64"},{"name":"","type":"uint64","internalType":"uint64"}],"stateMutability":"view"},{"type":"function","name":"getVerifierCutRange","inputs":[],"outputs":[{"name":"","type":"uint32","internalType":"uint32"},{"name":"","type":"uint32","internalType":"uint32"}],"stateMutability":"view"},{"type":"function","name":"initialize","inputs":[{"name":"initialOwner","type":"address","internalType":"address"},{"name":"minimumProvisionTokens","type":"uint256","internalType":"uint256"}],"outputs":[],"stateMutability":"nonpayable"},{"type":"function","name":"isRegistered","inputs":[{"name":"","type":"address","internalType":"address"}],"outputs":[{"name":"","type":"bool","internalType":"bool"}],"stateMutability":"view"},{"type":"function","name":"owner","inputs":[],"outputs":[{"name":"","type":"address","internalType":"address"}],"stateMutability":"view"},{"type":"function","name":"paymentsDestination","inputs":[{"name":"","type":"address","internalType":"address"}],"outputs":[{"name":"","type":"address","internalType":"address"}],"stateMutability":"view"},{"type":"function","name":"pendingOwner","inputs":[],"outputs":[{"name":"","type":"address","internalType":"address"}],"stateMutability":"view"},{"type":"function","name":"proxiableUUID","inputs":[],"outputs":[{"name":"","type":"bytes32","internalType":"bytes32"}],"stateMutability":"view"},{"type":"function","name":"register","inputs":[{"name":"indexer","type":"address","internalType":"address"},{"name":"data","type":"bytes","internalType":"bytes"}],"outputs":[],"stateMutability":"nonpayable"},{"type":"function","name":"renounceOwnership","inputs":[],"outputs":[],"stateMutability":"nonpayable"},{"type":"function","name":"setPaymentsDestination","inputs":[{"name":"paymentsDestination_","type":"address","internalType":"address"}],"outputs":[],"stateMutability":"nonpayable"},{"type":"function","name":"setProvisionTokensRange","inputs":[{"name":"minimumProvisionTokens","type":"uint256","internalType":"uint256"}],"outputs":[],"stateMutability":"nonpayable"},{"type":"function","name":"slash","inputs":[{"name":"","type":"address","internalType":"address"},{"name":"","type":"bytes","internalType":"bytes"}],"outputs":[],"stateMutability":"pure"},{"type":"function","name":"startService","inputs":[{"name":"","type":"address","internalType":"address"},{"name":"","type":"bytes","internalType":"bytes"}],"outputs":[],"stateMutability":"pure"},{"type":"function","name":"stopService","inputs":[{"name":"","type":"address","internalType":"address"},{"name":"","type":"bytes","internalType":"bytes"}],"outputs":[],"stateMutability":"pure"},{"type":"function","name":"transferOwnership","inputs":[{"name":"newOwner","type":"address","internalType":"address"}],"outputs":[],"stateMutability":"nonpayable"},{"type":"function","name":"upgradeToAndCall","inputs":[{"name":"newImplementation","type":"address","internalType":"address"},{"name":"data","type":"bytes","internalType":"bytes"}],"outputs":[],"stateMutability":"payable"},{"type":"event","name":"BurnTaxApplied","inputs":[{"name":"indexer","type":"address","indexed":true,"internalType":"address"},{"name":"tokensBurned","type":"uint256","indexed":false,"internalType":"uint256"}],"anonymous":false},{"type":"event","name":"DelegationRatioSet","inputs":[{"name":"ratio","type":"uint32","indexed":false,"internalType":"uint32"}],"anonymous":false},{"type":"event","name":"GraphDirectoryInitialized","inputs":[{"name":"graphToken","type":"address","indexed":true,"internalType":"address"},{"name":"graphStaking","type":"address","indexed":true,"internalType":"address"},{"name":"graphPayments","type":"address","indexed":false,"internalType":"address"},{"name":"graphEscrow","type":"address","indexed":false,"internalType":"address"},{"name":"graphController","type":"address","indexed":true,"internalType":"address"},{"name":"graphEpochManager","type":"address","indexed":false,"internalType":"address"},{"name":"graphRewardsManager","type":"address","indexed":false,"internalType":"address"},{"name":"graphTokenGateway","type":"address","indexed":false,"internalType":"address"},{"name":"graphProxyAdmin","type":"address","indexed":false,"internalType":"address"},{"name":"graphCuration","type":"address","indexed":false,"internalType":"address"}],"anonymous":false},{"type":"event","name":"Initialized","inputs":[{"name":"version","type":"uint64","indexed":false,"internalType":"uint64"}],"anonymous":false},{"type":"event","name":"OwnershipTransferStarted","inputs":[{"name":"previousOwner","type":"address","indexed":true,"internalType":"address"},{"name":"newOwner","type":"address","indexed":true,"internalType":"address"}],"anonymous":false},{"type":"event","name":"OwnershipTransferred","inputs":[{"name":"previousOwner","type":"address","indexed":true,"internalType":"address"},{"name":"newOwner","type":"address","indexed":true,"internalType":"address"}],"anonymous":false},{"type":"event","name":"PaymentsDestinationSet","inputs":[{"name":"indexer","type":"address","indexed":true,"internalType":"address"},{"name":"destination","type":"address","indexed":true,"internalType":"address"}],"anonymous":false},{"type":"event","name":"ProvisionPendingParametersAccepted","inputs":[{"name":"serviceProvider","type":"address","indexed":true,"internalType":"address"}],"anonymous":false},{"type":"event","name":"ProvisionTokensRangeSet","inputs":[{"name":"min","type":"uint256","indexed":false,"internalType":"uint256"},{"name":"max","type":"uint256","indexed":false,"internalType":"uint256"}],"anonymous":false},{"type":"event","name":"ServicePaymentCollected","inputs":[{"name":"serviceProvider","type":"address","indexed":true,"internalType":"address"},{"name":"feeType","type":"uint8","indexed":true,"internalType":"enum IGraphPayments.PaymentTypes"},{"name":"tokens","type":"uint256","indexed":false,"internalType":"uint256"}],"anonymous":false},{"type":"event","name":"ServiceProviderRegistered","inputs":[{"name":"serviceProvider","type":"address","indexed":true,"internalType":"address"},{"name":"data","type":"bytes","indexed":false,"internalType":"bytes"}],"anonymous":false},{"type":"event","name":"ServiceProviderSlashed","inputs":[{"name":"serviceProvider","type":"address","indexed":true,"internalType":"address"},{"name":"tokens","type":"uint256","indexed":false,"internalType":"uint256"}],"anonymous":false},{"type":"event","name":"ServiceStarted","inputs":[{"name":"serviceProvider","type":"address","indexed":true,"internalType":"address"},{"name":"data","type":"bytes","indexed":false,"internalType":"bytes"}],"anonymous":false},{"type":"event","name":"ServiceStopped","inputs":[{"name":"serviceProvider","type":"address","indexed":true,"internalType":"address"},{"name":"data","type":"bytes","indexed":false,"internalType":"bytes"}],"anonymous":false},{"type":"event","name":"ThawingPeriodRangeSet","inputs":[{"name":"min","type":"uint64","indexed":false,"internalType":"uint64"},{"name":"max","type":"uint64","indexed":false,"internalType":"uint64"}],"anonymous":false},{"type":"event","name":"Upgraded","inputs":[{"name":"implementation","type":"address","indexed":true,"internalType":"address"}],"anonymous":false},{"type":"event","name":"VerifierCutRangeSet","inputs":[{"name":"min","type":"uint32","indexed":false,"internalType":"uint32"},{"name":"max","type":"uint32","indexed":false,"internalType":"uint32"}],"anonymous":false},{"type":"error","name":"AddressEmptyCode","inputs":[{"name":"target","type":"address","internalType":"address"}]},{"type":"error","name":"ERC1967InvalidImplementation","inputs":[{"name":"implementation","type":"address","internalType":"address"}]},{"type":"error","name":"ERC1967NonPayable","inputs":[]},{"type":"error","name":"FailedCall","inputs":[]},{"type":"error","name":"GraphDirectoryInvalidZeroAddress","inputs":[{"name":"contractName","type":"bytes","internalType":"bytes"}]},{"type":"error","name":"InvalidInitialization","inputs":[]},{"type":"error","name":"NotInitializing","inputs":[]},{"type":"error","name":"OwnableInvalidOwner","inputs":[{"name":"owner","type":"address","internalType":"address"}]},{"type":"error","name":"OwnableUnauthorizedAccount","inputs":[{"name":"account","type":"address","internalType":"address"}]},{"type":"error","name":"ProvisionManagerInvalidRange","inputs":[{"name":"min","type":"uint256","internalType":"uint256"},{"name":"max","type":"uint256","internalType":"uint256"}]},{"type":"error","name":"ProvisionManagerInvalidValue","inputs":[{"name":"message","type":"bytes","internalType":"bytes"},{"name":"value","type":"uint256","internalType":"uint256"},{"name":"min","type":"uint256","internalType":"uint256"},{"name":"max","type":"uint256","internalType":"uint256"}]},{"type":"error","name":"ProvisionManagerNotAuthorized","inputs":[{"name":"serviceProvider","type":"address","internalType":"address"},{"name":"caller","type":"address","internalType":"address"}]},{"type":"error","name":"ProvisionManagerProvisionNotFound","inputs":[{"name":"serviceProvider","type":"address","internalType":"address"}]},{"type":"error","name":"ReentrancyGuardReentrantCall","inputs":[]},{"type":"error","name":"SubstreamsDataServiceIndexerMismatch","inputs":[{"name":"ravServiceProvider","type":"address","internalType":"address"},{"name":"indexer","type":"address","internalType":"address"}]},{"type":"error","name":"SubstreamsDataServiceIndexerNotRegistered","inputs":[{"name":"indexer","type":"address","internalType":"address"}]},{"type":"error","name":"SubstreamsDataServiceInvalidPaymentType","inputs":[{"name":"paymentType","type":"uint8","internalType":"enum IGraphPayments.PaymentTypes"}]},{"type":"error","name":"SubstreamsDataServiceZeroPaymentsDestination","inputs":[]},{"type":"error","name":"UUPSUnauthorizedCallContext","inputs":[]},{"type":"error","name":"UUPSUnsupportedProxiableUUID","inputs":[{"name":"slot","type":"bytes32","internalType":"bytes32"}]}],"bytecode":{"object":"0x6102006040523073ffffffffffffffffffffffffffffffffffffffff1660809073ffffffffffffffffffffffffffffffffffffffff16815250348015610043575f5ffd5b5060405161434e38038061434e833981810160405281019061006591906108b3565b81805f73ffffffffffffffffffffffffffffffffffffffff168173ffffffffffffffffffffffffffffffffffffffff16036100d5576040517f431eb5ba0000000000000000000000000000000000000000000000000000000081526004016100cc9061094b565b60405180910390fd5b8073ffffffffffffffffffffffffffffffffffffffff166101208173ffffffffffffffffffffffffffffffffffffffff168152505061014e6040518060400160405280600a81526020017f4772617068546f6b656e0000000000000000000000000000000000000000000081525061062e60201b60201c565b73ffffffffffffffffffffffffffffffffffffffff1660a08173ffffffffffffffffffffffffffffffffffffffff16815250506101c56040518060400160405280600781526020017f5374616b696e670000000000000000000000000000000000000000000000000081525061062e60201b60201c565b73ffffffffffffffffffffffffffffffffffffffff1660c08173ffffffffffffffffffffffffffffffffffffffff168152505061023c6040518060400160405280600d81526020017f47726170685061796d656e74730000000000000000000000000000000000000081525061062e60201b60201c565b73ffffffffffffffffffffffffffffffffffffffff1660e08173ffffffffffffffffffffffffffffffffffffffff16815250506102b36040518060400160405280600e81526020017f5061796d656e7473457363726f7700000000000000000000000000000000000081525061062e60201b60201c565b73ffffffffffffffffffffffffffffffffffffffff166101008173ffffffffffffffffffffffffffffffffffffffff168152505061032b6040518060400160405280600c81526020017f45706f63684d616e61676572000000000000000000000000000000000000000081525061062e60201b60201c565b73ffffffffffffffffffffffffffffffffffffffff166101408173ffffffffffffffffffffffffffffffffffffffff16815250506103a36040518060400160405280600e81526020017f526577617264734d616e6167657200000000000000000000000000000000000081525061062e60201b60201c565b73ffffffffffffffffffffffffffffffffffffffff166101608173ffffffffffffffffffffffffffffffffffffffff168152505061041b6040518060400160405280601181526020017f4772617068546f6b656e4761746577617900000000000000000000000000000081525061062e60201b60201c565b73ffffffffffffffffffffffffffffffffffffffff166101808173ffffffffffffffffffffffffffffffffffffffff16815250506104936040518060400160405280600f81526020017f477261706850726f787941646d696e000000000000000000000000000000000081525061062e60201b60201c565b73ffffffffffffffffffffffffffffffffffffffff166101a08173ffffffffffffffffffffffffffffffffffffffff168152505061050b6040518060400160405280600881526020017f4375726174696f6e00000000000000000000000000000000000000000000000081525061062e60201b60201c565b73ffffffffffffffffffffffffffffffffffffffff166101c08173ffffffffffffffffffffffffffffffffffffffff16815250506101205173ffffffffffffffffffffffffffffffffffffffff1660c05173ffffffffffffffffffffffffffffffffffffffff1660a05173ffffffffffffffffffffffffffffffffffffffff167fef5021414834d86e36470f5c1cecf6544fb2bb723f2ca51a4c86fcd8c5919a4360e051610100516101405161016051610180516101a0516101c0516040516105da9796959493929190610978565b60405180910390a450508073ffffffffffffffffffffffffffffffffffffffff166101e08173ffffffffffffffffffffffffffffffffffffffff168152505061062761073060201b60201c565b5050610afc565b5f5f6101205173ffffffffffffffffffffffffffffffffffffffff1663f7641a5e84805190602001206040518263ffffffff1660e01b815260040161067391906109fd565b602060405180830381865afa15801561068e573d5f5f3e3d5ffd5b505050506040513d601f19601f820116820180604052508101906106b29190610a16565b90505f73ffffffffffffffffffffffffffffffffffffffff168173ffffffffffffffffffffffffffffffffffffffff1614158390610726576040517f431eb5ba00000000000000000000000000000000000000000000000000000000815260040161071d9190610aa1565b60405180910390fd5b5080915050919050565b5f61073f61082e60201b60201c565b9050805f0160089054906101000a900460ff1615610789576040517ff92ee8a900000000000000000000000000000000000000000000000000000000815260040160405180910390fd5b67ffffffffffffffff8016815f015f9054906101000a900467ffffffffffffffff1667ffffffffffffffff161461082b5767ffffffffffffffff815f015f6101000a81548167ffffffffffffffff021916908367ffffffffffffffff1602179055507fc7f505b2f371ae2175ee4913f4499e1f2633a7b5936321eed1cdaeb6115181d267ffffffffffffffff6040516108229190610ae3565b60405180910390a15b50565b5f7ff0c57e16840df040f15088dc2f81fe391c3923bec73e23a9662efc9c229c6a00905090565b5f5ffd5b5f73ffffffffffffffffffffffffffffffffffffffff82169050919050565b5f61088282610859565b9050919050565b61089281610878565b811461089c575f5ffd5b50565b5f815190506108ad81610889565b92915050565b5f5f604083850312156108c9576108c8610855565b5b5f6108d68582860161089f565b92505060206108e78582860161089f565b9150509250929050565b5f82825260208201905092915050565b7f436f6e74726f6c6c6572000000000000000000000000000000000000000000005f82015250565b5f610935600a836108f1565b915061094082610901565b602082019050919050565b5f6020820190508181035f83015261096281610929565b9050919050565b61097281610878565b82525050565b5f60e08201905061098b5f83018a610969565b6109986020830189610969565b6109a56040830188610969565b6109b26060830187610969565b6109bf6080830186610969565b6109cc60a0830185610969565b6109d960c0830184610969565b98975050505050505050565b5f819050919050565b6109f7816109e5565b82525050565b5f602082019050610a105f8301846109ee565b92915050565b5f60208284031215610a2b57610a2a610855565b5b5f610a388482850161089f565b91505092915050565b5f81519050919050565b8281835e5f83830152505050565b5f601f19601f8301169050919050565b5f610a7382610a41565b610a7d81856108f1565b9350610a8d818560208601610a4b565b610a9681610a59565b840191505092915050565b5f6020820190508181035f830152610ab98184610a69565b905092915050565b5f67ffffffffffffffff82169050919050565b610add81610ac1565b82525050565b5f602082019050610af65f830184610ad4565b92915050565b60805160a05160c05160e05161010051610120516101405161016051610180516101a0516101c0516101e0516137d2610b7c5f395f818161091201526119b501525f50505f50505f50505f50505f50505f50505f50505f50505f61100001525f611f8301525f81816113df0152818161143401526115ee01526137d25ff3fe608060405260043610610165575f3560e01c8063819ba366116100d0578063c3c5a54711610089578063ce0fc0cc11610063578063ce0fc0cc146104d2578063dedf6726146104fa578063e30c397814610522578063f2fde38b1461054c57610165565b8063c3c5a54714610446578063cb8347fe14610482578063cd6dc687146104aa57610165565b8063819ba366146103395780638d84925d146103645780638da5cb5b1461038c5780639309d70e146103b6578063ad3cb1cc146103e0578063b15d2a2c1461040a57610165565b806352d1902d1161012257806352d1902d146102685780636ccec5b814610292578063715018a6146102ba57806371ce020a146102d057806379ba5097146102fb5780638180083b1461031157610165565b806307e736d8146101695780631e79abd2146101a55780631ebb7c30146101cf57806324b8fbf6146101f9578063482468b7146102215780634f1ef2861461024c575b5f5ffd5b348015610174575f5ffd5b5061018f600480360381019061018a9190612707565b610574565b60405161019c9190612741565b60405180910390f35b3480156101b0575f5ffd5b506101b96105a4565b6040516101c69190612772565b60405180910390f35b3480156101da575f5ffd5b506101e36105aa565b6040516101f091906127a9565b60405180910390f35b348015610204575f5ffd5b5061021f600480360381019061021a9190612823565b6105b8565b005b34801561022c575f5ffd5b5061023561076d565b604051610243929190612880565b60405180910390f35b610266600480360381019061026191906129df565b61077f565b005b348015610273575f5ffd5b5061027c61079e565b6040516102899190612a51565b60405180910390f35b34801561029d575f5ffd5b506102b860048036038101906102b39190612707565b6107cf565b005b3480156102c5575f5ffd5b506102ce6107dc565b005b3480156102db575f5ffd5b506102e46107ef565b6040516102f2929190612a8c565b60405180910390f35b348015610306575f5ffd5b5061030f610801565b005b34801561031c575f5ffd5b5061033760048036038101906103329190612823565b61088f565b005b348015610344575f5ffd5b5061034d610894565b60405161035b929190612ab3565b60405180910390f35b34801561036f575f5ffd5b5061038a60048036038101906103859190612b04565b6108a6565b005b348015610397575f5ffd5b506103a06108db565b6040516103ad9190612741565b60405180910390f35b3480156103c1575f5ffd5b506103ca610910565b6040516103d79190612b8a565b60405180910390f35b3480156103eb575f5ffd5b506103f4610934565b6040516104019190612c03565b60405180910390f35b348015610415575f5ffd5b50610430600480360381019061042b9190612c46565b61096d565b60405161043d9190612772565b60405180910390f35b348015610451575f5ffd5b5061046c60048036038101906104679190612707565b610be6565b6040516104799190612cd1565b60405180910390f35b34801561048d575f5ffd5b506104a860048036038101906104a39190612823565b610c03565b005b3480156104b5575f5ffd5b506104d060048036038101906104cb9190612cea565b610c08565b005b3480156104dd575f5ffd5b506104f860048036038101906104f39190612823565b610dd4565b005b348015610505575f5ffd5b50610520600480360381019061051b9190612823565b610ef1565b005b34801561052d575f5ffd5b50610536610ef6565b6040516105439190612741565b60405180910390f35b348015610557575f5ffd5b50610572600480360381019061056d9190612707565b610f2b565b005b6068602052805f5260405f205f915054906101000a900473ffffffffffffffffffffffffffffffffffffffff1681565b61271081565b5f6105b3610fe4565b905090565b826105c1610ffd565b73ffffffffffffffffffffffffffffffffffffffff16637c145cc78230336040518463ffffffff1660e01b81526004016105fd93929190612d28565b602060405180830381865afa158015610618573d5f5f3e3d5ffd5b505050506040513d601f19601f8201168201806040525081019061063c9190612d87565b81339091610681576040517fcc5d3c8b000000000000000000000000000000000000000000000000000000008152600401610678929190612db2565b60405180910390fd5b5050835f61068e82611024565b90506106998161110f565b6106a3815f611168565b5f85858101906106b39190612e14565b9050600160675f8973ffffffffffffffffffffffffffffffffffffffff1673ffffffffffffffffffffffffffffffffffffffff1681526020019081526020015f205f6101000a81548160ff0219169083151502179055506107148782611270565b8673ffffffffffffffffffffffffffffffffffffffff167f159567bea25499a91f60e1fbb349ff2a1f8c1b2883198f25c1e12c99eddb44fa878760405161075c929190612e7b565b60405180910390a250505050505050565b5f5f6107776113ad565b915091509091565b6107876113dd565b610790826114c3565b61079a82826114ce565b5050565b5f6107a76115ec565b7f360894a13ba1a3210667c828492db98dca3e2076cc3735a920a3ca505d382bbc5f1b905090565b6107d93382611270565b50565b6107e4611673565b6107ed5f6116fa565b565b5f5f6107f9611737565b915091509091565b5f61080a61176e565b90508073ffffffffffffffffffffffffffffffffffffffff1661082b610ef6565b73ffffffffffffffffffffffffffffffffffffffff161461088357806040517f118cdaa700000000000000000000000000000000000000000000000000000000815260040161087a9190612741565b60405180910390fd5b61088c816116fa565b50565b505050565b5f5f61089e611775565b915091509091565b6108ae611673565b6108d8817fffffffffffffffffffffffffffffffffffffffffffffffffffffffffffffffff611784565b50565b5f5f6108e5611819565b9050805f015f9054906101000a900473ffffffffffffffffffffffffffffffffffffffff1691505090565b7f000000000000000000000000000000000000000000000000000000000000000081565b6040518060400160405280600581526020017f352e302e3000000000000000000000000000000000000000000000000000000081525081565b5f610976611840565b8461097f610ffd565b73ffffffffffffffffffffffffffffffffffffffff16637c145cc78230336040518463ffffffff1660e01b81526004016109bb93929190612d28565b602060405180830381865afa1580156109d6573d5f5f3e3d5ffd5b505050506040513d601f19601f820116820180604052508101906109fa9190612d87565b81339091610a3f576040517fcc5d3c8b000000000000000000000000000000000000000000000000000000008152600401610a36929190612db2565b60405180910390fd5b5050855f610a4c82611024565b9050610a578161110f565b610a61815f611168565b8760675f8273ffffffffffffffffffffffffffffffffffffffff1673ffffffffffffffffffffffffffffffffffffffff1681526020019081526020015f205f9054906101000a900460ff168190610aee576040517fd687f528000000000000000000000000000000000000000000000000000000008152600401610ae59190612741565b60405180910390fd5b505f5f90505f6002811115610b0657610b05612e9d565b5b896002811115610b1957610b18612e9d565b5b03610b3057610b298a8989611894565b9050610b6d565b886040517f94341e9d000000000000000000000000000000000000000000000000000000008152600401610b649190612f10565b60405180910390fd5b886002811115610b8057610b7f612e9d565b5b8a73ffffffffffffffffffffffffffffffffffffffff167f54fe682bfb66381a9382e13e4b95a3dd4f960eafbae063fdea3539d144ff3ff583604051610bc69190612772565b60405180910390a38095505050505050610bde611c25565b949350505050565b6067602052805f5260405f205f915054906101000a900460ff1681565b505050565b5f610c11611c3c565b90505f815f0160089054906101000a900460ff161590505f825f015f9054906101000a900467ffffffffffffffff1690505f5f8267ffffffffffffffff16148015610c595750825b90505f60018367ffffffffffffffff16148015610c8c57505f3073ffffffffffffffffffffffffffffffffffffffff163b145b905081158015610c9a575080155b15610cd1576040517ff92ee8a900000000000000000000000000000000000000000000000000000000815260040160405180910390fd5b6001855f015f6101000a81548167ffffffffffffffff021916908367ffffffffffffffff1602179055508315610d1e576001855f0160086101000a81548160ff0219169083151502179055505b610d2787611c63565b610d2f611c77565b610d37611c81565b610d3f611c8b565b610d47611c9d565b610d71867fffffffffffffffffffffffffffffffffffffffffffffffffffffffffffffffff611784565b8315610dcb575f855f0160086101000a81548160ff0219169083151502179055507fc7f505b2f371ae2175ee4913f4499e1f2633a7b5936321eed1cdaeb6115181d26001604051610dc29190612f62565b60405180910390a15b50505050505050565b82610ddd610ffd565b73ffffffffffffffffffffffffffffffffffffffff16637c145cc78230336040518463ffffffff1660e01b8152600401610e1993929190612d28565b602060405180830381865afa158015610e34573d5f5f3e3d5ffd5b505050506040513d601f19601f82011682018060405250810190610e589190612d87565b81339091610e9d576040517fcc5d3c8b000000000000000000000000000000000000000000000000000000008152600401610e94929190612db2565b60405180910390fd5b5050610ea884611cb7565b8373ffffffffffffffffffffffffffffffffffffffff167ff53cf6521a1b5fc0c04bffa70374a4dc2e3474f2b2ac1643c3bcc54e2db4a93960405160405180910390a250505050565b505050565b5f5f610f00611d32565b9050805f015f9054906101000a900473ffffffffffffffffffffffffffffffffffffffff1691505090565b610f33611673565b5f610f3c611d32565b905081815f015f6101000a81548173ffffffffffffffffffffffffffffffffffffffff021916908373ffffffffffffffffffffffffffffffffffffffff1602179055508173ffffffffffffffffffffffffffffffffffffffff16610f9e6108db565b73ffffffffffffffffffffffffffffffffffffffff167f38d16b8cac22d99fc7c124b9cd0de2d3fa1faef420bfe791d8c362d765e2270060405160405180910390a35050565b5f600260189054906101000a900463ffffffff16905090565b5f7f0000000000000000000000000000000000000000000000000000000000000000905090565b61102c612629565b5f611035610ffd565b73ffffffffffffffffffffffffffffffffffffffff166325d9897e84306040518363ffffffff1660e01b815260040161106f929190612db2565b61014060405180830381865afa15801561108b573d5f5f3e3d5ffd5b505050506040513d601f19601f820116820180604052508101906110af91906130de565b90505f8160a0015167ffffffffffffffff1614158390611105576040517f7b3c09bf0000000000000000000000000000000000000000000000000000000081526004016110fc9190612741565b60405180910390fd5b5080915050919050565b6111658160200151825f01516111259190613137565b5f546001546040518060400160405280600681526020017f746f6b656e730000000000000000000000000000000000000000000000000000815250611d59565b50565b5f5f611172611737565b915091505f8361118657846080015161118c565b8460e001515b90506111ed8167ffffffffffffffff168467ffffffffffffffff168467ffffffffffffffff166040518060400160405280600d81526020017f74686177696e67506572696f6400000000000000000000000000000000000000815250611d59565b5f5f6111f76113ad565b915091505f8661120b578760600151611211565b8760c001515b90506112668163ffffffff168463ffffffff168463ffffffff166040518060400160405280600e81526020017f6d61785665726966696572437574000000000000000000000000000000000000815250611d59565b5050505050505050565b5f73ffffffffffffffffffffffffffffffffffffffff168173ffffffffffffffffffffffffffffffffffffffff16036112d5576040517f717621cb00000000000000000000000000000000000000000000000000000000815260040160405180910390fd5b8060685f8473ffffffffffffffffffffffffffffffffffffffff1673ffffffffffffffffffffffffffffffffffffffff1681526020019081526020015f205f6101000a81548173ffffffffffffffffffffffffffffffffffffffff021916908373ffffffffffffffffffffffffffffffffffffffff1602179055508073ffffffffffffffffffffffffffffffffffffffff168273ffffffffffffffffffffffffffffffffffffffff167e3215dc05a2fc4e6a1e2c2776311d207c730ee51085aae221acc5cbe6fb55c160405160405180910390a35050565b5f5f600260109054906101000a900463ffffffff16600260149054906101000a900463ffffffff16915091509091565b7f000000000000000000000000000000000000000000000000000000000000000073ffffffffffffffffffffffffffffffffffffffff163073ffffffffffffffffffffffffffffffffffffffff16148061148a57507f000000000000000000000000000000000000000000000000000000000000000073ffffffffffffffffffffffffffffffffffffffff16611471611dc3565b73ffffffffffffffffffffffffffffffffffffffff1614155b156114c1576040517fe07c8dba00000000000000000000000000000000000000000000000000000000815260040160405180910390fd5b565b6114cb611673565b50565b8173ffffffffffffffffffffffffffffffffffffffff166352d1902d6040518163ffffffff1660e01b8152600401602060405180830381865afa92505050801561153657506040513d601f19601f820116820180604052508101906115339190613194565b60015b61157757816040517f4c9c8ce300000000000000000000000000000000000000000000000000000000815260040161156e9190612741565b60405180910390fd5b7f360894a13ba1a3210667c828492db98dca3e2076cc3735a920a3ca505d382bbc5f1b81146115dd57806040517faa1d49a40000000000000000000000000000000000000000000000000000000081526004016115d49190612a51565b60405180910390fd5b6115e78383611e16565b505050565b7f000000000000000000000000000000000000000000000000000000000000000073ffffffffffffffffffffffffffffffffffffffff163073ffffffffffffffffffffffffffffffffffffffff1614611671576040517fe07c8dba00000000000000000000000000000000000000000000000000000000815260040160405180910390fd5b565b61167b61176e565b73ffffffffffffffffffffffffffffffffffffffff166116996108db565b73ffffffffffffffffffffffffffffffffffffffff16146116f8576116bc61176e565b6040517f118cdaa70000000000000000000000000000000000000000000000000000000081526004016116ef9190612741565b60405180910390fd5b565b5f611703611d32565b9050805f015f6101000a81549073ffffffffffffffffffffffffffffffffffffffff021916905561173382611e88565b5050565b5f5f60025f9054906101000a900467ffffffffffffffff16600260089054906101000a900467ffffffffffffffff16915091509091565b5f33905090565b5f5f5f54600154915091509091565b80821115828290916117cd576040517fccccdafb0000000000000000000000000000000000000000000000000000000081526004016117c4929190612ab3565b60405180910390fd5b5050815f81905550806001819055507f90699b8b4bf48918fea1129c85f9bc7b51285df7ecc982910813c7805f568849828260405161180d929190612ab3565b60405180910390a15050565b5f7f9016d09d72d40fdae2fd8ceac6b6234c7706214fd39c1cd1e609a0528c199300905090565b5f611849611f59565b90506002815f015403611888576040517f3ee5aeb500000000000000000000000000000000000000000000000000000000815260040160405180910390fd5b6002815f018190555050565b5f5f83838101906118a5919061337e565b5090508473ffffffffffffffffffffffffffffffffffffffff16815f01516040015173ffffffffffffffffffffffffffffffffffffffff1614815f01516040015186909161192a576040517f920958e8000000000000000000000000000000000000000000000000000000008152600401611921929190612db2565b60405180910390fd5b50505f611935611f80565b90505f8173ffffffffffffffffffffffffffffffffffffffff166370a08231306040518263ffffffff1660e01b81526004016119719190612741565b602060405180830381865afa15801561198c573d5f5f3e3d5ffd5b505050506040513d601f19601f820116820180604052508101906119b091906133d8565b90505f7f000000000000000000000000000000000000000000000000000000000000000073ffffffffffffffffffffffffffffffffffffffff1663692209ce5f8661271060685f8e73ffffffffffffffffffffffffffffffffffffffff1673ffffffffffffffffffffffffffffffffffffffff1681526020019081526020015f205f9054906101000a900473ffffffffffffffffffffffffffffffffffffffff16604051602001611a639392919061356b565b6040516020818303038152906040525f6040518463ffffffff1660e01b8152600401611a9193929190613618565b6020604051808303815f875af1158015611aad573d5f5f3e3d5ffd5b505050506040513d601f19601f82011682018060405250810190611ad191906133d8565b90505f828473ffffffffffffffffffffffffffffffffffffffff166370a08231306040518263ffffffff1660e01b8152600401611b0e9190612741565b602060405180830381865afa158015611b29573d5f5f3e3d5ffd5b505050506040513d601f19601f82011682018060405250810190611b4d91906133d8565b611b579190613137565b90505f811115611c16578373ffffffffffffffffffffffffffffffffffffffff166342966c68826040518263ffffffff1660e01b8152600401611b9a9190612772565b5f604051808303815f87803b158015611bb1575f5ffd5b505af1158015611bc3573d5f5f3e3d5ffd5b505050508873ffffffffffffffffffffffffffffffffffffffff167f47d2e74b974237394041af03e2c2feb6fb33d33eccb582da0226de5614b6736a82604051611c0d9190612772565b60405180910390a25b81955050505050509392505050565b5f611c2e611f59565b90506001815f018190555050565b5f7ff0c57e16840df040f15088dc2f81fe391c3923bec73e23a9662efc9c229c6a00905090565b611c6b611fa7565b611c7481611fe7565b50565b611c7f611fa7565b565b611c89611fa7565b565b611c93611fa7565b611c9b61206b565b565b611ca5611fa7565b611cad61208a565b611cb56120ea565b565b611cc28160016120f4565b611cca610ffd565b73ffffffffffffffffffffffffffffffffffffffff16633a78b732826040518263ffffffff1660e01b8152600401611d029190612741565b5f604051808303815f87803b158015611d19575f5ffd5b505af1158015611d2b573d5f5f3e3d5ffd5b5050505050565b5f7f237e158222e3e6968b72b9db0d8043aacf074ad9f650f0d1606b4d82ee432c00905090565b611d6e83838661210f9092919063ffffffff16565b8185858590919293611db9576040517f0871e13d000000000000000000000000000000000000000000000000000000008152600401611db09493929190613654565b60405180910390fd5b5050505050505050565b5f611def7f360894a13ba1a3210667c828492db98dca3e2076cc3735a920a3ca505d382bbc5f1b612129565b5f015f9054906101000a900473ffffffffffffffffffffffffffffffffffffffff16905090565b611e1f82612132565b8173ffffffffffffffffffffffffffffffffffffffff167fbc7cd75a20ee27fd9adebab32041f755214dbc6bffa90cc0225b39da2e5c2d3b60405160405180910390a25f81511115611e7b57611e7582826121fb565b50611e84565b611e8361227b565b5b5050565b5f611e91611819565b90505f815f015f9054906101000a900473ffffffffffffffffffffffffffffffffffffffff16905082825f015f6101000a81548173ffffffffffffffffffffffffffffffffffffffff021916908373ffffffffffffffffffffffffffffffffffffffff1602179055508273ffffffffffffffffffffffffffffffffffffffff168173ffffffffffffffffffffffffffffffffffffffff167f8be0079c531659141344cd1fd0a4f28419497f9722a3daafe3b4186f6b6457e060405160405180910390a3505050565b5f7f9b779b17422d0df92223018b32b4d1fa46e071723d6817e2486d003becc55f00905090565b5f7f0000000000000000000000000000000000000000000000000000000000000000905090565b611faf6122b7565b611fe5576040517fd7e6bcf800000000000000000000000000000000000000000000000000000000815260040160405180910390fd5b565b611fef611fa7565b5f73ffffffffffffffffffffffffffffffffffffffff168173ffffffffffffffffffffffffffffffffffffffff160361205f575f6040517f1e4fbdf70000000000000000000000000000000000000000000000000000000081526004016120569190612741565b60405180910390fd5b612068816116fa565b50565b612073611fa7565b5f61207c611f59565b90506001815f018190555050565b612092611fa7565b6120bc5f7fffffffffffffffffffffffffffffffffffffffffffffffffffffffffffffffff611784565b6120c95f620f42406122d5565b6120db5f67ffffffffffffffff612401565b6120e863ffffffff6124ee565b565b6120f2611fa7565b565b5f6120fe83611024565b905061210a8183611168565b505050565b5f8284101580156121205750818411155b90509392505050565b5f819050919050565b5f8173ffffffffffffffffffffffffffffffffffffffff163b0361218d57806040517f4c9c8ce30000000000000000000000000000000000000000000000000000000081526004016121849190612741565b60405180910390fd5b806121b97f360894a13ba1a3210667c828492db98dca3e2076cc3735a920a3ca505d382bbc5f1b612129565b5f015f6101000a81548173ffffffffffffffffffffffffffffffffffffffff021916908373ffffffffffffffffffffffffffffffffffffffff16021790555050565b60605f5f8473ffffffffffffffffffffffffffffffffffffffff168460405161222491906136d8565b5f60405180830381855af49150503d805f811461225c576040519150601f19603f3d011682016040523d82523d5f602084013e612261565b606091505b5091509150612271858383612549565b9250505092915050565b5f3411156122b5576040517fb398979f00000000000000000000000000000000000000000000000000000000815260040160405180910390fd5b565b5f6122c0611c3c565b5f0160089054906101000a900460ff16905090565b8063ffffffff168263ffffffff1611158282909161232a576040517fccccdafb00000000000000000000000000000000000000000000000000000000815260040161232192919061371e565b60405180910390fd5b505061233b8163ffffffff166125d6565b82829091612380576040517fccccdafb00000000000000000000000000000000000000000000000000000000815260040161237792919061371e565b60405180910390fd5b505081600260106101000a81548163ffffffff021916908363ffffffff16021790555080600260146101000a81548163ffffffff021916908363ffffffff1602179055507f2fe5a7039987697813605cc0b9d6db7aab575408e3fc59e8a457bef8d7bc0a3682826040516123f5929190612880565b60405180910390a15050565b8067ffffffffffffffff168267ffffffffffffffff1611158282909161245e576040517fccccdafb000000000000000000000000000000000000000000000000000000008152600401612455929190613775565b60405180910390fd5b50508160025f6101000a81548167ffffffffffffffff021916908367ffffffffffffffff16021790555080600260086101000a81548167ffffffffffffffff021916908367ffffffffffffffff1602179055507f2867e04c500e438761486b78021d4f9eb97c77ff45d10c1183f5583ba4cbf7d182826040516124e2929190612a8c565b60405180910390a15050565b80600260186101000a81548163ffffffff021916908363ffffffff1602179055507f472aba493f9fd1d136ec54986f619f3aa5caff964f0e731a9909fb9a1270211f8160405161253e91906127a9565b60405180910390a150565b60608261255e57612559826125e5565b6125ce565b5f825114801561258457505f8473ffffffffffffffffffffffffffffffffffffffff163b145b156125c657836040517f9996b3150000000000000000000000000000000000000000000000000000000081526004016125bd9190612741565b60405180910390fd5b8190506125cf565b5b9392505050565b5f620f42408211159050919050565b5f815111156125f75780518082602001fd5b6040517fd6bda27500000000000000000000000000000000000000000000000000000000815260040160405180910390fd5b6040518061014001604052805f81526020015f81526020015f81526020015f63ffffffff1681526020015f67ffffffffffffffff1681526020015f67ffffffffffffffff1681526020015f63ffffffff1681526020015f67ffffffffffffffff1681526020015f81526020015f81525090565b5f604051905090565b5f5ffd5b5f5ffd5b5f73ffffffffffffffffffffffffffffffffffffffff82169050919050565b5f6126d6826126ad565b9050919050565b6126e6816126cc565b81146126f0575f5ffd5b50565b5f81359050612701816126dd565b92915050565b5f6020828403121561271c5761271b6126a5565b5b5f612729848285016126f3565b91505092915050565b61273b816126cc565b82525050565b5f6020820190506127545f830184612732565b92915050565b5f819050919050565b61276c8161275a565b82525050565b5f6020820190506127855f830184612763565b92915050565b5f63ffffffff82169050919050565b6127a38161278b565b82525050565b5f6020820190506127bc5f83018461279a565b92915050565b5f5ffd5b5f5ffd5b5f5ffd5b5f5f83601f8401126127e3576127e26127c2565b5b8235905067ffffffffffffffff811115612800576127ff6127c6565b5b60208301915083600182028301111561281c5761281b6127ca565b5b9250929050565b5f5f5f6040848603121561283a576128396126a5565b5b5f612847868287016126f3565b935050602084013567ffffffffffffffff811115612868576128676126a9565b5b612874868287016127ce565b92509250509250925092565b5f6040820190506128935f83018561279a565b6128a0602083018461279a565b9392505050565b5f5ffd5b5f601f19601f8301169050919050565b7f4e487b71000000000000000000000000000000000000000000000000000000005f52604160045260245ffd5b6128f1826128ab565b810181811067ffffffffffffffff821117156129105761290f6128bb565b5b80604052505050565b5f61292261269c565b905061292e82826128e8565b919050565b5f67ffffffffffffffff82111561294d5761294c6128bb565b5b612956826128ab565b9050602081019050919050565b828183375f83830152505050565b5f61298361297e84612933565b612919565b90508281526020810184848401111561299f5761299e6128a7565b5b6129aa848285612963565b509392505050565b5f82601f8301126129c6576129c56127c2565b5b81356129d6848260208601612971565b91505092915050565b5f5f604083850312156129f5576129f46126a5565b5b5f612a02858286016126f3565b925050602083013567ffffffffffffffff811115612a2357612a226126a9565b5b612a2f858286016129b2565b9150509250929050565b5f819050919050565b612a4b81612a39565b82525050565b5f602082019050612a645f830184612a42565b92915050565b5f67ffffffffffffffff82169050919050565b612a8681612a6a565b82525050565b5f604082019050612a9f5f830185612a7d565b612aac6020830184612a7d565b9392505050565b5f604082019050612ac65f830185612763565b612ad36020830184612763565b9392505050565b612ae38161275a565b8114612aed575f5ffd5b50565b5f81359050612afe81612ada565b92915050565b5f60208284031215612b1957612b186126a5565b5b5f612b2684828501612af0565b91505092915050565b5f819050919050565b5f612b52612b4d612b48846126ad565b612b2f565b6126ad565b9050919050565b5f612b6382612b38565b9050919050565b5f612b7482612b59565b9050919050565b612b8481612b6a565b82525050565b5f602082019050612b9d5f830184612b7b565b92915050565b5f81519050919050565b5f82825260208201905092915050565b8281835e5f83830152505050565b5f612bd582612ba3565b612bdf8185612bad565b9350612bef818560208601612bbd565b612bf8816128ab565b840191505092915050565b5f6020820190508181035f830152612c1b8184612bcb565b905092915050565b60038110612c2f575f5ffd5b50565b5f81359050612c4081612c23565b92915050565b5f5f5f5f60608587031215612c5e57612c5d6126a5565b5b5f612c6b878288016126f3565b9450506020612c7c87828801612c32565b935050604085013567ffffffffffffffff811115612c9d57612c9c6126a9565b5b612ca9878288016127ce565b925092505092959194509250565b5f8115159050919050565b612ccb81612cb7565b82525050565b5f602082019050612ce45f830184612cc2565b92915050565b5f5f60408385031215612d0057612cff6126a5565b5b5f612d0d858286016126f3565b9250506020612d1e85828601612af0565b9150509250929050565b5f606082019050612d3b5f830186612732565b612d486020830185612732565b612d556040830184612732565b949350505050565b612d6681612cb7565b8114612d70575f5ffd5b50565b5f81519050612d8181612d5d565b92915050565b5f60208284031215612d9c57612d9b6126a5565b5b5f612da984828501612d73565b91505092915050565b5f604082019050612dc55f830185612732565b612dd26020830184612732565b9392505050565b5f612de3826126ad565b9050919050565b612df381612dd9565b8114612dfd575f5ffd5b50565b5f81359050612e0e81612dea565b92915050565b5f60208284031215612e2957612e286126a5565b5b5f612e3684828501612e00565b91505092915050565b5f82825260208201905092915050565b5f612e5a8385612e3f565b9350612e67838584612963565b612e70836128ab565b840190509392505050565b5f6020820190508181035f830152612e94818486612e4f565b90509392505050565b7f4e487b71000000000000000000000000000000000000000000000000000000005f52602160045260245ffd5b60038110612edb57612eda612e9d565b5b50565b5f819050612eeb82612eca565b919050565b5f612efa82612ede565b9050919050565b612f0a81612ef0565b82525050565b5f602082019050612f235f830184612f01565b92915050565b5f819050919050565b5f612f4c612f47612f4284612f29565b612b2f565b612a6a565b9050919050565b612f5c81612f32565b82525050565b5f602082019050612f755f830184612f53565b92915050565b5f5ffd5b5f5ffd5b5f81519050612f9181612ada565b92915050565b612fa08161278b565b8114612faa575f5ffd5b50565b5f81519050612fbb81612f97565b92915050565b612fca81612a6a565b8114612fd4575f5ffd5b50565b5f81519050612fe581612fc1565b92915050565b5f610140828403121561300157613000612f7b565b5b61300c610140612919565b90505f61301b84828501612f83565b5f83015250602061302e84828501612f83565b602083015250604061304284828501612f83565b604083015250606061305684828501612fad565b606083015250608061306a84828501612fd7565b60808301525060a061307e84828501612fd7565b60a08301525060c061309284828501612fad565b60c08301525060e06130a684828501612fd7565b60e0830152506101006130bb84828501612f83565b610100830152506101206130d184828501612f83565b6101208301525092915050565b5f61014082840312156130f4576130f36126a5565b5b5f61310184828501612feb565b91505092915050565b7f4e487b71000000000000000000000000000000000000000000000000000000005f52601160045260245ffd5b5f6131418261275a565b915061314c8361275a565b92508282039050818111156131645761316361310a565b5b92915050565b61317381612a39565b811461317d575f5ffd5b50565b5f8151905061318e8161316a565b92915050565b5f602082840312156131a9576131a86126a5565b5b5f6131b684828501613180565b91505092915050565b5f813590506131cd8161316a565b92915050565b5f813590506131e181612fc1565b92915050565b5f6fffffffffffffffffffffffffffffffff82169050919050565b61320b816131e7565b8114613215575f5ffd5b50565b5f8135905061322681613202565b92915050565b5f60e0828403121561324157613240612f7b565b5b61324b60e0612919565b90505f61325a848285016131bf565b5f83015250602061326d848285016126f3565b6020830152506040613281848285016126f3565b6040830152506060613295848285016126f3565b60608301525060806132a9848285016131d3565b60808301525060a06132bd84828501613218565b60a08301525060c082013567ffffffffffffffff8111156132e1576132e0612f7f565b5b6132ed848285016129b2565b60c08301525092915050565b5f6040828403121561330e5761330d612f7b565b5b6133186040612919565b90505f82013567ffffffffffffffff81111561333757613336612f7f565b5b6133438482850161322c565b5f83015250602082013567ffffffffffffffff81111561336657613365612f7f565b5b613372848285016129b2565b60208301525092915050565b5f5f60408385031215613394576133936126a5565b5b5f83013567ffffffffffffffff8111156133b1576133b06126a9565b5b6133bd858286016132f9565b92505060206133ce85828601612af0565b9150509250929050565b5f602082840312156133ed576133ec6126a5565b5b5f6133fa84828501612f83565b91505092915050565b61340c81612a39565b82525050565b61341b816126cc565b82525050565b61342a81612a6a565b82525050565b613439816131e7565b82525050565b5f81519050919050565b5f82825260208201905092915050565b5f6134638261343f565b61346d8185613449565b935061347d818560208601612bbd565b613486816128ab565b840191505092915050565b5f60e083015f8301516134a65f860182613403565b5060208301516134b96020860182613412565b5060408301516134cc6040860182613412565b5060608301516134df6060860182613412565b5060808301516134f26080860182613421565b5060a083015161350560a0860182613430565b5060c083015184820360c086015261351d8282613459565b9150508091505092915050565b5f604083015f8301518482035f8601526135448282613491565b9150506020830151848203602086015261355e8282613459565b9150508091505092915050565b5f6060820190508181035f830152613583818661352a565b90506135926020830185612763565b61359f6040830184612732565b949350505050565b5f6135b18261343f565b6135bb8185612e3f565b93506135cb818560208601612bbd565b6135d4816128ab565b840191505092915050565b5f819050919050565b5f6136026135fd6135f8846135df565b612b2f565b61275a565b9050919050565b613612816135e8565b82525050565b5f60608201905061362b5f830186612f01565b818103602083015261363d81856135a7565b905061364c6040830184613609565b949350505050565b5f6080820190508181035f83015261366c81876135a7565b905061367b6020830186612763565b6136886040830185612763565b6136956060830184612763565b95945050505050565b5f81905092915050565b5f6136b28261343f565b6136bc818561369e565b93506136cc818560208601612bbd565b80840191505092915050565b5f6136e382846136a8565b915081905092915050565b5f6137086137036136fe8461278b565b612b2f565b61275a565b9050919050565b613718816136ee565b82525050565b5f6040820190506137315f83018561370f565b61373e602083018461370f565b9392505050565b5f61375f61375a61375584612a6a565b612b2f565b61275a565b9050919050565b61376f81613745565b82525050565b5f6040820190506137885f830185613766565b6137956020830184613766565b939250505056fea264697066735822122008f53630ed2d1d304a9e43a137d8b67220f885efe70a73d77ea1b5596bd0b51464736f6c634300081b0033","linkReferences":{}},"methodIdentifiers":{"BURN_TAX_PPM()":"1e79abd2","GRAPH_TALLY_COLLECTOR()":"9309d70e","UPGRADE_INTERFACE_VERSION()":"ad3cb1cc","acceptOwnership()":"79ba5097","acceptProvisionPendingParameters(address,bytes)":"ce0fc0cc","collect(address,uint8,bytes)":"b15d2a2c","getDelegationRatio()":"1ebb7c30","getProvisionTokensRange()":"819ba366","getThawingPeriodRange()":"71ce020a","getVerifierCutRange()":"482468b7","initialize(address,uint256)":"cd6dc687","isRegistered(address)":"c3c5a547","owner()":"8da5cb5b","paymentsDestination(address)":"07e736d8","pendingOwner()":"e30c3978","proxiableUUID()":"52d1902d","register(address,bytes)":"24b8fbf6","renounceOwnership()":"715018a6","setPaymentsDestination(address)":"6ccec5b8","setProvisionTokensRange(uint256)":"8d84925d","slash(address,bytes)":"cb8347fe","startService(address,bytes)":"dedf6726","stopService(address,bytes)":"8180083b","transferOwnership(address)":"f2fde38b","upgradeToAndCall(address,bytes)":"4f1ef286"},"id":46}