{"abi":[{"type":"constructor","inputs":[{"name":"controller","type":"address","internalType":"address"},{"name":"graphTallyCollector","type":"address","internalType":"address"}],"stateMutability":"nonpayable"},{"type":"function","name":"BURN_TAX_PPM","inputs":[],"outputs":[{"name":"","type":"uint256","internalType":"uint256"}],"stateMutability":"view"},{"type":"function","name":"GRAPH_TALLY_COLLECTOR","inputs":[],"outputs":[{"name":"","type":"address","internalType":"contract IGraphTallyCollector"}],"stateMutability":"view"},{"type":"function","name":"UPGRADE_INTERFACE_VERSION","inputs":[],"outputs":[{"name":"","type":"string","internalType":"string"}],"stateMutability":"view"},{"type":"function","name":"acceptProvisionPendingParameters","inputs":[{"name":"indexer","type":"address","internalType":"address"},{"name":"","type":"bytes","internalType":"bytes"}],"outputs":[],"stateMutability":"nonpayable"},{"type":"function","name":"collect","inputs":[{"name":"indexer","type":"address","internalType":"address"},{"name":"paymentType","type":"uint8","internalType":"enum IGraphPayments.PaymentTypes"},{"name":"data","type":"bytes","internalType":"bytes"}],"outputs":[{"name":"","type":"uint256","internalType":"uint256"}],"stateMutability":"nonpayable"},{"type":"function","name":"getDelegationRatio","inputs":[],"outputs":[{"name":"","type":"uint32","internalType":"uint32"}],"stateMutability":"view"},{"type":"function","name":"getProvisionTokensRange","inputs":[],"outputs":[{"name":"","type":"uint256","internalType":"uint256"},{"name":"","type":"uint256","internalType":"uint256"}],"stateMutability":"view"},{"type":"function","name":"getThawingPeriodRange","inputs":[],"outputs":[{"name":"","type":"uint64","internalType":"uint64"},{"name":"","type":"uint64","internalType":"uint64"}],"stateMutability":"view"},{"type":"function","name":"getVerifierCutRange","inputs":[],"outputs":[{"name":"","type":"uint32","internalType":"uint32"},{"name":"","type":"uint32","internalType":"uint32"}],"stateMutability":"view"},{"type":"function","name":"initialize","inputs":[{"name":"initialOwner","type":"address","internalType":"address"},{"name":"minimumProvisionTokens","type":"uint256","internalType":"uint256"}],"outputs":[],"stateMutability":"nonpayable"},{"type":"function","name":"isRegistered","inputs":[{"name":"","type":"address","internalType":"address"}],"outputs":[{"name":"","type":"bool","internalType":"bool"}],"stateMutability":"view"},{"type":"function","name":"owner","inputs":[],"outputs":[{"name":"","type":"address","internalType":"address"}],"stateMutability":"view"},{"type":"function","name":"paymentsDestination","inputs":[{"name":"","type":"address","internalType":"address"}],"outputs":[{"name":"","type":"address","internalType":"address"}],"stateMutability":"view"},{"type":"function","name":"proxiableUUID","inputs":[],"outputs":[{"name":"","type":"bytes32","internalType":"bytes32"}],"stateMutability":"view"},{"type":"function","name":"register","inputs":[{"name":"indexer","type":"address","internalType":"address"},{"name":"data","type":"bytes","internalType":"bytes"}],"outputs":[],"stateMutability":"nonpayable"},{"type":"function","name":"renounceOwnership","inputs":[],"outputs":[],"stateMutability":"nonpayable"},{"type":"function","name":"setPaymentsDestination","inputs":[{"name":"paymentsDestination_","type":"address","internalType":"address"}],"outputs":[],"stateMutability":"nonpayable"},{"type":"function","name":"setProvisionTokensRange","inputs":[{"name":"minimumProvisionTokens","type":"uint256","internalType":"uint256"}],"outputs":[],"stateMutability":"nonpayable"},{"type":"function","name":"slash","inputs":[{"name":"","type":"address","internalType":"address"},{"name":"","type":"bytes","internalType":"bytes"}],"outputs":[],"stateMutability":"pure"},{"type":"function","name":"startService","inputs":[{"name":"","type":"address","internalType":"address"},{"name":"","type":"bytes","internalType":"bytes"}],"outputs":[],"stateMutability":"pure"},{"type":"function","name":"stopService","inputs":[{"name":"","type":"address","internalType":"address"},{"name":"","type":"bytes","internalType":"bytes"}],"outputs":[],"stateMutability":"pure"},{"type":"function","name":"transferOwnership","inputs":[{"name":"newOwner","type":"address","internalType":"address"}],"outputs":[],"stateMutability":"nonpayable"},{"type":"function","name":"upgradeToAndCall","inputs":[{"name":"newImplementation","type":"address","internalType":"address"},{"name":"data","type":"bytes","internalType":"bytes"}],"outputs":[],"stateMutability":"payable"},{"type":"event","name":"BurnTaxApplied","inputs":[{"name":"indexer","type":"address","indexed":true,"internalType":"address"},{"name":"tokensBurned","type":"uint256","indexed":false,"internalType":"uint256"}],"anonymous":false},{"type":"event","name":"DelegationRatioSet","inputs":[{"name":"ratio","type":"uint32","indexed":false,"internalType":"uint32"}],"anonymous":false},{"type":"event","name":"GraphDirectoryInitialized","inputs":[{"name":"graphToken","type":"address","indexed":true,"internalType":"address"},{"name":"graphStaking","type":"address","indexed":true,"internalType":"address"},{"name":"graphPayments","type":"address","indexed":false,"internalType":"address"},{"name":"graphEscrow","type":"address","indexed":false,"internalType":"address"},{"name":"graphController","type":"address","indexed":true,"internalType":"address"},{"name":"graphEpochManager","type":"address","indexed":false,"internalType":"address"},{"name":"graphRewardsManager","type":"address","indexed":false,"internalType":"address"},{"name":"graphTokenGateway","type":"address","indexed":false,"internalType":"address"},{"name":"graphProxyAdmin","type":"address","indexed":false,"internalType":"address"},{"name":"graphCuration","type":"address","indexed":false,"internalType":"address"}],"anonymous":false},{"type":"event","name":"Initialized","inputs":[{"name":"version","type":"uint64","indexed":false,"internalType":"uint64"}],"anonymous":false},{"type":"event","name":"OwnershipTransferred","inputs":[{"name":"previousOwner","type":"address","indexed":true,"internalType":"address"},{"name":"newOwner","type":"address","indexed":true,"internalType":"address"}],"anonymous":false},{"type":"event","name":"PaymentsDestinationSet","inputs":[{"name":"indexer","type":"address","indexed":true,"internalType":"address"},{"name":"destination","type":"address","indexed":true,"internalType":"address"}],"anonymous":false},{"type":"event","name":"ProvisionPendingParametersAccepted","inputs":[{"name":"serviceProvider","type":"address","indexed":true,"internalType":"address"}],"anonymous":false},{"type":"event","name":"ProvisionTokensRangeSet","inputs":[{"name":"min","type":"uint256","indexed":false,"internalType":"uint256"},{"name":"max","type":"uint256","indexed":false,"internalType":"uint256"}],"anonymous":false},{"type":"event","name":"ServicePaymentCollected","inputs":[{"name":"serviceProvider","type":"address","indexed":true,"internalType":"address"},{"name":"feeType","type":"uint8","indexed":true,"internalType":"enum IGraphPayments.PaymentTypes"},{"name":"tokens","type":"uint256","indexed":false,"internalType":"uint256"}],"anonymous":false},{"type":"event","name":"ServiceProviderRegistered","inputs":[{"name":"serviceProvider","type":"address","indexed":true,"internalType":"address"},{"name":"data","type":"bytes","indexed":false,"internalType":"bytes"}],"anonymous":false},{"type":"event","name":"ServiceProviderSlashed","inputs":[{"name":"serviceProvider","type":"address","indexed":true,"internalType":"address"},{"name":"tokens","type":"uint256","indexed":false,"internalType":"uint256"}],"anonymous":false},{"type":"event","name":"ServiceStarted","inputs":[{"name":"serviceProvider","type":"address","indexed":true,"internalType":"address"},{"name":"data","type":"bytes","indexed":false,"internalType":"bytes"}],"anonymous":false},{"type":"event","name":"ServiceStopped","inputs":[{"name":"serviceProvider","type":"address","indexed":true,"internalType":"address"},{"name":"data","type":"bytes","indexed":false,"internalType":"bytes"}],"anonymous":false},{"type":"event","name":"ThawingPeriodRangeSet","inputs":[{"name":"min","type":"uint64","indexed":false,"internalType":"uint64"},{"name":"max","type":"uint64","indexed":false,"internalType":"uint64"}],"anonymous":false},{"type":"event","name":"Upgraded","inputs":[{"name":"implementation","type":"address","indexed":true,"internalType":"address"}],"anonymous":false},{"type":"event","name":"VerifierCutRangeSet","inputs":[{"name":"min","type":"uint32","indexed":false,"internalType":"uint32"},{"name":"max","type":"uint32","indexed":false,"internalType":"uint32"}],"anonymous":false},{"type":"error","name":"AddressEmptyCode","inputs":[{"name":"target","type":"address","internalType":"address"}]},{"type":"error","name":"ERC1967InvalidImplementation","inputs":[{"name":"implementation","type":"address","internalType":"address"}]},{"type":"error","name":"ERC1967NonPayable","inputs":[]},{"type":"error","name":"FailedCall","inputs":[]},{"type":"error","name":"GraphDirectoryInvalidZeroAddress","inputs":[{"name":"contractName","type":"bytes","internalType":"bytes"}]},{"type":"error","name":"InvalidInitialization","inputs":[]},{"type":"error","name":"NotInitializing","inputs":[]},{"type":"error","name":"OwnableInvalidOwner","inputs":[{"name":"owner","type":"address","internalType":"address"}]},{"type":"error","name":"OwnableUnauthorizedAccount","inputs":[{"name":"account","type":"address","internalType":"address"}]},{"type":"error","name":"ProvisionManagerInvalidRange","inputs":[{"name":"min","type":"uint256","internalType":"uint256"},{"name":"max","type":"uint256","internalType":"uint256"}]},{"type":"error","name":"ProvisionManagerInvalidValue","inputs":[{"name":"message","type":"bytes","internalType":"bytes"},{"name":"value","type":"uint256","internalType":"uint256"},{"name":"min","type":"uint256","internalType":"uint256"},{"name":"max","type":"uint256","internalType":"uint256"}]},{"type":"error","name":"ProvisionManagerNotAuthorized","inputs":[{"name":"serviceProvider","type":"address","internalType":"address"},{"name":"caller","type":"address","internalType":"address"}]},{"type":"error","name":"ProvisionManagerProvisionNotFound","inputs":[{"name":"serviceProvider","type":"address","internalType":"address"}]},{"type":"error","name":"SubstreamsDataServiceIndexerMismatch","inputs":[{"name":"ravServiceProvider","type":"address","internalType":"address"},{"name":"indexer","type":"address","internalType":"address"}]},{"type":"error","name":"SubstreamsDataServiceIndexerNotRegistered","inputs":[{"name":"indexer","type":"address","internalType":"address"}]},{"type":"error","name":"SubstreamsDataServiceInvalidPaymentType","inputs":[{"name":"paymentType","type":"uint8","internalType":"enum IGraphPayments.PaymentTypes"}]},{"type":"error","name":"UUPSUnauthorizedCallContext","inputs":[]},{"type":"error","name":"UUPSUnsupportedProxiableUUID","inputs":[{"name":"slot","type":"bytes32","internalType":"bytes32"}]}],"bytecode":{"object":"0x6102006040523073ffffffffffffffffffffffffffffffffffffffff1660809073ffffffffffffffffffffffffffffffffffffffff16815250348015610043575f5ffd5b5060405161403a38038061403a833981810160405281019061006591906108b3565b81805f73ffffffffffffffffffffffffffffffffffffffff168173ffffffffffffffffffffffffffffffffffffffff16036100d5576040517f431eb5ba0000000000000000000000000000000000000000000000000000000081526004016100cc9061094b565b60405180910390fd5b8073ffffffffffffffffffffffffffffffffffffffff166101208173ffffffffffffffffffffffffffffffffffffffff168152505061014e6040518060400160405280600a81526020017f4772617068546f6b656e0000000000000000000000000000000000000000000081525061062e60201b60201c565b73ffffffffffffffffffffffffffffffffffffffff1660a08173ffffffffffffffffffffffffffffffffffffffff16815250506101c56040518060400160405280600781526020017f5374616b696e670000000000000000000000000000000000000000000000000081525061062e60201b60201c565b73ffffffffffffffffffffffffffffffffffffffff1660c08173ffffffffffffffffffffffffffffffffffffffff168152505061023c6040518060400160405280600d81526020017f47726170685061796d656e74730000000000000000000000000000000000000081525061062e60201b60201c565b73ffffffffffffffffffffffffffffffffffffffff1660e08173ffffffffffffffffffffffffffffffffffffffff16815250506102b36040518060400160405280600e81526020017f5061796d656e7473457363726f7700000000000000000000000000000000000081525061062e60201b60201c565b73ffffffffffffffffffffffffffffffffffffffff166101008173ffffffffffffffffffffffffffffffffffffffff168152505061032b6040518060400160405280600c81526020017f45706f63684d616e61676572000000000000000000000000000000000000000081525061062e60201b60201c565b73ffffffffffffffffffffffffffffffffffffffff166101408173ffffffffffffffffffffffffffffffffffffffff16815250506103a36040518060400160405280600e81526020017f526577617264734d616e6167657200000000000000000000000000000000000081525061062e60201b60201c565b73ffffffffffffffffffffffffffffffffffffffff166101608173ffffffffffffffffffffffffffffffffffffffff168152505061041b6040518060400160405280601181526020017f4772617068546f6b656e4761746577617900000000000000000000000000000081525061062e60201b60201c565b73ffffffffffffffffffffffffffffffffffffffff166101808173ffffffffffffffffffffffffffffffffffffffff16815250506104936040518060400160405280600f81526020017f477261706850726f787941646d696e000000000000000000000000000000000081525061062e60201b60201c565b73ffffffffffffffffffffffffffffffffffffffff166101a08173ffffffffffffffffffffffffffffffffffffffff168152505061050b6040518060400160405280600881526020017f4375726174696f6e00000000000000000000000000000000000000000000000081525061062e60201b60201c565b73ffffffffffffffffffffffffffffffffffffffff166101c08173ffffffffffffffffffffffffffffffffffffffff16815250506101205173ffffffffffffffffffffffffffffffffffffffff1660c05173ffffffffffffffffffffffffffffffffffffffff1660a05173ffffffffffffffffffffffffffffffffffffffff167fef5021414834d86e36470f5c1cecf6544fb2bb723f2ca51a4c86fcd8c5919a4360e051610100516101405161016051610180516101a0516101c0516040516105da9796959493929190610978565b60405180910390a450508073ffffffffffffffffffffffffffffffffffffffff166101e08173ffffffffffffffffffffffffffffffffffffffff168152505061062761073060201b60201c565b5050610afc565b5f5f6101205173ffffffffffffffffffffffffffffffffffffffff1663f7641a5e84805190602001206040518263ffffffff1660e01b815260040161067391906109fd565b602060405180830381865afa15801561068e573d5f5f3e3d5ffd5b505050506040513d601f19601f820116820180604052508101906106b29190610a16565b90505f73ffffffffffffffffffffffffffffffffffffffff168173ffffffffffffffffffffffffffffffffffffffff1614158390610726576040517f431eb5ba00000000000000000000000000000000000000000000000000000000815260040161071d9190610aa1565b60405180910390fd5b5080915050919050565b5f61073f61082e60201b60201c565b9050805f0160089054906101000a900460ff1615610789576040517ff92ee8a900000000000000000000000000000000000000000000000000000000815260040160405180910390fd5b67ffffffffffffffff8016815f015f9054906101000a900467ffffffffffffffff1667ffffffffffffffff161461082b5767ffffffffffffffff815f015f6101000a81548167ffffffffffffffff021916908367ffffffffffffffff1602179055507fc7f505b2f371ae2175ee4913f4499e1f2633a7b5936321eed1cdaeb6115181d267ffffffffffffffff6040516108229190610ae3565b60405180910390a15b50565b5f7ff0c57e16840df040f15088dc2f81fe391c3923bec73e23a9662efc9c229c6a00905090565b5f5ffd5b5f73ffffffffffffffffffffffffffffffffffffffff82169050919050565b5f61088282610859565b9050919050565b61089281610878565b811461089c575f5ffd5b50565b5f815190506108ad81610889565b92915050565b5f5f604083850312156108c9576108c8610855565b5b5f6108d68582860161089f565b92505060206108e78582860161089f565b9150509250929050565b5f82825260208201905092915050565b7f436f6e74726f6c6c6572000000000000000000000000000000000000000000005f82015250565b5f610935600a836108f1565b915061094082610901565b602082019050919050565b5f6020820190508181035f83015261096281610929565b9050919050565b61097281610878565b82525050565b5f60e08201905061098b5f83018a610969565b6109986020830189610969565b6109a56040830188610969565b6109b26060830187610969565b6109bf6080830186610969565b6109cc60a0830185610969565b6109d960c0830184610969565b98975050505050505050565b5f819050919050565b6109f7816109e5565b82525050565b5f602082019050610a105f8301846109ee565b92915050565b5f60208284031215610a2b57610a2a610855565b5b5f610a388482850161089f565b91505092915050565b5f81519050919050565b8281835e5f83830152505050565b5f601f19601f8301169050919050565b5f610a7382610a41565b610a7d81856108f1565b9350610a8d818560208601610a4b565b610a9681610a59565b840191505092915050565b5f6020820190508181035f830152610ab98184610a69565b905092915050565b5f67ffffffffffffffff82169050919050565b610add81610ac1565b82525050565b5f602082019050610af65f830184610ad4565b92915050565b60805160a05160c05160e05161010051610120516101405161016051610180516101a0516101c0516101e0516134be610b7c5f395f818161081e015261180b01525f50505f50505f50505f50505f50505f50505f50505f50505f610e8201525f611c8e01525f81816111fc01528181611251015261140b01526134be5ff3fe60806040526004361061013f575f3560e01c8063819ba366116100b5578063c3c5a5471161006e578063c3c5a5471461040a578063cb8347fe14610446578063cd6dc6871461046e578063ce0fc0cc14610496578063dedf6726146104be578063f2fde38b146104e65761013f565b8063819ba366146102fd5780638d84925d146103285780638da5cb5b146103505780639309d70e1461037a578063ad3cb1cc146103a4578063b15d2a2c146103ce5761013f565b80634f1ef286116101075780634f1ef2861461022657806352d1902d146102425780636ccec5b81461026c578063715018a61461029457806371ce020a146102aa5780638180083b146102d55761013f565b806307e736d8146101435780631e79abd21461017f5780631ebb7c30146101a957806324b8fbf6146101d3578063482468b7146101fb575b5f5ffd5b34801561014e575f5ffd5b50610169600480360381019061016491906123f3565b61050e565b604051610176919061242d565b60405180910390f35b34801561018a575f5ffd5b5061019361053e565b6040516101a0919061245e565b60405180910390f35b3480156101b4575f5ffd5b506101bd610544565b6040516101ca9190612495565b60405180910390f35b3480156101de575f5ffd5b506101f960048036038101906101f4919061250f565b610552565b005b348015610206575f5ffd5b5061020f610707565b60405161021d92919061256c565b60405180910390f35b610240600480360381019061023b91906126cb565b610719565b005b34801561024d575f5ffd5b50610256610738565b604051610263919061273d565b60405180910390f35b348015610277575f5ffd5b50610292600480360381019061028d91906123f3565b610769565b005b34801561029f575f5ffd5b506102a8610776565b005b3480156102b5575f5ffd5b506102be610789565b6040516102cc929190612778565b60405180910390f35b3480156102e0575f5ffd5b506102fb60048036038101906102f6919061250f565b61079b565b005b348015610308575f5ffd5b506103116107a0565b60405161031f92919061279f565b60405180910390f35b348015610333575f5ffd5b5061034e600480360381019061034991906127f0565b6107b2565b005b34801561035b575f5ffd5b506103646107e7565b604051610371919061242d565b60405180910390f35b348015610385575f5ffd5b5061038e61081c565b60405161039b9190612876565b60405180910390f35b3480156103af575f5ffd5b506103b8610840565b6040516103c591906128ef565b60405180910390f35b3480156103d9575f5ffd5b506103f460048036038101906103ef9190612932565b610879565b604051610401919061245e565b60405180910390f35b348015610415575f5ffd5b50610430600480360381019061042b91906123f3565b610ae2565b60405161043d91906129bd565b60405180910390f35b348015610451575f5ffd5b5061046c6004803603810190610467919061250f565b610aff565b005b348015610479575f5ffd5b50610494600480360381019061048f91906129d6565b610b04565b005b3480156104a1575f5ffd5b506104bc60048036038101906104b7919061250f565b610cc0565b005b3480156104c9575f5ffd5b506104e460048036038101906104df919061250f565b610ddd565b005b3480156104f1575f5ffd5b5061050c600480360381019061050791906123f3565b610de2565b005b6068602052805f5260405f205f915054906101000a900473ffffffffffffffffffffffffffffffffffffffff1681565b61271081565b5f61054d610e66565b905090565b8261055b610e7f565b73ffffffffffffffffffffffffffffffffffffffff16637c145cc78230336040518463ffffffff1660e01b815260040161059793929190612a14565b602060405180830381865afa1580156105b2573d5f5f3e3d5ffd5b505050506040513d601f19601f820116820180604052508101906105d69190612a73565b8133909161061b576040517fcc5d3c8b000000000000000000000000000000000000000000000000000000008152600401610612929190612a9e565b60405180910390fd5b5050835f61062882610ea6565b905061063381610f91565b61063d815f610fea565b5f858581019061064d9190612b00565b9050600160675f8973ffffffffffffffffffffffffffffffffffffffff1673ffffffffffffffffffffffffffffffffffffffff1681526020019081526020015f205f6101000a81548160ff0219169083151502179055506106ae87826110f2565b8673ffffffffffffffffffffffffffffffffffffffff167f159567bea25499a91f60e1fbb349ff2a1f8c1b2883198f25c1e12c99eddb44fa87876040516106f6929190612b67565b60405180910390a250505050505050565b5f5f6107116111ca565b915091509091565b6107216111fa565b61072a826112e0565b61073482826112eb565b5050565b5f610741611409565b7f360894a13ba1a3210667c828492db98dca3e2076cc3735a920a3ca505d382bbc5f1b905090565b61077333826110f2565b50565b61077e611490565b6107875f611517565b565b5f5f6107936115e8565b915091509091565b505050565b5f5f6107aa61161f565b915091509091565b6107ba611490565b6107e4817fffffffffffffffffffffffffffffffffffffffffffffffffffffffffffffffff61162e565b50565b5f5f6107f16116c3565b9050805f015f9054906101000a900473ffffffffffffffffffffffffffffffffffffffff1691505090565b7f000000000000000000000000000000000000000000000000000000000000000081565b6040518060400160405280600581526020017f352e302e3000000000000000000000000000000000000000000000000000000081525081565b5f84610883610e7f565b73ffffffffffffffffffffffffffffffffffffffff16637c145cc78230336040518463ffffffff1660e01b81526004016108bf93929190612a14565b602060405180830381865afa1580156108da573d5f5f3e3d5ffd5b505050506040513d601f19601f820116820180604052508101906108fe9190612a73565b81339091610943576040517fcc5d3c8b00000000000000000000000000000000000000000000000000000000815260040161093a929190612a9e565b60405180910390fd5b5050855f61095082610ea6565b905061095b81610f91565b610965815f610fea565b8760675f8273ffffffffffffffffffffffffffffffffffffffff1673ffffffffffffffffffffffffffffffffffffffff1681526020019081526020015f205f9054906101000a900460ff1681906109f2576040517fd687f5280000000000000000000000000000000000000000000000000000000081526004016109e9919061242d565b60405180910390fd5b505f5f90505f6002811115610a0a57610a09612b89565b5b896002811115610a1d57610a1c612b89565b5b03610a3457610a2d8a89896116ea565b9050610a71565b886040517f94341e9d000000000000000000000000000000000000000000000000000000008152600401610a689190612bfc565b60405180910390fd5b886002811115610a8457610a83612b89565b5b8a73ffffffffffffffffffffffffffffffffffffffff167f54fe682bfb66381a9382e13e4b95a3dd4f960eafbae063fdea3539d144ff3ff583604051610aca919061245e565b60405180910390a38095505050505050949350505050565b6067602052805f5260405f205f915054906101000a900460ff1681565b505050565b5f610b0d611a7b565b90505f815f0160089054906101000a900460ff161590505f825f015f9054906101000a900467ffffffffffffffff1690505f5f8267ffffffffffffffff16148015610b555750825b90505f60018367ffffffffffffffff16148015610b8857505f3073ffffffffffffffffffffffffffffffffffffffff163b145b905081158015610b96575080155b15610bcd576040517ff92ee8a900000000000000000000000000000000000000000000000000000000815260040160405180910390fd5b6001855f015f6101000a81548167ffffffffffffffff021916908367ffffffffffffffff1602179055508315610c1a576001855f0160086101000a81548160ff0219169083151502179055505b610c2387611aa2565b610c2b611ab6565b610c33611ac0565b610c5d867fffffffffffffffffffffffffffffffffffffffffffffffffffffffffffffffff61162e565b8315610cb7575f855f0160086101000a81548160ff0219169083151502179055507fc7f505b2f371ae2175ee4913f4499e1f2633a7b5936321eed1cdaeb6115181d26001604051610cae9190612c4e565b60405180910390a15b50505050505050565b82610cc9610e7f565b73ffffffffffffffffffffffffffffffffffffffff16637c145cc78230336040518463ffffffff1660e01b8152600401610d0593929190612a14565b602060405180830381865afa158015610d20573d5f5f3e3d5ffd5b505050506040513d601f19601f82011682018060405250810190610d449190612a73565b81339091610d89576040517fcc5d3c8b000000000000000000000000000000000000000000000000000000008152600401610d80929190612a9e565b60405180910390fd5b5050610d9484611ada565b8373ffffffffffffffffffffffffffffffffffffffff167ff53cf6521a1b5fc0c04bffa70374a4dc2e3474f2b2ac1643c3bcc54e2db4a93960405160405180910390a250505050565b505050565b610dea611490565b5f73ffffffffffffffffffffffffffffffffffffffff168173ffffffffffffffffffffffffffffffffffffffff1603610e5a575f6040517f1e4fbdf7000000000000000000000000000000000000000000000000000000008152600401610e51919061242d565b60405180910390fd5b610e6381611517565b50565b5f600260189054906101000a900463ffffffff16905090565b5f7f0000000000000000000000000000000000000000000000000000000000000000905090565b610eae612315565b5f610eb7610e7f565b73ffffffffffffffffffffffffffffffffffffffff166325d9897e84306040518363ffffffff1660e01b8152600401610ef1929190612a9e565b61014060405180830381865afa158015610f0d573d5f5f3e3d5ffd5b505050506040513d601f19601f82011682018060405250810190610f319190612dca565b90505f8160a0015167ffffffffffffffff1614158390610f87576040517f7b3c09bf000000000000000000000000000000000000000000000000000000008152600401610f7e919061242d565b60405180910390fd5b5080915050919050565b610fe78160200151825f0151610fa79190612e23565b5f546001546040518060400160405280600681526020017f746f6b656e730000000000000000000000000000000000000000000000000000815250611b55565b50565b5f5f610ff46115e8565b915091505f8361100857846080015161100e565b8460e001515b905061106f8167ffffffffffffffff168467ffffffffffffffff168467ffffffffffffffff166040518060400160405280600d81526020017f74686177696e67506572696f6400000000000000000000000000000000000000815250611b55565b5f5f6110796111ca565b915091505f8661108d578760600151611093565b8760c001515b90506110e88163ffffffff168463ffffffff168463ffffffff166040518060400160405280600e81526020017f6d61785665726966696572437574000000000000000000000000000000000000815250611b55565b5050505050505050565b8060685f8473ffffffffffffffffffffffffffffffffffffffff1673ffffffffffffffffffffffffffffffffffffffff1681526020019081526020015f205f6101000a81548173ffffffffffffffffffffffffffffffffffffffff021916908373ffffffffffffffffffffffffffffffffffffffff1602179055508073ffffffffffffffffffffffffffffffffffffffff168273ffffffffffffffffffffffffffffffffffffffff167e3215dc05a2fc4e6a1e2c2776311d207c730ee51085aae221acc5cbe6fb55c160405160405180910390a35050565b5f5f600260109054906101000a900463ffffffff16600260149054906101000a900463ffffffff16915091509091565b7f000000000000000000000000000000000000000000000000000000000000000073ffffffffffffffffffffffffffffffffffffffff163073ffffffffffffffffffffffffffffffffffffffff1614806112a757507f000000000000000000000000000000000000000000000000000000000000000073ffffffffffffffffffffffffffffffffffffffff1661128e611bbf565b73ffffffffffffffffffffffffffffffffffffffff1614155b156112de576040517fe07c8dba00000000000000000000000000000000000000000000000000000000815260040160405180910390fd5b565b6112e8611490565b50565b8173ffffffffffffffffffffffffffffffffffffffff166352d1902d6040518163ffffffff1660e01b8152600401602060405180830381865afa92505050801561135357506040513d601f19601f820116820180604052508101906113509190612e80565b60015b61139457816040517f4c9c8ce300000000000000000000000000000000000000000000000000000000815260040161138b919061242d565b60405180910390fd5b7f360894a13ba1a3210667c828492db98dca3e2076cc3735a920a3ca505d382bbc5f1b81146113fa57806040517faa1d49a40000000000000000000000000000000000000000000000000000000081526004016113f1919061273d565b60405180910390fd5b6114048383611c12565b505050565b7f000000000000000000000000000000000000000000000000000000000000000073ffffffffffffffffffffffffffffffffffffffff163073ffffffffffffffffffffffffffffffffffffffff161461148e576040517fe07c8dba00000000000000000000000000000000000000000000000000000000815260040160405180910390fd5b565b611498611c84565b73ffffffffffffffffffffffffffffffffffffffff166114b66107e7565b73ffffffffffffffffffffffffffffffffffffffff1614611515576114d9611c84565b6040517f118cdaa700000000000000000000000000000000000000000000000000000000815260040161150c919061242d565b60405180910390fd5b565b5f6115206116c3565b90505f815f015f9054906101000a900473ffffffffffffffffffffffffffffffffffffffff16905082825f015f6101000a81548173ffffffffffffffffffffffffffffffffffffffff021916908373ffffffffffffffffffffffffffffffffffffffff1602179055508273ffffffffffffffffffffffffffffffffffffffff168173ffffffffffffffffffffffffffffffffffffffff167f8be0079c531659141344cd1fd0a4f28419497f9722a3daafe3b4186f6b6457e060405160405180910390a3505050565b5f5f60025f9054906101000a900467ffffffffffffffff16600260089054906101000a900467ffffffffffffffff16915091509091565b5f5f5f54600154915091509091565b8082111582829091611677576040517fccccdafb00000000000000000000000000000000000000000000000000000000815260040161166e92919061279f565b60405180910390fd5b5050815f81905550806001819055507f90699b8b4bf48918fea1129c85f9bc7b51285df7ecc982910813c7805f56884982826040516116b792919061279f565b60405180910390a15050565b5f7f9016d09d72d40fdae2fd8ceac6b6234c7706214fd39c1cd1e609a0528c199300905090565b5f5f83838101906116fb919061306a565b5090508473ffffffffffffffffffffffffffffffffffffffff16815f01516040015173ffffffffffffffffffffffffffffffffffffffff1614815f015160400151869091611780576040517f920958e8000000000000000000000000000000000000000000000000000000008152600401611777929190612a9e565b60405180910390fd5b50505f61178b611c8b565b90505f8173ffffffffffffffffffffffffffffffffffffffff166370a08231306040518263ffffffff1660e01b81526004016117c7919061242d565b602060405180830381865afa1580156117e2573d5f5f3e3d5ffd5b505050506040513d601f19601f8201168201806040525081019061180691906130c4565b90505f7f000000000000000000000000000000000000000000000000000000000000000073ffffffffffffffffffffffffffffffffffffffff1663692209ce5f8661271060685f8e73ffffffffffffffffffffffffffffffffffffffff1673ffffffffffffffffffffffffffffffffffffffff1681526020019081526020015f205f9054906101000a900473ffffffffffffffffffffffffffffffffffffffff166040516020016118b993929190613257565b6040516020818303038152906040525f6040518463ffffffff1660e01b81526004016118e793929190613304565b6020604051808303815f875af1158015611903573d5f5f3e3d5ffd5b505050506040513d601f19601f8201168201806040525081019061192791906130c4565b90505f828473ffffffffffffffffffffffffffffffffffffffff166370a08231306040518263ffffffff1660e01b8152600401611964919061242d565b602060405180830381865afa15801561197f573d5f5f3e3d5ffd5b505050506040513d601f19601f820116820180604052508101906119a391906130c4565b6119ad9190612e23565b90505f811115611a6c578373ffffffffffffffffffffffffffffffffffffffff166342966c68826040518263ffffffff1660e01b81526004016119f0919061245e565b5f604051808303815f87803b158015611a07575f5ffd5b505af1158015611a19573d5f5f3e3d5ffd5b505050508873ffffffffffffffffffffffffffffffffffffffff167f47d2e74b974237394041af03e2c2feb6fb33d33eccb582da0226de5614b6736a82604051611a63919061245e565b60405180910390a25b81955050505050509392505050565b5f7ff0c57e16840df040f15088dc2f81fe391c3923bec73e23a9662efc9c229c6a00905090565b611aaa611cb2565b611ab381611cf2565b50565b611abe611cb2565b565b611ac8611cb2565b611ad0611d76565b611ad8611dd6565b565b611ae5816001611de0565b611aed610e7f565b73ffffffffffffffffffffffffffffffffffffffff16633a78b732826040518263ffffffff1660e01b8152600401611b25919061242d565b5f604051808303815f87803b158015611b3c575f5ffd5b505af1158015611b4e573d5f5f3e3d5ffd5b5050505050565b611b6a838386611dfb9092919063ffffffff16565b8185858590919293611bb5576040517f0871e13d000000000000000000000000000000000000000000000000000000008152600401611bac9493929190613340565b60405180910390fd5b5050505050505050565b5f611beb7f360894a13ba1a3210667c828492db98dca3e2076cc3735a920a3ca505d382bbc5f1b611e15565b5f015f9054906101000a900473ffffffffffffffffffffffffffffffffffffffff16905090565b611c1b82611e1e565b8173ffffffffffffffffffffffffffffffffffffffff167fbc7cd75a20ee27fd9adebab32041f755214dbc6bffa90cc0225b39da2e5c2d3b60405160405180910390a25f81511115611c7757611c718282611ee7565b50611c80565b611c7f611f67565b5b5050565b5f33905090565b5f7f0000000000000000000000000000000000000000000000000000000000000000905090565b611cba611fa3565b611cf0576040517fd7e6bcf800000000000000000000000000000000000000000000000000000000815260040160405180910390fd5b565b611cfa611cb2565b5f73ffffffffffffffffffffffffffffffffffffffff168173ffffffffffffffffffffffffffffffffffffffff1603611d6a575f6040517f1e4fbdf7000000000000000000000000000000000000000000000000000000008152600401611d61919061242d565b60405180910390fd5b611d7381611517565b50565b611d7e611cb2565b611da85f7fffffffffffffffffffffffffffffffffffffffffffffffffffffffffffffffff61162e565b611db55f620f4240611fc1565b611dc75f67ffffffffffffffff6120ed565b611dd463ffffffff6121da565b565b611dde611cb2565b565b5f611dea83610ea6565b9050611df68183610fea565b505050565b5f828410158015611e0c5750818411155b90509392505050565b5f819050919050565b5f8173ffffffffffffffffffffffffffffffffffffffff163b03611e7957806040517f4c9c8ce3000000000000000000000000000000000000000000000000000000008152600401611e70919061242d565b60405180910390fd5b80611ea57f360894a13ba1a3210667c828492db98dca3e2076cc3735a920a3ca505d382bbc5f1b611e15565b5f015f6101000a81548173ffffffffffffffffffffffffffffffffffffffff021916908373ffffffffffffffffffffffffffffffffffffffff16021790555050565b60605f5f8473ffffffffffffffffffffffffffffffffffffffff1684604051611f1091906133c4565b5f60405180830381855af49150503d805f8114611f48576040519150601f19603f3d011682016040523d82523d5f602084013e611f4d565b606091505b5091509150611f5d858383612235565b9250505092915050565b5f341115611fa1576040517fb398979f00000000000000000000000000000000000000000000000000000000815260040160405180910390fd5b565b5f611fac611a7b565b5f0160089054906101000a900460ff16905090565b8063ffffffff168263ffffffff16111582829091612016576040517fccccdafb00000000000000000000000000000000000000000000000000000000815260040161200d92919061340a565b60405180910390fd5b50506120278163ffffffff166122c2565b8282909161206c576040517fccccdafb00000000000000000000000000000000000000000000000000000000815260040161206392919061340a565b60405180910390fd5b505081600260106101000a81548163ffffffff021916908363ffffffff16021790555080600260146101000a81548163ffffffff021916908363ffffffff1602179055507f2fe5a7039987697813605cc0b9d6db7aab575408e3fc59e8a457bef8d7bc0a3682826040516120e192919061256c565b60405180910390a15050565b8067ffffffffffffffff168267ffffffffffffffff1611158282909161214a576040517fccccdafb000000000000000000000000000000000000000000000000000000008152600401612141929190613461565b60405180910390fd5b50508160025f6101000a81548167ffffffffffffffff021916908367ffffffffffffffff16021790555080600260086101000a81548167ffffffffffffffff021916908367ffffffffffffffff1602179055507f2867e04c500e438761486b78021d4f9eb97c77ff45d10c1183f5583ba4cbf7d182826040516121ce929190612778565b60405180910390a15050565b80600260186101000a81548163ffffffff021916908363ffffffff1602179055507f472aba493f9fd1d136ec54986f619f3aa5caff964f0e731a9909fb9a1270211f8160405161222a9190612495565b60405180910390a150565b60608261224a57612245826122d1565b6122ba565b5f825114801561227057505f8473ffffffffffffffffffffffffffffffffffffffff163b145b156122b257836040517f9996b3150000000000000000000000000000000000000000000000000000000081526004016122a9919061242d565b60405180910390fd5b8190506122bb565b5b9392505050565b5f620f42408211159050919050565b5f815111156122e35780518082602001fd5b6040517fd6bda27500000000000000000000000000000000000000000000000000000000815260040160405180910390fd5b6040518061014001604052805f81526020015f81526020015f81526020015f63ffffffff1681526020015f67ffffffffffffffff1681526020015f67ffffffffffffffff1681526020015f63ffffffff1681526020015f67ffffffffffffffff1681526020015f81526020015f81525090565b5f604051905090565b5f5ffd5b5f5ffd5b5f73ffffffffffffffffffffffffffffffffffffffff82169050919050565b5f6123c282612399565b9050919050565b6123d2816123b8565b81146123dc575f5ffd5b50565b5f813590506123ed816123c9565b92915050565b5f6020828403121561240857612407612391565b5b5f612415848285016123df565b91505092915050565b612427816123b8565b82525050565b5f6020820190506124405f83018461241e565b92915050565b5f819050919050565b61245881612446565b82525050565b5f6020820190506124715f83018461244f565b92915050565b5f63ffffffff82169050919050565b61248f81612477565b82525050565b5f6020820190506124a85f830184612486565b92915050565b5f5ffd5b5f5ffd5b5f5ffd5b5f5f83601f8401126124cf576124ce6124ae565b5b8235905067ffffffffffffffff8111156124ec576124eb6124b2565b5b602083019150836001820283011115612508576125076124b6565b5b9250929050565b5f5f5f6040848603121561252657612525612391565b5b5f612533868287016123df565b935050602084013567ffffffffffffffff81111561255457612553612395565b5b612560868287016124ba565b92509250509250925092565b5f60408201905061257f5f830185612486565b61258c6020830184612486565b9392505050565b5f5ffd5b5f601f19601f8301169050919050565b7f4e487b71000000000000000000000000000000000000000000000000000000005f52604160045260245ffd5b6125dd82612597565b810181811067ffffffffffffffff821117156125fc576125fb6125a7565b5b80604052505050565b5f61260e612388565b905061261a82826125d4565b919050565b5f67ffffffffffffffff821115612639576126386125a7565b5b61264282612597565b9050602081019050919050565b828183375f83830152505050565b5f61266f61266a8461261f565b612605565b90508281526020810184848401111561268b5761268a612593565b5b61269684828561264f565b509392505050565b5f82601f8301126126b2576126b16124ae565b5b81356126c284826020860161265d565b91505092915050565b5f5f604083850312156126e1576126e0612391565b5b5f6126ee858286016123df565b925050602083013567ffffffffffffffff81111561270f5761270e612395565b5b61271b8582860161269e565b9150509250929050565b5f819050919050565b61273781612725565b82525050565b5f6020820190506127505f83018461272e565b92915050565b5f67ffffffffffffffff82169050919050565b61277281612756565b82525050565b5f60408201905061278b5f830185612769565b6127986020830184612769565b9392505050565b5f6040820190506127b25f83018561244f565b6127bf602083018461244f565b9392505050565b6127cf81612446565b81146127d9575f5ffd5b50565b5f813590506127ea816127c6565b92915050565b5f6020828403121561280557612804612391565b5b5f612812848285016127dc565b91505092915050565b5f819050919050565b5f61283e61283961283484612399565b61281b565b612399565b9050919050565b5f61284f82612824565b9050919050565b5f61286082612845565b9050919050565b61287081612856565b82525050565b5f6020820190506128895f830184612867565b92915050565b5f81519050919050565b5f82825260208201905092915050565b8281835e5f83830152505050565b5f6128c18261288f565b6128cb8185612899565b93506128db8185602086016128a9565b6128e481612597565b840191505092915050565b5f6020820190508181035f83015261290781846128b7565b905092915050565b6003811061291b575f5ffd5b50565b5f8135905061292c8161290f565b92915050565b5f5f5f5f6060858703121561294a57612949612391565b5b5f612957878288016123df565b94505060206129688782880161291e565b935050604085013567ffffffffffffffff81111561298957612988612395565b5b612995878288016124ba565b925092505092959194509250565b5f8115159050919050565b6129b7816129a3565b82525050565b5f6020820190506129d05f8301846129ae565b92915050565b5f5f604083850312156129ec576129eb612391565b5b5f6129f9858286016123df565b9250506020612a0a858286016127dc565b9150509250929050565b5f606082019050612a275f83018661241e565b612a34602083018561241e565b612a41604083018461241e565b949350505050565b612a52816129a3565b8114612a5c575f5ffd5b50565b5f81519050612a6d81612a49565b92915050565b5f60208284031215612a8857612a87612391565b5b5f612a9584828501612a5f565b91505092915050565b5f604082019050612ab15f83018561241e565b612abe602083018461241e565b9392505050565b5f612acf82612399565b9050919050565b612adf81612ac5565b8114612ae9575f5ffd5b50565b5f81359050612afa81612ad6565b92915050565b5f60208284031215612b1557612b14612391565b5b5f612b2284828501612aec565b91505092915050565b5f82825260208201905092915050565b5f612b468385612b2b565b9350612b5383858461264f565b612b5c83612597565b840190509392505050565b5f6020820190508181035f830152612b80818486612b3b565b90509392505050565b7f4e487b71000000000000000000000000000000000000000000000000000000005f52602160045260245ffd5b60038110612bc757612bc6612b89565b5b50565b5f819050612bd782612bb6565b919050565b5f612be682612bca565b9050919050565b612bf681612bdc565b82525050565b5f602082019050612c0f5f830184612bed565b92915050565b5f819050919050565b5f612c38612c33612c2e84612c15565b61281b565b612756565b9050919050565b612c4881612c1e565b82525050565b5f602082019050612c615f830184612c3f565b92915050565b5f5ffd5b5f5ffd5b5f81519050612c7d816127c6565b92915050565b612c8c81612477565b8114612c96575f5ffd5b50565b5f81519050612ca781612c83565b92915050565b612cb681612756565b8114612cc0575f5ffd5b50565b5f81519050612cd181612cad565b92915050565b5f6101408284031215612ced57612cec612c67565b5b612cf8610140612605565b90505f612d0784828501612c6f565b5f830152506020612d1a84828501612c6f565b6020830152506040612d2e84828501612c6f565b6040830152506060612d4284828501612c99565b6060830152506080612d5684828501612cc3565b60808301525060a0612d6a84828501612cc3565b60a08301525060c0612d7e84828501612c99565b60c08301525060e0612d9284828501612cc3565b60e083015250610100612da784828501612c6f565b61010083015250610120612dbd84828501612c6f565b6101208301525092915050565b5f6101408284031215612de057612ddf612391565b5b5f612ded84828501612cd7565b91505092915050565b7f4e487b71000000000000000000000000000000000000000000000000000000005f52601160045260245ffd5b5f612e2d82612446565b9150612e3883612446565b9250828203905081811115612e5057612e4f612df6565b5b92915050565b612e5f81612725565b8114612e69575f5ffd5b50565b5f81519050612e7a81612e56565b92915050565b5f60208284031215612e9557612e94612391565b5b5f612ea284828501612e6c565b91505092915050565b5f81359050612eb981612e56565b92915050565b5f81359050612ecd81612cad565b92915050565b5f6fffffffffffffffffffffffffffffffff82169050919050565b612ef781612ed3565b8114612f01575f5ffd5b50565b5f81359050612f1281612eee565b92915050565b5f60e08284031215612f2d57612f2c612c67565b5b612f3760e0612605565b90505f612f4684828501612eab565b5f830152506020612f59848285016123df565b6020830152506040612f6d848285016123df565b6040830152506060612f81848285016123df565b6060830152506080612f9584828501612ebf565b60808301525060a0612fa984828501612f04565b60a08301525060c082013567ffffffffffffffff811115612fcd57612fcc612c6b565b5b612fd98482850161269e565b60c08301525092915050565b5f60408284031215612ffa57612ff9612c67565b5b6130046040612605565b90505f82013567ffffffffffffffff81111561302357613022612c6b565b5b61302f84828501612f18565b5f83015250602082013567ffffffffffffffff81111561305257613051612c6b565b5b61305e8482850161269e565b60208301525092915050565b5f5f604083850312156130805761307f612391565b5b5f83013567ffffffffffffffff81111561309d5761309c612395565b5b6130a985828601612fe5565b92505060206130ba858286016127dc565b9150509250929050565b5f602082840312156130d9576130d8612391565b5b5f6130e684828501612c6f565b91505092915050565b6130f881612725565b82525050565b613107816123b8565b82525050565b61311681612756565b82525050565b61312581612ed3565b82525050565b5f81519050919050565b5f82825260208201905092915050565b5f61314f8261312b565b6131598185613135565b93506131698185602086016128a9565b61317281612597565b840191505092915050565b5f60e083015f8301516131925f8601826130ef565b5060208301516131a560208601826130fe565b5060408301516131b860408601826130fe565b5060608301516131cb60608601826130fe565b5060808301516131de608086018261310d565b5060a08301516131f160a086018261311c565b5060c083015184820360c08601526132098282613145565b9150508091505092915050565b5f604083015f8301518482035f860152613230828261317d565b9150506020830151848203602086015261324a8282613145565b9150508091505092915050565b5f6060820190508181035f83015261326f8186613216565b905061327e602083018561244f565b61328b604083018461241e565b949350505050565b5f61329d8261312b565b6132a78185612b2b565b93506132b78185602086016128a9565b6132c081612597565b840191505092915050565b5f819050919050565b5f6132ee6132e96132e4846132cb565b61281b565b612446565b9050919050565b6132fe816132d4565b82525050565b5f6060820190506133175f830186612bed565b81810360208301526133298185613293565b905061333860408301846132f5565b949350505050565b5f6080820190508181035f8301526133588187613293565b9050613367602083018661244f565b613374604083018561244f565b613381606083018461244f565b95945050505050565b5f81905092915050565b5f61339e8261312b565b6133a8818561338a565b93506133b88185602086016128a9565b80840191505092915050565b5f6133cf8284613394565b915081905092915050565b5f6133f46133ef6133ea84612477565b61281b565b612446565b9050919050565b613404816133da565b82525050565b5f60408201905061341d5f8301856133fb565b61342a60208301846133fb565b9392505050565b5f61344b61344661344184612756565b61281b565b612446565b9050919050565b61345b81613431565b82525050565b5f6040820190506134745f830185613452565b6134816020830184613452565b939250505056fea26469706673582212207f322cdcaa7185952e591965508b170e23b1cdeba36565d2eec3b51d892ed51c64736f6c634300081b0033","linkReferences":{}},"methodIdentifiers":{"BURN_TAX_PPM()":"1e79abd2","GRAPH_TALLY_COLLECTOR()":"9309d70e","UPGRADE_INTERFACE_VERSION()":"ad3cb1cc","acceptProvisionPendingParameters(address,bytes)":"ce0fc0cc","collect(address,uint8,bytes)":"b15d2a2c","getDelegationRatio()":"1ebb7c30","getProvisionTokensRange()":"819ba366","getThawingPeriodRange()":"71ce020a","getVerifierCutRange()":"482468b7","initialize(address,uint256)":"cd6dc687","isRegistered(address)":"c3c5a547","owner()":"8da5cb5b","paymentsDestination(address)":"07e736d8","proxiableUUID()":"52d1902d","register(address,bytes)":"24b8fbf6","renounceOwnership()":"715018a6","setPaymentsDestination(address)":"6ccec5b8","setProvisionTokensRange(uint256)":"8d84925d","slash(address,bytes)":"cb8347fe","startService(address,bytes)":"dedf6726","stopService(address,bytes)":"8180083b","transferOwnership(address)":"f2fde38b","upgradeToAndCall(address,bytes)":"4f1ef286"},"id":44}