{"abi":[{"type":"constructor","inputs":[{"name":"controller","type":"address","internalType":"address"},{"name":"graphTallyCollector","type":"address","internalType":"address"}],"stateMutability":"nonpayable"},{"type":"function","name":"GRAPH_TALLY_COLLECTOR","inputs":[],"outputs":[{"name":"","type":"address","internalType":"contract IGraphTallyCollector"}],"stateMutability":"view"},{"type":"function","name":"UPGRADE_INTERFACE_VERSION","inputs":[],"outputs":[{"name":"","type":"string","internalType":"string"}],"stateMutability":"view"},{"type":"function","name":"acceptProvisionPendingParameters","inputs":[{"name":"indexer","type":"address","internalType":"address"},{"name":"","type":"bytes","internalType":"bytes"}],"outputs":[],"stateMutability":"nonpayable"},{"type":"function","name":"collect","inputs":[{"name":"indexer","type":"address","internalType":"address"},{"name":"paymentType","type":"uint8","internalType":"enum IGraphPayments.PaymentTypes"},{"name":"data","type":"bytes","internalType":"bytes"}],"outputs":[{"name":"","type":"uint256","internalType":"uint256"}],"stateMutability":"nonpayable"},{"type":"function","name":"getDelegationRatio","inputs":[],"outputs":[{"name":"","type":"uint32","internalType":"uint32"}],"stateMutability":"view"},{"type":"function","name":"getProvisionTokensRange","inputs":[],"outputs":[{"name":"","type":"uint256","internalType":"uint256"},{"name":"","type":"uint256","internalType":"uint256"}],"stateMutability":"view"},{"type":"function","name":"getThawingPeriodRange","inputs":[],"outputs":[{"name":"","type":"uint64","internalType":"uint64"},{"name":"","type":"uint64","internalType":"uint64"}],"stateMutability":"view"},{"type":"function","name":"getVerifierCutRange","inputs":[],"outputs":[{"name":"","type":"uint32","internalType":"uint32"},{"name":"","type":"uint32","internalType":"uint32"}],"stateMutability":"view"},{"type":"function","name":"initialize","inputs":[{"name":"initialOwner","type":"address","internalType":"address"},{"name":"minimumProvisionTokens","type":"uint256","internalType":"uint256"}],"outputs":[],"stateMutability":"nonpayable"},{"type":"function","name":"isRegistered","inputs":[{"name":"","type":"address","internalType":"address"}],"outputs":[{"name":"","type":"bool","internalType":"bool"}],"stateMutability":"view"},{"type":"function","name":"owner","inputs":[],"outputs":[{"name":"","type":"address","internalType":"address"}],"stateMutability":"view"},{"type":"function","name":"paymentsDestination","inputs":[{"name":"","type":"address","internalType":"address"}],"outputs":[{"name":"","type":"address","internalType":"address"}],"stateMutability":"view"},{"type":"function","name":"proxiableUUID","inputs":[],"outputs":[{"name":"","type":"bytes32","internalType":"bytes32"}],"stateMutability":"view"},{"type":"function","name":"register","inputs":[{"name":"indexer","type":"address","internalType":"address"},{"name":"data","type":"bytes","internalType":"bytes"}],"outputs":[],"stateMutability":"nonpayable"},{"type":"function","name":"renounceOwnership","inputs":[],"outputs":[],"stateMutability":"nonpayable"},{"type":"function","name":"setPaymentsDestination","inputs":[{"name":"paymentsDestination_","type":"address","internalType":"address"}],"outputs":[],"stateMutability":"nonpayable"},{"type":"function","name":"setProvisionTokensRange","inputs":[{"name":"minimumProvisionTokens","type":"uint256","internalType":"uint256"}],"outputs":[],"stateMutability":"nonpayable"},{"type":"function","name":"slash","inputs":[{"name":"","type":"address","internalType":"address"},{"name":"","type":"bytes","internalType":"bytes"}],"outputs":[],"stateMutability":"pure"},{"type":"function","name":"startService","inputs":[{"name":"","type":"address","internalType":"address"},{"name":"","type":"bytes","internalType":"bytes"}],"outputs":[],"stateMutability":"pure"},{"type":"function","name":"stopService","inputs":[{"name":"","type":"address","internalType":"address"},{"name":"","type":"bytes","internalType":"bytes"}],"outputs":[],"stateMutability":"pure"},{"type":"function","name":"transferOwnership","inputs":[{"name":"newOwner","type":"address","internalType":"address"}],"outputs":[],"stateMutability":"nonpayable"},{"type":"function","name":"upgradeToAndCall","inputs":[{"name":"newImplementation","type":"address","internalType":"address"},{"name":"data","type":"bytes","internalType":"bytes"}],"outputs":[],"stateMutability":"payable"},{"type":"event","name":"DelegationRatioSet","inputs":[{"name":"ratio","type":"uint32","indexed":false,"internalType":"uint32"}],"anonymous":false},{"type":"event","name":"GraphDirectoryInitialized","inputs":[{"name":"graphToken","type":"address","indexed":true,"internalType":"address"},{"name":"graphStaking","type":"address","indexed":true,"internalType":"address"},{"name":"graphPayments","type":"address","indexed":false,"internalType":"address"},{"name":"graphEscrow","type":"address","indexed":false,"internalType":"address"},{"name":"graphController","type":"address","indexed":true,"internalType":"address"},{"name":"graphEpochManager","type":"address","indexed":false,"internalType":"address"},{"name":"graphRewardsManager","type":"address","indexed":false,"internalType":"address"},{"name":"graphTokenGateway","type":"address","indexed":false,"internalType":"address"},{"name":"graphProxyAdmin","type":"address","indexed":false,"internalType":"address"},{"name":"graphCuration","type":"address","indexed":false,"internalType":"address"}],"anonymous":false},{"type":"event","name":"Initialized","inputs":[{"name":"version","type":"uint64","indexed":false,"internalType":"uint64"}],"anonymous":false},{"type":"event","name":"OwnershipTransferred","inputs":[{"name":"previousOwner","type":"address","indexed":true,"internalType":"address"},{"name":"newOwner","type":"address","indexed":true,"internalType":"address"}],"anonymous":false},{"type":"event","name":"PaymentsDestinationSet","inputs":[{"name":"indexer","type":"address","indexed":true,"internalType":"address"},{"name":"destination","type":"address","indexed":true,"internalType":"address"}],"anonymous":false},{"type":"event","name":"ProvisionPendingParametersAccepted","inputs":[{"name":"serviceProvider","type":"address","indexed":true,"internalType":"address"}],"anonymous":false},{"type":"event","name":"ProvisionTokensRangeSet","inputs":[{"name":"min","type":"uint256","indexed":false,"internalType":"uint256"},{"name":"max","type":"uint256","indexed":false,"internalType":"uint256"}],"anonymous":false},{"type":"event","name":"ServicePaymentCollected","inputs":[{"name":"serviceProvider","type":"address","indexed":true,"internalType":"address"},{"name":"feeType","type":"uint8","indexed":true,"internalType":"enum IGraphPayments.PaymentTypes"},{"name":"tokens","type":"uint256","indexed":false,"internalType":"uint256"}],"anonymous":false},{"type":"event","name":"ServiceProviderRegistered","inputs":[{"name":"serviceProvider","type":"address","indexed":true,"internalType":"address"},{"name":"data","type":"bytes","indexed":false,"internalType":"bytes"}],"anonymous":false},{"type":"event","name":"ServiceProviderSlashed","inputs":[{"name":"serviceProvider","type":"address","indexed":true,"internalType":"address"},{"name":"tokens","type":"uint256","indexed":false,"internalType":"uint256"}],"anonymous":false},{"type":"event","name":"ServiceStarted","inputs":[{"name":"serviceProvider","type":"address","indexed":true,"internalType":"address"},{"name":"data","type":"bytes","indexed":false,"internalType":"bytes"}],"anonymous":false},{"type":"event","name":"ServiceStopped","inputs":[{"name":"serviceProvider","type":"address","indexed":true,"internalType":"address"},{"name":"data","type":"bytes","indexed":false,"internalType":"bytes"}],"anonymous":false},{"type":"event","name":"ThawingPeriodRangeSet","inputs":[{"name":"min","type":"uint64","indexed":false,"internalType":"uint64"},{"name":"max","type":"uint64","indexed":false,"internalType":"uint64"}],"anonymous":false},{"type":"event","name":"Upgraded","inputs":[{"name":"implementation","type":"address","indexed":true,"internalType":"address"}],"anonymous":false},{"type":"event","name":"VerifierCutRangeSet","inputs":[{"name":"min","type":"uint32","indexed":false,"internalType":"uint32"},{"name":"max","type":"uint32","indexed":false,"internalType":"uint32"}],"anonymous":false},{"type":"error","name":"AddressEmptyCode","inputs":[{"name":"target","type":"address","internalType":"address"}]},{"type":"error","name":"ERC1967InvalidImplementation","inputs":[{"name":"implementation","type":"address","internalType":"address"}]},{"type":"error","name":"ERC1967NonPayable","inputs":[]},{"type":"error","name":"FailedCall","inputs":[]},{"type":"error","name":"GraphDirectoryInvalidZeroAddress","inputs":[{"name":"contractName","type":"bytes","internalType":"bytes"}]},{"type":"error","name":"InvalidInitialization","inputs":[]},{"type":"error","name":"NotInitializing","inputs":[]},{"type":"error","name":"OwnableInvalidOwner","inputs":[{"name":"owner","type":"address","internalType":"address"}]},{"type":"error","name":"OwnableUnauthorizedAccount","inputs":[{"name":"account","type":"address","internalType":"address"}]},{"type":"error","name":"ProvisionManagerInvalidRange","inputs":[{"name":"min","type":"uint256","internalType":"uint256"},{"name":"max","type":"uint256","internalType":"uint256"}]},{"type":"error","name":"ProvisionManagerInvalidValue","inputs":[{"name":"message","type":"bytes","internalType":"bytes"},{"name":"value","type":"uint256","internalType":"uint256"},{"name":"min","type":"uint256","internalType":"uint256"},{"name":"max","type":"uint256","internalType":"uint256"}]},{"type":"error","name":"ProvisionManagerNotAuthorized","inputs":[{"name":"serviceProvider","type":"address","internalType":"address"},{"name":"caller","type":"address","internalType":"address"}]},{"type":"error","name":"ProvisionManagerProvisionNotFound","inputs":[{"name":"serviceProvider","type":"address","internalType":"address"}]},{"type":"error","name":"SubstreamsDataServiceIndexerMismatch","inputs":[{"name":"ravServiceProvider","type":"address","internalType":"address"},{"name":"indexer","type":"address","internalType":"address"}]},{"type":"error","name":"SubstreamsDataServiceIndexerNotRegistered","inputs":[{"name":"indexer","type":"address","internalType":"address"}]},{"type":"error","name":"SubstreamsDataServiceInvalidPaymentType","inputs":[{"name":"paymentType","type":"uint8","internalType":"enum IGraphPayments.PaymentTypes"}]},{"type":"error","name":"UUPSUnauthorizedCallContext","inputs":[]},{"type":"error","name":"UUPSUnsupportedProxiableUUID","inputs":[{"name":"slot","type":"bytes32","internalType":"bytes32"}]}],"bytecode":{"object":"0x6102006040523073ffffffffffffffffffffffffffffffffffffffff1660809073ffffffffffffffffffffffffffffffffffffffff16815250348015610043575f5ffd5b50604051613e0a380380613e0a833981810160405281019061006591906108b3565b81805f73ffffffffffffffffffffffffffffffffffffffff168173ffffffffffffffffffffffffffffffffffffffff16036100d5576040517f431eb5ba0000000000000000000000000000000000000000000000000000000081526004016100cc9061094b565b60405180910390fd5b8073ffffffffffffffffffffffffffffffffffffffff166101208173ffffffffffffffffffffffffffffffffffffffff168152505061014e6040518060400160405280600a81526020017f4772617068546f6b656e0000000000000000000000000000000000000000000081525061062e60201b60201c565b73ffffffffffffffffffffffffffffffffffffffff1660a08173ffffffffffffffffffffffffffffffffffffffff16815250506101c56040518060400160405280600781526020017f5374616b696e670000000000000000000000000000000000000000000000000081525061062e60201b60201c565b73ffffffffffffffffffffffffffffffffffffffff1660c08173ffffffffffffffffffffffffffffffffffffffff168152505061023c6040518060400160405280600d81526020017f47726170685061796d656e74730000000000000000000000000000000000000081525061062e60201b60201c565b73ffffffffffffffffffffffffffffffffffffffff1660e08173ffffffffffffffffffffffffffffffffffffffff16815250506102b36040518060400160405280600e81526020017f5061796d656e7473457363726f7700000000000000000000000000000000000081525061062e60201b60201c565b73ffffffffffffffffffffffffffffffffffffffff166101008173ffffffffffffffffffffffffffffffffffffffff168152505061032b6040518060400160405280600c81526020017f45706f63684d616e61676572000000000000000000000000000000000000000081525061062e60201b60201c565b73ffffffffffffffffffffffffffffffffffffffff166101408173ffffffffffffffffffffffffffffffffffffffff16815250506103a36040518060400160405280600e81526020017f526577617264734d616e6167657200000000000000000000000000000000000081525061062e60201b60201c565b73ffffffffffffffffffffffffffffffffffffffff166101608173ffffffffffffffffffffffffffffffffffffffff168152505061041b6040518060400160405280601181526020017f4772617068546f6b656e4761746577617900000000000000000000000000000081525061062e60201b60201c565b73ffffffffffffffffffffffffffffffffffffffff166101808173ffffffffffffffffffffffffffffffffffffffff16815250506104936040518060400160405280600f81526020017f477261706850726f787941646d696e000000000000000000000000000000000081525061062e60201b60201c565b73ffffffffffffffffffffffffffffffffffffffff166101a08173ffffffffffffffffffffffffffffffffffffffff168152505061050b6040518060400160405280600881526020017f4375726174696f6e00000000000000000000000000000000000000000000000081525061062e60201b60201c565b73ffffffffffffffffffffffffffffffffffffffff166101c08173ffffffffffffffffffffffffffffffffffffffff16815250506101205173ffffffffffffffffffffffffffffffffffffffff1660c05173ffffffffffffffffffffffffffffffffffffffff1660a05173ffffffffffffffffffffffffffffffffffffffff167fef5021414834d86e36470f5c1cecf6544fb2bb723f2ca51a4c86fcd8c5919a4360e051610100516101405161016051610180516101a0516101c0516040516105da9796959493929190610978565b60405180910390a450508073ffffffffffffffffffffffffffffffffffffffff166101e08173ffffffffffffffffffffffffffffffffffffffff168152505061062761073060201b60201c565b5050610afc565b5f5f6101205173ffffffffffffffffffffffffffffffffffffffff1663f7641a5e84805190602001206040518263ffffffff1660e01b815260040161067391906109fd565b602060405180830381865afa15801561068e573d5f5f3e3d5ffd5b505050506040513d601f19601f820116820180604052508101906106b29190610a16565b90505f73ffffffffffffffffffffffffffffffffffffffff168173ffffffffffffffffffffffffffffffffffffffff1614158390610726576040517f431eb5ba00000000000000000000000000000000000000000000000000000000815260040161071d9190610aa1565b60405180910390fd5b5080915050919050565b5f61073f61082e60201b60201c565b9050805f0160089054906101000a900460ff1615610789576040517ff92ee8a900000000000000000000000000000000000000000000000000000000815260040160405180910390fd5b67ffffffffffffffff8016815f015f9054906101000a900467ffffffffffffffff1667ffffffffffffffff161461082b5767ffffffffffffffff815f015f6101000a81548167ffffffffffffffff021916908367ffffffffffffffff1602179055507fc7f505b2f371ae2175ee4913f4499e1f2633a7b5936321eed1cdaeb6115181d267ffffffffffffffff6040516108229190610ae3565b60405180910390a15b50565b5f7ff0c57e16840df040f15088dc2f81fe391c3923bec73e23a9662efc9c229c6a00905090565b5f5ffd5b5f73ffffffffffffffffffffffffffffffffffffffff82169050919050565b5f61088282610859565b9050919050565b61089281610878565b811461089c575f5ffd5b50565b5f815190506108ad81610889565b92915050565b5f5f604083850312156108c9576108c8610855565b5b5f6108d68582860161089f565b92505060206108e78582860161089f565b9150509250929050565b5f82825260208201905092915050565b7f436f6e74726f6c6c6572000000000000000000000000000000000000000000005f82015250565b5f610935600a836108f1565b915061094082610901565b602082019050919050565b5f6020820190508181035f83015261096281610929565b9050919050565b61097281610878565b82525050565b5f60e08201905061098b5f83018a610969565b6109986020830189610969565b6109a56040830188610969565b6109b26060830187610969565b6109bf6080830186610969565b6109cc60a0830185610969565b6109d960c0830184610969565b98975050505050505050565b5f819050919050565b6109f7816109e5565b82525050565b5f602082019050610a105f8301846109ee565b92915050565b5f60208284031215610a2b57610a2a610855565b5b5f610a388482850161089f565b91505092915050565b5f81519050919050565b8281835e5f83830152505050565b5f601f19601f8301169050919050565b5f610a7382610a41565b610a7d81856108f1565b9350610a8d818560208601610a4b565b610a9681610a59565b840191505092915050565b5f6020820190508181035f830152610ab98184610a69565b905092915050565b5f67ffffffffffffffff82169050919050565b610add81610ac1565b82525050565b5f602082019050610af65f830184610ad4565b92915050565b60805160a05160c05160e05161010051610120516101405161016051610180516101a0516101c0516101e051613291610b795f395f81816107e3015261174c01525f50505f50505f50505f50505f50505f50505f50505f50505f610e4701525f50505f81816111c10152818161121601526113d001526132915ff3fe608060405260043610610134575f3560e01c80638d84925d116100aa578063c3c5a5471161006e578063c3c5a547146103d5578063cb8347fe14610411578063cd6dc68714610439578063ce0fc0cc14610461578063dedf672614610489578063f2fde38b146104b157610134565b80638d84925d146102f35780638da5cb5b1461031b5780639309d70e14610345578063ad3cb1cc1461036f578063b15d2a2c1461039957610134565b806352d1902d116100fc57806352d1902d1461020d5780636ccec5b814610237578063715018a61461025f57806371ce020a146102755780638180083b146102a0578063819ba366146102c857610134565b806307e736d8146101385780631ebb7c301461017457806324b8fbf61461019e578063482468b7146101c65780634f1ef286146101f1575b5f5ffd5b348015610143575f5ffd5b5061015e600480360381019061015991906121c6565b6104d9565b60405161016b9190612200565b60405180910390f35b34801561017f575f5ffd5b50610188610509565b6040516101959190612237565b60405180910390f35b3480156101a9575f5ffd5b506101c460048036038101906101bf91906122b1565b610517565b005b3480156101d1575f5ffd5b506101da6106cc565b6040516101e892919061230e565b60405180910390f35b61020b6004803603810190610206919061246d565b6106de565b005b348015610218575f5ffd5b506102216106fd565b60405161022e91906124df565b60405180910390f35b348015610242575f5ffd5b5061025d600480360381019061025891906121c6565b61072e565b005b34801561026a575f5ffd5b5061027361073b565b005b348015610280575f5ffd5b5061028961074e565b60405161029792919061251a565b60405180910390f35b3480156102ab575f5ffd5b506102c660048036038101906102c191906122b1565b610760565b005b3480156102d3575f5ffd5b506102dc610765565b6040516102ea929190612559565b60405180910390f35b3480156102fe575f5ffd5b50610319600480360381019061031491906125aa565b610777565b005b348015610326575f5ffd5b5061032f6107ac565b60405161033c9190612200565b60405180910390f35b348015610350575f5ffd5b506103596107e1565b6040516103669190612630565b60405180910390f35b34801561037a575f5ffd5b50610383610805565b60405161039091906126a9565b60405180910390f35b3480156103a4575f5ffd5b506103bf60048036038101906103ba91906126ec565b61083e565b6040516103cc919061275d565b60405180910390f35b3480156103e0575f5ffd5b506103fb60048036038101906103f691906121c6565b610aa7565b6040516104089190612790565b60405180910390f35b34801561041c575f5ffd5b50610437600480360381019061043291906122b1565b610ac4565b005b348015610444575f5ffd5b5061045f600480360381019061045a91906127a9565b610ac9565b005b34801561046c575f5ffd5b50610487600480360381019061048291906122b1565b610c85565b005b348015610494575f5ffd5b506104af60048036038101906104aa91906122b1565b610da2565b005b3480156104bc575f5ffd5b506104d760048036038101906104d291906121c6565b610da7565b005b6068602052805f5260405f205f915054906101000a900473ffffffffffffffffffffffffffffffffffffffff1681565b5f610512610e2b565b905090565b82610520610e44565b73ffffffffffffffffffffffffffffffffffffffff16637c145cc78230336040518463ffffffff1660e01b815260040161055c939291906127e7565b602060405180830381865afa158015610577573d5f5f3e3d5ffd5b505050506040513d601f19601f8201168201806040525081019061059b9190612846565b813390916105e0576040517fcc5d3c8b0000000000000000000000000000000000000000000000000000000081526004016105d7929190612871565b60405180910390fd5b5050835f6105ed82610e6b565b90506105f881610f56565b610602815f610faf565b5f858581019061061291906128d3565b9050600160675f8973ffffffffffffffffffffffffffffffffffffffff1673ffffffffffffffffffffffffffffffffffffffff1681526020019081526020015f205f6101000a81548160ff02191690831515021790555061067387826110b7565b8673ffffffffffffffffffffffffffffffffffffffff167f159567bea25499a91f60e1fbb349ff2a1f8c1b2883198f25c1e12c99eddb44fa87876040516106bb92919061293a565b60405180910390a250505050505050565b5f5f6106d661118f565b915091509091565b6106e66111bf565b6106ef826112a5565b6106f982826112b0565b5050565b5f6107066113ce565b7f360894a13ba1a3210667c828492db98dca3e2076cc3735a920a3ca505d382bbc5f1b905090565b61073833826110b7565b50565b610743611455565b61074c5f6114dc565b565b5f5f6107586115ad565b915091509091565b505050565b5f5f61076f6115e4565b915091509091565b61077f611455565b6107a9817fffffffffffffffffffffffffffffffffffffffffffffffffffffffffffffffff6115f3565b50565b5f5f6107b6611688565b9050805f015f9054906101000a900473ffffffffffffffffffffffffffffffffffffffff1691505090565b7f000000000000000000000000000000000000000000000000000000000000000081565b6040518060400160405280600581526020017f352e302e3000000000000000000000000000000000000000000000000000000081525081565b5f84610848610e44565b73ffffffffffffffffffffffffffffffffffffffff16637c145cc78230336040518463ffffffff1660e01b8152600401610884939291906127e7565b602060405180830381865afa15801561089f573d5f5f3e3d5ffd5b505050506040513d601f19601f820116820180604052508101906108c39190612846565b81339091610908576040517fcc5d3c8b0000000000000000000000000000000000000000000000000000000081526004016108ff929190612871565b60405180910390fd5b5050855f61091582610e6b565b905061092081610f56565b61092a815f610faf565b8760675f8273ffffffffffffffffffffffffffffffffffffffff1673ffffffffffffffffffffffffffffffffffffffff1681526020019081526020015f205f9054906101000a900460ff1681906109b7576040517fd687f5280000000000000000000000000000000000000000000000000000000081526004016109ae9190612200565b60405180910390fd5b505f5f90505f60028111156109cf576109ce61295c565b5b8960028111156109e2576109e161295c565b5b036109f9576109f28a89896116af565b9050610a36565b886040517f94341e9d000000000000000000000000000000000000000000000000000000008152600401610a2d91906129cf565b60405180910390fd5b886002811115610a4957610a4861295c565b5b8a73ffffffffffffffffffffffffffffffffffffffff167f54fe682bfb66381a9382e13e4b95a3dd4f960eafbae063fdea3539d144ff3ff583604051610a8f919061275d565b60405180910390a38095505050505050949350505050565b6067602052805f5260405f205f915054906101000a900460ff1681565b505050565b5f610ad2611875565b90505f815f0160089054906101000a900460ff161590505f825f015f9054906101000a900467ffffffffffffffff1690505f5f8267ffffffffffffffff16148015610b1a5750825b90505f60018367ffffffffffffffff16148015610b4d57505f3073ffffffffffffffffffffffffffffffffffffffff163b145b905081158015610b5b575080155b15610b92576040517ff92ee8a900000000000000000000000000000000000000000000000000000000815260040160405180910390fd5b6001855f015f6101000a81548167ffffffffffffffff021916908367ffffffffffffffff1602179055508315610bdf576001855f0160086101000a81548160ff0219169083151502179055505b610be88761189c565b610bf06118b0565b610bf86118ba565b610c22867fffffffffffffffffffffffffffffffffffffffffffffffffffffffffffffffff6115f3565b8315610c7c575f855f0160086101000a81548160ff0219169083151502179055507fc7f505b2f371ae2175ee4913f4499e1f2633a7b5936321eed1cdaeb6115181d26001604051610c739190612a21565b60405180910390a15b50505050505050565b82610c8e610e44565b73ffffffffffffffffffffffffffffffffffffffff16637c145cc78230336040518463ffffffff1660e01b8152600401610cca939291906127e7565b602060405180830381865afa158015610ce5573d5f5f3e3d5ffd5b505050506040513d601f19601f82011682018060405250810190610d099190612846565b81339091610d4e576040517fcc5d3c8b000000000000000000000000000000000000000000000000000000008152600401610d45929190612871565b60405180910390fd5b5050610d59846118d4565b8373ffffffffffffffffffffffffffffffffffffffff167ff53cf6521a1b5fc0c04bffa70374a4dc2e3474f2b2ac1643c3bcc54e2db4a93960405160405180910390a250505050565b505050565b610daf611455565b5f73ffffffffffffffffffffffffffffffffffffffff168173ffffffffffffffffffffffffffffffffffffffff1603610e1f575f6040517f1e4fbdf7000000000000000000000000000000000000000000000000000000008152600401610e169190612200565b60405180910390fd5b610e28816114dc565b50565b5f600260189054906101000a900463ffffffff16905090565b5f7f0000000000000000000000000000000000000000000000000000000000000000905090565b610e736120e8565b5f610e7c610e44565b73ffffffffffffffffffffffffffffffffffffffff166325d9897e84306040518363ffffffff1660e01b8152600401610eb6929190612871565b61014060405180830381865afa158015610ed2573d5f5f3e3d5ffd5b505050506040513d601f19601f82011682018060405250810190610ef69190612b9d565b90505f8160a0015167ffffffffffffffff1614158390610f4c576040517f7b3c09bf000000000000000000000000000000000000000000000000000000008152600401610f439190612200565b60405180910390fd5b5080915050919050565b610fac8160200151825f0151610f6c9190612bf6565b5f546001546040518060400160405280600681526020017f746f6b656e73000000000000000000000000000000000000000000000000000081525061194f565b50565b5f5f610fb96115ad565b915091505f83610fcd578460800151610fd3565b8460e001515b90506110348167ffffffffffffffff168467ffffffffffffffff168467ffffffffffffffff166040518060400160405280600d81526020017f74686177696e67506572696f640000000000000000000000000000000000000081525061194f565b5f5f61103e61118f565b915091505f86611052578760600151611058565b8760c001515b90506110ad8163ffffffff168463ffffffff168463ffffffff166040518060400160405280600e81526020017f6d6178566572696669657243757400000000000000000000000000000000000081525061194f565b5050505050505050565b8060685f8473ffffffffffffffffffffffffffffffffffffffff1673ffffffffffffffffffffffffffffffffffffffff1681526020019081526020015f205f6101000a81548173ffffffffffffffffffffffffffffffffffffffff021916908373ffffffffffffffffffffffffffffffffffffffff1602179055508073ffffffffffffffffffffffffffffffffffffffff168273ffffffffffffffffffffffffffffffffffffffff167e3215dc05a2fc4e6a1e2c2776311d207c730ee51085aae221acc5cbe6fb55c160405160405180910390a35050565b5f5f600260109054906101000a900463ffffffff16600260149054906101000a900463ffffffff16915091509091565b7f000000000000000000000000000000000000000000000000000000000000000073ffffffffffffffffffffffffffffffffffffffff163073ffffffffffffffffffffffffffffffffffffffff16148061126c57507f000000000000000000000000000000000000000000000000000000000000000073ffffffffffffffffffffffffffffffffffffffff166112536119b9565b73ffffffffffffffffffffffffffffffffffffffff1614155b156112a3576040517fe07c8dba00000000000000000000000000000000000000000000000000000000815260040160405180910390fd5b565b6112ad611455565b50565b8173ffffffffffffffffffffffffffffffffffffffff166352d1902d6040518163ffffffff1660e01b8152600401602060405180830381865afa92505050801561131857506040513d601f19601f820116820180604052508101906113159190612c53565b60015b61135957816040517f4c9c8ce30000000000000000000000000000000000000000000000000000000081526004016113509190612200565b60405180910390fd5b7f360894a13ba1a3210667c828492db98dca3e2076cc3735a920a3ca505d382bbc5f1b81146113bf57806040517faa1d49a40000000000000000000000000000000000000000000000000000000081526004016113b691906124df565b60405180910390fd5b6113c98383611a0c565b505050565b7f000000000000000000000000000000000000000000000000000000000000000073ffffffffffffffffffffffffffffffffffffffff163073ffffffffffffffffffffffffffffffffffffffff1614611453576040517fe07c8dba00000000000000000000000000000000000000000000000000000000815260040160405180910390fd5b565b61145d611a7e565b73ffffffffffffffffffffffffffffffffffffffff1661147b6107ac565b73ffffffffffffffffffffffffffffffffffffffff16146114da5761149e611a7e565b6040517f118cdaa70000000000000000000000000000000000000000000000000000000081526004016114d19190612200565b60405180910390fd5b565b5f6114e5611688565b90505f815f015f9054906101000a900473ffffffffffffffffffffffffffffffffffffffff16905082825f015f6101000a81548173ffffffffffffffffffffffffffffffffffffffff021916908373ffffffffffffffffffffffffffffffffffffffff1602179055508273ffffffffffffffffffffffffffffffffffffffff168173ffffffffffffffffffffffffffffffffffffffff167f8be0079c531659141344cd1fd0a4f28419497f9722a3daafe3b4186f6b6457e060405160405180910390a3505050565b5f5f60025f9054906101000a900467ffffffffffffffff16600260089054906101000a900467ffffffffffffffff16915091509091565b5f5f5f54600154915091509091565b808211158282909161163c576040517fccccdafb000000000000000000000000000000000000000000000000000000008152600401611633929190612559565b60405180910390fd5b5050815f81905550806001819055507f90699b8b4bf48918fea1129c85f9bc7b51285df7ecc982910813c7805f568849828260405161167c929190612559565b60405180910390a15050565b5f7f9016d09d72d40fdae2fd8ceac6b6234c7706214fd39c1cd1e609a0528c199300905090565b5f5f5f84848101906116c19190612e3d565b915091508573ffffffffffffffffffffffffffffffffffffffff16825f01516040015173ffffffffffffffffffffffffffffffffffffffff1614825f015160400151879091611747576040517f920958e800000000000000000000000000000000000000000000000000000000815260040161173e929190612871565b60405180910390fd5b50505f7f000000000000000000000000000000000000000000000000000000000000000073ffffffffffffffffffffffffffffffffffffffff1663692209ce5f858560685f8d73ffffffffffffffffffffffffffffffffffffffff1673ffffffffffffffffffffffffffffffffffffffff1681526020019081526020015f205f9054906101000a900473ffffffffffffffffffffffffffffffffffffffff166040516020016117f893929190612fff565b6040516020818303038152906040525f6040518463ffffffff1660e01b8152600401611826939291906130ac565b6020604051808303815f875af1158015611842573d5f5f3e3d5ffd5b505050506040513d601f19601f8201168201806040525081019061186691906130e8565b90508093505050509392505050565b5f7ff0c57e16840df040f15088dc2f81fe391c3923bec73e23a9662efc9c229c6a00905090565b6118a4611a85565b6118ad81611ac5565b50565b6118b8611a85565b565b6118c2611a85565b6118ca611b49565b6118d2611ba9565b565b6118df816001611bb3565b6118e7610e44565b73ffffffffffffffffffffffffffffffffffffffff16633a78b732826040518263ffffffff1660e01b815260040161191f9190612200565b5f604051808303815f87803b158015611936575f5ffd5b505af1158015611948573d5f5f3e3d5ffd5b5050505050565b611964838386611bce9092919063ffffffff16565b81858585909192936119af576040517f0871e13d0000000000000000000000000000000000000000000000000000000081526004016119a69493929190613113565b60405180910390fd5b5050505050505050565b5f6119e57f360894a13ba1a3210667c828492db98dca3e2076cc3735a920a3ca505d382bbc5f1b611be8565b5f015f9054906101000a900473ffffffffffffffffffffffffffffffffffffffff16905090565b611a1582611bf1565b8173ffffffffffffffffffffffffffffffffffffffff167fbc7cd75a20ee27fd9adebab32041f755214dbc6bffa90cc0225b39da2e5c2d3b60405160405180910390a25f81511115611a7157611a6b8282611cba565b50611a7a565b611a79611d3a565b5b5050565b5f33905090565b611a8d611d76565b611ac3576040517fd7e6bcf800000000000000000000000000000000000000000000000000000000815260040160405180910390fd5b565b611acd611a85565b5f73ffffffffffffffffffffffffffffffffffffffff168173ffffffffffffffffffffffffffffffffffffffff1603611b3d575f6040517f1e4fbdf7000000000000000000000000000000000000000000000000000000008152600401611b349190612200565b60405180910390fd5b611b46816114dc565b50565b611b51611a85565b611b7b5f7fffffffffffffffffffffffffffffffffffffffffffffffffffffffffffffffff6115f3565b611b885f620f4240611d94565b611b9a5f67ffffffffffffffff611ec0565b611ba763ffffffff611fad565b565b611bb1611a85565b565b5f611bbd83610e6b565b9050611bc98183610faf565b505050565b5f828410158015611bdf5750818411155b90509392505050565b5f819050919050565b5f8173ffffffffffffffffffffffffffffffffffffffff163b03611c4c57806040517f4c9c8ce3000000000000000000000000000000000000000000000000000000008152600401611c439190612200565b60405180910390fd5b80611c787f360894a13ba1a3210667c828492db98dca3e2076cc3735a920a3ca505d382bbc5f1b611be8565b5f015f6101000a81548173ffffffffffffffffffffffffffffffffffffffff021916908373ffffffffffffffffffffffffffffffffffffffff16021790555050565b60605f5f8473ffffffffffffffffffffffffffffffffffffffff1684604051611ce39190613197565b5f60405180830381855af49150503d805f8114611d1b576040519150601f19603f3d011682016040523d82523d5f602084013e611d20565b606091505b5091509150611d30858383612008565b9250505092915050565b5f341115611d74576040517fb398979f00000000000000000000000000000000000000000000000000000000815260040160405180910390fd5b565b5f611d7f611875565b5f0160089054906101000a900460ff16905090565b8063ffffffff168263ffffffff16111582829091611de9576040517fccccdafb000000000000000000000000000000000000000000000000000000008152600401611de09291906131dd565b60405180910390fd5b5050611dfa8163ffffffff16612095565b82829091611e3f576040517fccccdafb000000000000000000000000000000000000000000000000000000008152600401611e369291906131dd565b60405180910390fd5b505081600260106101000a81548163ffffffff021916908363ffffffff16021790555080600260146101000a81548163ffffffff021916908363ffffffff1602179055507f2fe5a7039987697813605cc0b9d6db7aab575408e3fc59e8a457bef8d7bc0a368282604051611eb492919061230e565b60405180910390a15050565b8067ffffffffffffffff168267ffffffffffffffff16111582829091611f1d576040517fccccdafb000000000000000000000000000000000000000000000000000000008152600401611f14929190613234565b60405180910390fd5b50508160025f6101000a81548167ffffffffffffffff021916908367ffffffffffffffff16021790555080600260086101000a81548167ffffffffffffffff021916908367ffffffffffffffff1602179055507f2867e04c500e438761486b78021d4f9eb97c77ff45d10c1183f5583ba4cbf7d18282604051611fa192919061251a565b60405180910390a15050565b80600260186101000a81548163ffffffff021916908363ffffffff1602179055507f472aba493f9fd1d136ec54986f619f3aa5caff964f0e731a9909fb9a1270211f81604051611ffd9190612237565b60405180910390a150565b60608261201d57612018826120a4565b61208d565b5f825114801561204357505f8473ffffffffffffffffffffffffffffffffffffffff163b145b1561208557836040517f9996b31500000000000000000000000000000000000000000000000000000000815260040161207c9190612200565b60405180910390fd5b81905061208e565b5b9392505050565b5f620f42408211159050919050565b5f815111156120b65780518082602001fd5b6040517fd6bda27500000000000000000000000000000000000000000000000000000000815260040160405180910390fd5b6040518061014001604052805f81526020015f81526020015f81526020015f63ffffffff1681526020015f67ffffffffffffffff1681526020015f67ffffffffffffffff1681526020015f63ffffffff1681526020015f67ffffffffffffffff1681526020015f81526020015f81525090565b5f604051905090565b5f5ffd5b5f5ffd5b5f73ffffffffffffffffffffffffffffffffffffffff82169050919050565b5f6121958261216c565b9050919050565b6121a58161218b565b81146121af575f5ffd5b50565b5f813590506121c08161219c565b92915050565b5f602082840312156121db576121da612164565b5b5f6121e8848285016121b2565b91505092915050565b6121fa8161218b565b82525050565b5f6020820190506122135f8301846121f1565b92915050565b5f63ffffffff82169050919050565b61223181612219565b82525050565b5f60208201905061224a5f830184612228565b92915050565b5f5ffd5b5f5ffd5b5f5ffd5b5f5f83601f84011261227157612270612250565b5b8235905067ffffffffffffffff81111561228e5761228d612254565b5b6020830191508360018202830111156122aa576122a9612258565b5b9250929050565b5f5f5f604084860312156122c8576122c7612164565b5b5f6122d5868287016121b2565b935050602084013567ffffffffffffffff8111156122f6576122f5612168565b5b6123028682870161225c565b92509250509250925092565b5f6040820190506123215f830185612228565b61232e6020830184612228565b9392505050565b5f5ffd5b5f601f19601f8301169050919050565b7f4e487b71000000000000000000000000000000000000000000000000000000005f52604160045260245ffd5b61237f82612339565b810181811067ffffffffffffffff8211171561239e5761239d612349565b5b80604052505050565b5f6123b061215b565b90506123bc8282612376565b919050565b5f67ffffffffffffffff8211156123db576123da612349565b5b6123e482612339565b9050602081019050919050565b828183375f83830152505050565b5f61241161240c846123c1565b6123a7565b90508281526020810184848401111561242d5761242c612335565b5b6124388482856123f1565b509392505050565b5f82601f83011261245457612453612250565b5b81356124648482602086016123ff565b91505092915050565b5f5f6040838503121561248357612482612164565b5b5f612490858286016121b2565b925050602083013567ffffffffffffffff8111156124b1576124b0612168565b5b6124bd85828601612440565b9150509250929050565b5f819050919050565b6124d9816124c7565b82525050565b5f6020820190506124f25f8301846124d0565b92915050565b5f67ffffffffffffffff82169050919050565b612514816124f8565b82525050565b5f60408201905061252d5f83018561250b565b61253a602083018461250b565b9392505050565b5f819050919050565b61255381612541565b82525050565b5f60408201905061256c5f83018561254a565b612579602083018461254a565b9392505050565b61258981612541565b8114612593575f5ffd5b50565b5f813590506125a481612580565b92915050565b5f602082840312156125bf576125be612164565b5b5f6125cc84828501612596565b91505092915050565b5f819050919050565b5f6125f86125f36125ee8461216c565b6125d5565b61216c565b9050919050565b5f612609826125de565b9050919050565b5f61261a826125ff565b9050919050565b61262a81612610565b82525050565b5f6020820190506126435f830184612621565b92915050565b5f81519050919050565b5f82825260208201905092915050565b8281835e5f83830152505050565b5f61267b82612649565b6126858185612653565b9350612695818560208601612663565b61269e81612339565b840191505092915050565b5f6020820190508181035f8301526126c18184612671565b905092915050565b600381106126d5575f5ffd5b50565b5f813590506126e6816126c9565b92915050565b5f5f5f5f6060858703121561270457612703612164565b5b5f612711878288016121b2565b9450506020612722878288016126d8565b935050604085013567ffffffffffffffff81111561274357612742612168565b5b61274f8782880161225c565b925092505092959194509250565b5f6020820190506127705f83018461254a565b92915050565b5f8115159050919050565b61278a81612776565b82525050565b5f6020820190506127a35f830184612781565b92915050565b5f5f604083850312156127bf576127be612164565b5b5f6127cc858286016121b2565b92505060206127dd85828601612596565b9150509250929050565b5f6060820190506127fa5f8301866121f1565b61280760208301856121f1565b61281460408301846121f1565b949350505050565b61282581612776565b811461282f575f5ffd5b50565b5f815190506128408161281c565b92915050565b5f6020828403121561285b5761285a612164565b5b5f61286884828501612832565b91505092915050565b5f6040820190506128845f8301856121f1565b61289160208301846121f1565b9392505050565b5f6128a28261216c565b9050919050565b6128b281612898565b81146128bc575f5ffd5b50565b5f813590506128cd816128a9565b92915050565b5f602082840312156128e8576128e7612164565b5b5f6128f5848285016128bf565b91505092915050565b5f82825260208201905092915050565b5f61291983856128fe565b93506129268385846123f1565b61292f83612339565b840190509392505050565b5f6020820190508181035f83015261295381848661290e565b90509392505050565b7f4e487b71000000000000000000000000000000000000000000000000000000005f52602160045260245ffd5b6003811061299a5761299961295c565b5b50565b5f8190506129aa82612989565b919050565b5f6129b98261299d565b9050919050565b6129c9816129af565b82525050565b5f6020820190506129e25f8301846129c0565b92915050565b5f819050919050565b5f612a0b612a06612a01846129e8565b6125d5565b6124f8565b9050919050565b612a1b816129f1565b82525050565b5f602082019050612a345f830184612a12565b92915050565b5f5ffd5b5f5ffd5b5f81519050612a5081612580565b92915050565b612a5f81612219565b8114612a69575f5ffd5b50565b5f81519050612a7a81612a56565b92915050565b612a89816124f8565b8114612a93575f5ffd5b50565b5f81519050612aa481612a80565b92915050565b5f6101408284031215612ac057612abf612a3a565b5b612acb6101406123a7565b90505f612ada84828501612a42565b5f830152506020612aed84828501612a42565b6020830152506040612b0184828501612a42565b6040830152506060612b1584828501612a6c565b6060830152506080612b2984828501612a96565b60808301525060a0612b3d84828501612a96565b60a08301525060c0612b5184828501612a6c565b60c08301525060e0612b6584828501612a96565b60e083015250610100612b7a84828501612a42565b61010083015250610120612b9084828501612a42565b6101208301525092915050565b5f6101408284031215612bb357612bb2612164565b5b5f612bc084828501612aaa565b91505092915050565b7f4e487b71000000000000000000000000000000000000000000000000000000005f52601160045260245ffd5b5f612c0082612541565b9150612c0b83612541565b9250828203905081811115612c2357612c22612bc9565b5b92915050565b612c32816124c7565b8114612c3c575f5ffd5b50565b5f81519050612c4d81612c29565b92915050565b5f60208284031215612c6857612c67612164565b5b5f612c7584828501612c3f565b91505092915050565b5f81359050612c8c81612c29565b92915050565b5f81359050612ca081612a80565b92915050565b5f6fffffffffffffffffffffffffffffffff82169050919050565b612cca81612ca6565b8114612cd4575f5ffd5b50565b5f81359050612ce581612cc1565b92915050565b5f60e08284031215612d0057612cff612a3a565b5b612d0a60e06123a7565b90505f612d1984828501612c7e565b5f830152506020612d2c848285016121b2565b6020830152506040612d40848285016121b2565b6040830152506060612d54848285016121b2565b6060830152506080612d6884828501612c92565b60808301525060a0612d7c84828501612cd7565b60a08301525060c082013567ffffffffffffffff811115612da057612d9f612a3e565b5b612dac84828501612440565b60c08301525092915050565b5f60408284031215612dcd57612dcc612a3a565b5b612dd760406123a7565b90505f82013567ffffffffffffffff811115612df657612df5612a3e565b5b612e0284828501612ceb565b5f83015250602082013567ffffffffffffffff811115612e2557612e24612a3e565b5b612e3184828501612440565b60208301525092915050565b5f5f60408385031215612e5357612e52612164565b5b5f83013567ffffffffffffffff811115612e7057612e6f612168565b5b612e7c85828601612db8565b9250506020612e8d85828601612596565b9150509250929050565b612ea0816124c7565b82525050565b612eaf8161218b565b82525050565b612ebe816124f8565b82525050565b612ecd81612ca6565b82525050565b5f81519050919050565b5f82825260208201905092915050565b5f612ef782612ed3565b612f018185612edd565b9350612f11818560208601612663565b612f1a81612339565b840191505092915050565b5f60e083015f830151612f3a5f860182612e97565b506020830151612f4d6020860182612ea6565b506040830151612f606040860182612ea6565b506060830151612f736060860182612ea6565b506080830151612f866080860182612eb5565b5060a0830151612f9960a0860182612ec4565b5060c083015184820360c0860152612fb18282612eed565b9150508091505092915050565b5f604083015f8301518482035f860152612fd88282612f25565b91505060208301518482036020860152612ff28282612eed565b9150508091505092915050565b5f6060820190508181035f8301526130178186612fbe565b9050613026602083018561254a565b61303360408301846121f1565b949350505050565b5f61304582612ed3565b61304f81856128fe565b935061305f818560208601612663565b61306881612339565b840191505092915050565b5f819050919050565b5f61309661309161308c84613073565b6125d5565b612541565b9050919050565b6130a68161307c565b82525050565b5f6060820190506130bf5f8301866129c0565b81810360208301526130d1818561303b565b90506130e0604083018461309d565b949350505050565b5f602082840312156130fd576130fc612164565b5b5f61310a84828501612a42565b91505092915050565b5f6080820190508181035f83015261312b818761303b565b905061313a602083018661254a565b613147604083018561254a565b613154606083018461254a565b95945050505050565b5f81905092915050565b5f61317182612ed3565b61317b818561315d565b935061318b818560208601612663565b80840191505092915050565b5f6131a28284613167565b915081905092915050565b5f6131c76131c26131bd84612219565b6125d5565b612541565b9050919050565b6131d7816131ad565b82525050565b5f6040820190506131f05f8301856131ce565b6131fd60208301846131ce565b9392505050565b5f61321e613219613214846124f8565b6125d5565b612541565b9050919050565b61322e81613204565b82525050565b5f6040820190506132475f830185613225565b6132546020830184613225565b939250505056fea26469706673582212207347bb30e5eb50ec07b159faad538035fdd3c37a4d1900baec804ad8a26f62e864736f6c634300081b0033","linkReferences":{}},"methodIdentifiers":{"GRAPH_TALLY_COLLECTOR()":"9309d70e","UPGRADE_INTERFACE_VERSION()":"ad3cb1cc","acceptProvisionPendingParameters(address,bytes)":"ce0fc0cc","collect(address,uint8,bytes)":"b15d2a2c","getDelegationRatio()":"1ebb7c30","getProvisionTokensRange()":"819ba366","getThawingPeriodRange()":"71ce020a","getVerifierCutRange()":"482468b7","initialize(address,uint256)":"cd6dc687","isRegistered(address)":"c3c5a547","owner()":"8da5cb5b","paymentsDestination(address)":"07e736d8","proxiableUUID()":"52d1902d","register(address,bytes)":"24b8fbf6","renounceOwnership()":"715018a6","setPaymentsDestination(address)":"6ccec5b8","setProvisionTokensRange(uint256)":"8d84925d","slash(address,bytes)":"cb8347fe","startService(address,bytes)":"dedf6726","stopService(address,bytes)":"8180083b","transferOwnership(address)":"f2fde38b","upgradeToAndCall(address,bytes)":"4f1ef286"},"id":41}