{"abi":[{"type":"constructor","inputs":[{"name":"controller","type":"address","internalType":"address"},{"name":"protocolPaymentCut","type":"uint256","internalType":"uint256"}],"stateMutability":"nonpayable"},{"type":"function","name":"PROTOCOL_PAYMENT_CUT","inputs":[],"outputs":[{"name":"","type":"uint256","internalType":"uint256"}],"stateMutability":"view"},{"type":"function","name":"collect","inputs":[{"name":"paymentType","type":"uint8","internalType":"enum IGraphPayments.PaymentTypes"},{"name":"receiver","type":"address","internalType":"address"},{"name":"tokens","type":"uint256","internalType":"uint256"},{"name":"dataService","type":"address","internalType":"address"},{"name":"dataServiceCut","type":"uint256","internalType":"uint256"},{"name":"receiverDestination","type":"address","internalType":"address"}],"outputs":[],"stateMutability":"nonpayable"},{"type":"function","name":"initialize","inputs":[],"outputs":[],"stateMutability":"nonpayable"},{"type":"function","name":"multicall","inputs":[{"name":"data","type":"bytes[]","internalType":"bytes[]"}],"outputs":[{"name":"results","type":"bytes[]","internalType":"bytes[]"}],"stateMutability":"nonpayable"},{"type":"event","name":"GraphDirectoryInitialized","inputs":[{"name":"graphToken","type":"address","indexed":true,"internalType":"address"},{"name":"graphStaking","type":"address","indexed":true,"internalType":"address"},{"name":"graphPayments","type":"address","indexed":false,"internalType":"address"},{"name":"graphEscrow","type":"address","indexed":false,"internalType":"address"},{"name":"graphController","type":"address","indexed":true,"internalType":"address"},{"name":"graphEpochManager","type":"address","indexed":false,"internalType":"address"},{"name":"graphRewardsManager","type":"address","indexed":false,"internalType":"address"},{"name":"graphTokenGateway","type":"address","indexed":false,"internalType":"address"},{"name":"graphProxyAdmin","type":"address","indexed":false,"internalType":"address"},{"name":"graphCuration","type":"address","indexed":false,"internalType":"address"}],"anonymous":false},{"type":"event","name":"GraphPaymentCollected","inputs":[{"name":"paymentType","type":"uint8","indexed":true,"internalType":"enum IGraphPayments.PaymentTypes"},{"name":"payer","type":"address","indexed":true,"internalType":"address"},{"name":"receiver","type":"address","indexed":false,"internalType":"address"},{"name":"dataService","type":"address","indexed":true,"internalType":"address"},{"name":"tokens","type":"uint256","indexed":false,"internalType":"uint256"},{"name":"tokensProtocol","type":"uint256","indexed":false,"internalType":"uint256"},{"name":"tokensDataService","type":"uint256","indexed":false,"internalType":"uint256"},{"name":"tokensDelegationPool","type":"uint256","indexed":false,"internalType":"uint256"},{"name":"tokensReceiver","type":"uint256","indexed":false,"internalType":"uint256"},{"name":"receiverDestination","type":"address","indexed":false,"internalType":"address"}],"anonymous":false},{"type":"event","name":"Initialized","inputs":[{"name":"version","type":"uint64","indexed":false,"internalType":"uint64"}],"anonymous":false},{"type":"error","name":"AddressEmptyCode","inputs":[{"name":"target","type":"address","internalType":"address"}]},{"type":"error","name":"FailedCall","inputs":[]},{"type":"error","name":"GraphDirectoryInvalidZeroAddress","inputs":[{"name":"contractName","type":"bytes","internalType":"bytes"}]},{"type":"error","name":"GraphPaymentsInvalidCut","inputs":[{"name":"cut","type":"uint256","internalType":"uint256"}]},{"type":"error","name":"GraphPaymentsInvalidProtocolPaymentCut","inputs":[{"name":"protocolPaymentCut","type":"uint256","internalType":"uint256"}]},{"type":"error","name":"InvalidInitialization","inputs":[]},{"type":"error","name":"NotInitializing","inputs":[]},{"type":"error","name":"PPMMathInvalidMulPPM","inputs":[{"name":"a","type":"uint256","internalType":"uint256"},{"name":"b","type":"uint256","internalType":"uint256"}]},{"type":"error","name":"PPMMathInvalidPPM","inputs":[{"name":"value","type":"uint256","internalType":"uint256"}]}],"bytecode":{"object":"0x6101e0604052348015610010575f5ffd5b50604051612592380380612592833981810160405281019061003291906108e4565b815f73ffffffffffffffffffffffffffffffffffffffff168173ffffffffffffffffffffffffffffffffffffffff16036100a1576040517f431eb5ba0000000000000000000000000000000000000000000000000000000081526004016100989061097c565b60405180910390fd5b8073ffffffffffffffffffffffffffffffffffffffff166101008173ffffffffffffffffffffffffffffffffffffffff168152505061011a6040518060400160405280600a81526020017f4772617068546f6b656e0000000000000000000000000000000000000000000081525061061d60201b60201c565b73ffffffffffffffffffffffffffffffffffffffff1660808173ffffffffffffffffffffffffffffffffffffffff16815250506101916040518060400160405280600781526020017f5374616b696e670000000000000000000000000000000000000000000000000081525061061d60201b60201c565b73ffffffffffffffffffffffffffffffffffffffff1660a08173ffffffffffffffffffffffffffffffffffffffff16815250506102086040518060400160405280600d81526020017f47726170685061796d656e74730000000000000000000000000000000000000081525061061d60201b60201c565b73ffffffffffffffffffffffffffffffffffffffff1660c08173ffffffffffffffffffffffffffffffffffffffff168152505061027f6040518060400160405280600e81526020017f5061796d656e7473457363726f7700000000000000000000000000000000000081525061061d60201b60201c565b73ffffffffffffffffffffffffffffffffffffffff1660e08173ffffffffffffffffffffffffffffffffffffffff16815250506102f66040518060400160405280600c81526020017f45706f63684d616e61676572000000000000000000000000000000000000000081525061061d60201b60201c565b73ffffffffffffffffffffffffffffffffffffffff166101208173ffffffffffffffffffffffffffffffffffffffff168152505061036e6040518060400160405280600e81526020017f526577617264734d616e6167657200000000000000000000000000000000000081525061061d60201b60201c565b73ffffffffffffffffffffffffffffffffffffffff166101408173ffffffffffffffffffffffffffffffffffffffff16815250506103e66040518060400160405280601181526020017f4772617068546f6b656e4761746577617900000000000000000000000000000081525061061d60201b60201c565b73ffffffffffffffffffffffffffffffffffffffff166101608173ffffffffffffffffffffffffffffffffffffffff168152505061045e6040518060400160405280600f81526020017f477261706850726f787941646d696e000000000000000000000000000000000081525061061d60201b60201c565b73ffffffffffffffffffffffffffffffffffffffff166101808173ffffffffffffffffffffffffffffffffffffffff16815250506104d66040518060400160405280600881526020017f4375726174696f6e00000000000000000000000000000000000000000000000081525061061d60201b60201c565b73ffffffffffffffffffffffffffffffffffffffff166101a08173ffffffffffffffffffffffffffffffffffffffff16815250506101005173ffffffffffffffffffffffffffffffffffffffff1660a05173ffffffffffffffffffffffffffffffffffffffff1660805173ffffffffffffffffffffffffffffffffffffffff167fef5021414834d86e36470f5c1cecf6544fb2bb723f2ca51a4c86fcd8c5919a4360c05160e051610120516101405161016051610180516101a0516040516105a497969594939291906109a9565b60405180910390a4506105bc8161071f60201b60201c565b81906105fe576040517fe6dd8b940000000000000000000000000000000000000000000000000000000081526004016105f59190610a25565b60405180910390fd5b50806101c0818152505061061661072e60201b60201c565b5050610b55565b5f5f6101005173ffffffffffffffffffffffffffffffffffffffff1663f7641a5e84805190602001206040518263ffffffff1660e01b81526004016106629190610a56565b602060405180830381865afa15801561067d573d5f5f3e3d5ffd5b505050506040513d601f19601f820116820180604052508101906106a19190610a6f565b90505f73ffffffffffffffffffffffffffffffffffffffff168173ffffffffffffffffffffffffffffffffffffffff1614158390610715576040517f431eb5ba00000000000000000000000000000000000000000000000000000000815260040161070c9190610afa565b60405180910390fd5b5080915050919050565b5f620f42408211159050919050565b5f61073d61082c60201b60201c565b9050805f0160089054906101000a900460ff1615610787576040517ff92ee8a900000000000000000000000000000000000000000000000000000000815260040160405180910390fd5b67ffffffffffffffff8016815f015f9054906101000a900467ffffffffffffffff1667ffffffffffffffff16146108295767ffffffffffffffff815f015f6101000a81548167ffffffffffffffff021916908367ffffffffffffffff1602179055507fc7f505b2f371ae2175ee4913f4499e1f2633a7b5936321eed1cdaeb6115181d267ffffffffffffffff6040516108209190610b3c565b60405180910390a15b50565b5f7ff0c57e16840df040f15088dc2f81fe391c3923bec73e23a9662efc9c229c6a00905090565b5f5ffd5b5f73ffffffffffffffffffffffffffffffffffffffff82169050919050565b5f61088082610857565b9050919050565b61089081610876565b811461089a575f5ffd5b50565b5f815190506108ab81610887565b92915050565b5f819050919050565b6108c3816108b1565b81146108cd575f5ffd5b50565b5f815190506108de816108ba565b92915050565b5f5f604083850312156108fa576108f9610853565b5b5f6109078582860161089d565b9250506020610918858286016108d0565b9150509250929050565b5f82825260208201905092915050565b7f436f6e74726f6c6c6572000000000000000000000000000000000000000000005f82015250565b5f610966600a83610922565b915061097182610932565b602082019050919050565b5f6020820190508181035f8301526109938161095a565b9050919050565b6109a381610876565b82525050565b5f60e0820190506109bc5f83018a61099a565b6109c9602083018961099a565b6109d6604083018861099a565b6109e3606083018761099a565b6109f0608083018661099a565b6109fd60a083018561099a565b610a0a60c083018461099a565b98975050505050505050565b610a1f816108b1565b82525050565b5f602082019050610a385f830184610a16565b92915050565b5f819050919050565b610a5081610a3e565b82525050565b5f602082019050610a695f830184610a47565b92915050565b5f60208284031215610a8457610a83610853565b5b5f610a918482850161089d565b91505092915050565b5f81519050919050565b8281835e5f83830152505050565b5f601f19601f8301169050919050565b5f610acc82610a9a565b610ad68185610922565b9350610ae6818560208601610aa4565b610aef81610ab2565b840191505092915050565b5f6020820190508181035f830152610b128184610ac2565b905092915050565b5f67ffffffffffffffff82169050919050565b610b3681610b1a565b82525050565b5f602082019050610b4f5f830184610b2d565b92915050565b60805160a05160c05160e05161010051610120516101405161016051610180516101a0516101c0516119d6610bbc5f395f818160c401526102ed01525f50505f50505f50505f50505f50505f50505f50505f50505f610b7a01525f610a1101526119d65ff3fe608060405234801561000f575f5ffd5b506004361061004a575f3560e01c80631d526e501461004e5780638129fc1c1461006c57806381cd11a014610076578063ac9650d814610092575b5f5ffd5b6100566100c2565b6040516100639190610f31565b60405180910390f35b6100746100e6565b005b610090600480360381019061008b9190611002565b610265565b005b6100ac60048036038101906100a791906110ec565b6107ed565b6040516100b99190611262565b60405180910390f35b7f000000000000000000000000000000000000000000000000000000000000000081565b5f6100ef6109ce565b90505f815f0160089054906101000a900460ff161590505f825f015f9054906101000a900467ffffffffffffffff1690505f5f8267ffffffffffffffff161480156101375750825b90505f60018367ffffffffffffffff1614801561016a57505f3073ffffffffffffffffffffffffffffffffffffffff163b145b905081158015610178575080155b156101af576040517ff92ee8a900000000000000000000000000000000000000000000000000000000815260040160405180910390fd5b6001855f015f6101000a81548167ffffffffffffffff021916908367ffffffffffffffff16021790555083156101fc576001855f0160086101000a81548160ff0219169083151502179055505b6102046109f5565b831561025e575f855f0160086101000a81548160ff0219169083151502179055507fc7f505b2f371ae2175ee4913f4499e1f2633a7b5936321eed1cdaeb6115181d2600160405161025591906112d7565b60405180910390a15b5050505050565b61026e826109ff565b82906102b0576040517fe6dd8b940000000000000000000000000000000000000000000000000000000081526004016102a79190610f31565b60405180910390fd5b506102e333856102be610a0e565b73ffffffffffffffffffffffffffffffffffffffff16610a359092919063ffffffff16565b5f8490505f61031b7f000000000000000000000000000000000000000000000000000000000000000083610aff90919063ffffffff16565b90508082610329919061131d565b91505f61033f8584610aff90919063ffffffff16565b9050808361034d919061131d565b92505f5f90505f61035c610b77565b73ffffffffffffffffffffffffffffffffffffffff1663561285e48b8a6040518363ffffffff1660e01b815260040161039692919061135f565b60a060405180830381865afa1580156103b1573d5f5f3e3d5ffd5b505050506040513d601f19601f820116820180604052508101906103d5919061149f565b90505f81602001511115610489576104786103ee610b77565b73ffffffffffffffffffffffffffffffffffffffff16637573ef4f8c8b8f6040518463ffffffff1660e01b815260040161042a9392919061153d565b602060405180830381865afa158015610445573d5f5f3e3d5ffd5b505050506040513d601f19601f820116820180604052508101906104699190611572565b86610aff90919063ffffffff16565b91508185610486919061131d565b94505b6104b984610495610a0e565b73ffffffffffffffffffffffffffffffffffffffff16610b9e90919063ffffffff16565b6104eb88846104c6610a0e565b73ffffffffffffffffffffffffffffffffffffffff16610c119092919063ffffffff16565b5f8211156105ef576104fb610a0e565b73ffffffffffffffffffffffffffffffffffffffff1663095ea7b361051e610b77565b846040518363ffffffff1660e01b815260040161053c92919061159d565b6020604051808303815f875af1158015610558573d5f5f3e3d5ffd5b505050506040513d601f19601f8201168201806040525081019061057c91906115f9565b50610585610b77565b73ffffffffffffffffffffffffffffffffffffffff1663ca94b0e98b8a856040518463ffffffff1660e01b81526004016105c193929190611624565b5f604051808303815f87803b1580156105d8575f5ffd5b505af11580156105ea573d5f5f3e3d5ffd5b505050505b5f85111561075c575f73ffffffffffffffffffffffffffffffffffffffff168673ffffffffffffffffffffffffffffffffffffffff160361072857610632610a0e565b73ffffffffffffffffffffffffffffffffffffffff1663095ea7b3610655610b77565b876040518363ffffffff1660e01b815260040161067392919061159d565b6020604051808303815f875af115801561068f573d5f5f3e3d5ffd5b505050506040513d601f19601f820116820180604052508101906106b391906115f9565b506106bc610b77565b73ffffffffffffffffffffffffffffffffffffffff1663a2a317228b876040518363ffffffff1660e01b81526004016106f692919061159d565b5f604051808303815f87803b15801561070d575f5ffd5b505af115801561071f573d5f5f3e3d5ffd5b5050505061075b565b61075a8686610735610a0e565b73ffffffffffffffffffffffffffffffffffffffff16610c119092919063ffffffff16565b5b5b8773ffffffffffffffffffffffffffffffffffffffff163373ffffffffffffffffffffffffffffffffffffffff168c600281111561079d5761079c6114ca565b5b7fb1ac8b16683562f4b1b5ecbe3321151b400058de5cdd25ac44d5bfacb106765f8d8d8989898d8f6040516107d89796959493929190611659565b60405180910390a45050505050505050505050565b60605f6107f8610cd9565b73ffffffffffffffffffffffffffffffffffffffff163373ffffffffffffffffffffffffffffffffffffffff1614610898575f36610834610ce0565b5f369050610842919061131d565b908092610851939291906116ce565b8080601f0160208091040260200160405190810160405280939291908181526020018383808284375f81840152601f19601f820116905080830192505050505050506108e6565b5f67ffffffffffffffff8111156108b2576108b161138a565b5b6040519080825280601f01601f1916602001820160405280156108e45781602001600182028036833780820191505090505b505b90508383905067ffffffffffffffff8111156109055761090461138a565b5b60405190808252806020026020018201604052801561093857816020015b60608152602001906001900390816109235790505b5091505f5f90505b848490508110156109c65761099b3086868481811061096257610961611708565b5b90506020028101906109749190611741565b856040516020016109879392919061180f565b604051602081830303815290604052610ce7565b8382815181106109ae576109ad611708565b5b60200260200101819052508080600101915050610940565b505092915050565b5f7ff0c57e16840df040f15088dc2f81fe391c3923bec73e23a9662efc9c229c6a00905090565b6109fd610d67565b565b5f620f42408211159050919050565b5f7f0000000000000000000000000000000000000000000000000000000000000000905090565b5f811115610afa578273ffffffffffffffffffffffffffffffffffffffff166323b872dd8330846040518463ffffffff1660e01b8152600401610a7a93929190611624565b6020604051808303815f875af1158015610a96573d5f5f3e3d5ffd5b505050506040513d601f19601f82011682018060405250810190610aba91906115f9565b610af9576040517f08c379a0000000000000000000000000000000000000000000000000000000008152600401610af09061188e565b60405180910390fd5b5b505050565b5f610b09826109ff565b8290610b4b576040517f3dc311df000000000000000000000000000000000000000000000000000000008152600401610b429190610f31565b60405180910390fd5b50610b648383620f4240610b5f919061131d565b610da7565b83610b6f919061131d565b905092915050565b5f7f0000000000000000000000000000000000000000000000000000000000000000905090565b5f811115610c0d578173ffffffffffffffffffffffffffffffffffffffff166342966c68826040518263ffffffff1660e01b8152600401610bdf9190610f31565b5f604051808303815f87803b158015610bf6575f5ffd5b505af1158015610c08573d5f5f3e3d5ffd5b505050505b5050565b5f811115610cd4578273ffffffffffffffffffffffffffffffffffffffff1663a9059cbb83836040518363ffffffff1660e01b8152600401610c5492919061159d565b6020604051808303815f875af1158015610c70573d5f5f3e3d5ffd5b505050506040513d601f19601f82011682018060405250810190610c9491906115f9565b610cd3576040517f08c379a0000000000000000000000000000000000000000000000000000000008152600401610cca9061188e565b60405180910390fd5b5b505050565b5f33905090565b5f5f905090565b60605f5f8473ffffffffffffffffffffffffffffffffffffffff1684604051610d1091906118ac565b5f60405180830381855af49150503d805f8114610d48576040519150601f19603f3d011682016040523d82523d5f602084013e610d4d565b606091505b5091509150610d5d858383610e2a565b9250505092915050565b610d6f610eb7565b610da5576040517fd7e6bcf800000000000000000000000000000000000000000000000000000000815260040160405180910390fd5b565b5f610db1836109ff565b80610dc15750610dc0826109ff565b5b83839091610e06576040517fed17e1d6000000000000000000000000000000000000000000000000000000008152600401610dfd9291906118c2565b60405180910390fd5b5050620f42408284610e1891906118e9565b610e229190611957565b905092915050565b606082610e3f57610e3a82610ed5565b610eaf565b5f8251148015610e6557505f8473ffffffffffffffffffffffffffffffffffffffff163b145b15610ea757836040517f9996b315000000000000000000000000000000000000000000000000000000008152600401610e9e9190611987565b60405180910390fd5b819050610eb0565b5b9392505050565b5f610ec06109ce565b5f0160089054906101000a900460ff16905090565b5f81511115610ee75780518082602001fd5b6040517fd6bda27500000000000000000000000000000000000000000000000000000000815260040160405180910390fd5b5f819050919050565b610f2b81610f19565b82525050565b5f602082019050610f445f830184610f22565b92915050565b5f604051905090565b5f5ffd5b5f5ffd5b60038110610f67575f5ffd5b50565b5f81359050610f7881610f5b565b92915050565b5f73ffffffffffffffffffffffffffffffffffffffff82169050919050565b5f610fa782610f7e565b9050919050565b610fb781610f9d565b8114610fc1575f5ffd5b50565b5f81359050610fd281610fae565b92915050565b610fe181610f19565b8114610feb575f5ffd5b50565b5f81359050610ffc81610fd8565b92915050565b5f5f5f5f5f5f60c0878903121561101c5761101b610f53565b5b5f61102989828a01610f6a565b965050602061103a89828a01610fc4565b955050604061104b89828a01610fee565b945050606061105c89828a01610fc4565b935050608061106d89828a01610fee565b92505060a061107e89828a01610fc4565b9150509295509295509295565b5f5ffd5b5f5ffd5b5f5ffd5b5f5f83601f8401126110ac576110ab61108b565b5b8235905067ffffffffffffffff8111156110c9576110c861108f565b5b6020830191508360208202830111156110e5576110e4611093565b5b9250929050565b5f5f6020838503121561110257611101610f53565b5b5f83013567ffffffffffffffff81111561111f5761111e610f57565b5b61112b85828601611097565b92509250509250929050565b5f81519050919050565b5f82825260208201905092915050565b5f819050602082019050919050565b5f81519050919050565b5f82825260208201905092915050565b8281835e5f83830152505050565b5f601f19601f8301169050919050565b5f6111a282611160565b6111ac818561116a565b93506111bc81856020860161117a565b6111c581611188565b840191505092915050565b5f6111db8383611198565b905092915050565b5f602082019050919050565b5f6111f982611137565b6112038185611141565b93508360208202850161121585611151565b805f5b85811015611250578484038952815161123185826111d0565b945061123c836111e3565b925060208a01995050600181019050611218565b50829750879550505050505092915050565b5f6020820190508181035f83015261127a81846111ef565b905092915050565b5f819050919050565b5f67ffffffffffffffff82169050919050565b5f819050919050565b5f6112c16112bc6112b784611282565b61129e565b61128b565b9050919050565b6112d1816112a7565b82525050565b5f6020820190506112ea5f8301846112c8565b92915050565b7f4e487b71000000000000000000000000000000000000000000000000000000005f52601160045260245ffd5b5f61132782610f19565b915061133283610f19565b925082820390508181111561134a576113496112f0565b5b92915050565b61135981610f9d565b82525050565b5f6040820190506113725f830185611350565b61137f6020830184611350565b9392505050565b5f5ffd5b7f4e487b71000000000000000000000000000000000000000000000000000000005f52604160045260245ffd5b6113c082611188565b810181811067ffffffffffffffff821117156113df576113de61138a565b5b80604052505050565b5f6113f1610f4a565b90506113fd82826113b7565b919050565b5f8151905061141081610fd8565b92915050565b5f60a0828403121561142b5761142a611386565b5b61143560a06113e8565b90505f61144484828501611402565b5f83015250602061145784828501611402565b602083015250604061146b84828501611402565b604083015250606061147f84828501611402565b606083015250608061149384828501611402565b60808301525092915050565b5f60a082840312156114b4576114b3610f53565b5b5f6114c184828501611416565b91505092915050565b7f4e487b71000000000000000000000000000000000000000000000000000000005f52602160045260245ffd5b60038110611508576115076114ca565b5b50565b5f819050611518826114f7565b919050565b5f6115278261150b565b9050919050565b6115378161151d565b82525050565b5f6060820190506115505f830186611350565b61155d6020830185611350565b61156a604083018461152e565b949350505050565b5f6020828403121561158757611586610f53565b5b5f61159484828501611402565b91505092915050565b5f6040820190506115b05f830185611350565b6115bd6020830184610f22565b9392505050565b5f8115159050919050565b6115d8816115c4565b81146115e2575f5ffd5b50565b5f815190506115f3816115cf565b92915050565b5f6020828403121561160e5761160d610f53565b5b5f61161b848285016115e5565b91505092915050565b5f6060820190506116375f830186611350565b6116446020830185611350565b6116516040830184610f22565b949350505050565b5f60e08201905061166c5f83018a611350565b6116796020830189610f22565b6116866040830188610f22565b6116936060830187610f22565b6116a06080830186610f22565b6116ad60a0830185610f22565b6116ba60c0830184611350565b98975050505050505050565b5f5ffd5b5f5ffd5b5f5f858511156116e1576116e06116c6565b5b838611156116f2576116f16116ca565b5b6001850283019150848603905094509492505050565b7f4e487b71000000000000000000000000000000000000000000000000000000005f52603260045260245ffd5b5f5ffd5b5f5ffd5b5f5ffd5b5f5f8335600160200384360303811261175d5761175c611735565b5b80840192508235915067ffffffffffffffff82111561177f5761177e611739565b5b60208301925060018202360383131561179b5761179a61173d565b5b509250929050565b5f81905092915050565b828183375f83830152505050565b5f6117c683856117a3565b93506117d38385846117ad565b82840190509392505050565b5f6117e982611160565b6117f381856117a3565b935061180381856020860161117a565b80840191505092915050565b5f61181b8285876117bb565b915061182782846117df565b9150819050949350505050565b5f82825260208201905092915050565b7f217472616e7366657200000000000000000000000000000000000000000000005f82015250565b5f611878600983611834565b915061188382611844565b602082019050919050565b5f6020820190508181035f8301526118a58161186c565b9050919050565b5f6118b782846117df565b915081905092915050565b5f6040820190506118d55f830185610f22565b6118e26020830184610f22565b9392505050565b5f6118f382610f19565b91506118fe83610f19565b925082820261190c81610f19565b91508282048414831517611923576119226112f0565b5b5092915050565b7f4e487b71000000000000000000000000000000000000000000000000000000005f52601260045260245ffd5b5f61196182610f19565b915061196c83610f19565b92508261197c5761197b61192a565b5b828204905092915050565b5f60208201905061199a5f830184611350565b9291505056fea2646970667358221220a82a6e23e2bd5af612c11a91922900b87533d463caacdabb462d4a2e9f11762664736f6c634300081b0033","linkReferences":{}},"methodIdentifiers":{"PROTOCOL_PAYMENT_CUT()":"1d526e50","collect(uint8,address,uint256,address,uint256,address)":"81cd11a0","initialize()":"8129fc1c","multicall(bytes[])":"ac9650d8"},"id":7}