{"abi":[{"type":"constructor","inputs":[{"name":"eip712Name","type":"string","internalType":"string"},{"name":"eip712Version","type":"string","internalType":"string"},{"name":"controller","type":"address","internalType":"address"},{"name":"revokeSignerThawingPeriod","type":"uint256","internalType":"uint256"}],"stateMutability":"nonpayable"},{"type":"function","name":"REVOKE_AUTHORIZATION_THAWING_PERIOD","inputs":[],"outputs":[{"name":"","type":"uint256","internalType":"uint256"}],"stateMutability":"view"},{"type":"function","name":"authorizations","inputs":[{"name":"signer","type":"address","internalType":"address"}],"outputs":[{"name":"authorizer","type":"address","internalType":"address"},{"name":"thawEndTimestamp","type":"uint256","internalType":"uint256"},{"name":"revoked","type":"bool","internalType":"bool"}],"stateMutability":"view"},{"type":"function","name":"authorizeSigner","inputs":[{"name":"signer","type":"address","internalType":"address"},{"name":"proofDeadline","type":"uint256","internalType":"uint256"},{"name":"proof","type":"bytes","internalType":"bytes"}],"outputs":[],"stateMutability":"nonpayable"},{"type":"function","name":"cancelThawSigner","inputs":[{"name":"signer","type":"address","internalType":"address"}],"outputs":[],"stateMutability":"nonpayable"},{"type":"function","name":"collect","inputs":[{"name":"paymentType","type":"uint8","internalType":"enum IGraphPayments.PaymentTypes"},{"name":"data","type":"bytes","internalType":"bytes"},{"name":"tokensToCollect","type":"uint256","internalType":"uint256"}],"outputs":[{"name":"","type":"uint256","internalType":"uint256"}],"stateMutability":"nonpayable"},{"type":"function","name":"collect","inputs":[{"name":"paymentType","type":"uint8","internalType":"enum IGraphPayments.PaymentTypes"},{"name":"data","type":"bytes","internalType":"bytes"}],"outputs":[{"name":"","type":"uint256","internalType":"uint256"}],"stateMutability":"nonpayable"},{"type":"function","name":"eip712Domain","inputs":[],"outputs":[{"name":"fields","type":"bytes1","internalType":"bytes1"},{"name":"name","type":"string","internalType":"string"},{"name":"version","type":"string","internalType":"string"},{"name":"chainId","type":"uint256","internalType":"uint256"},{"name":"verifyingContract","type":"address","internalType":"address"},{"name":"salt","type":"bytes32","internalType":"bytes32"},{"name":"extensions","type":"uint256[]","internalType":"uint256[]"}],"stateMutability":"view"},{"type":"function","name":"encodeRAV","inputs":[{"name":"rav","type":"tuple","internalType":"struct IGraphTallyCollector.ReceiptAggregateVoucher","components":[{"name":"collectionId","type":"bytes32","internalType":"bytes32"},{"name":"payer","type":"address","internalType":"address"},{"name":"serviceProvider","type":"address","internalType":"address"},{"name":"dataService","type":"address","internalType":"address"},{"name":"timestampNs","type":"uint64","internalType":"uint64"},{"name":"valueAggregate","type":"uint128","internalType":"uint128"},{"name":"metadata","type":"bytes","internalType":"bytes"}]}],"outputs":[{"name":"","type":"bytes32","internalType":"bytes32"}],"stateMutability":"view"},{"type":"function","name":"getThawEnd","inputs":[{"name":"signer","type":"address","internalType":"address"}],"outputs":[{"name":"","type":"uint256","internalType":"uint256"}],"stateMutability":"view"},{"type":"function","name":"isAuthorized","inputs":[{"name":"authorizer","type":"address","internalType":"address"},{"name":"signer","type":"address","internalType":"address"}],"outputs":[{"name":"","type":"bool","internalType":"bool"}],"stateMutability":"view"},{"type":"function","name":"recoverRAVSigner","inputs":[{"name":"signedRAV","type":"tuple","internalType":"struct IGraphTallyCollector.SignedRAV","components":[{"name":"rav","type":"tuple","internalType":"struct IGraphTallyCollector.ReceiptAggregateVoucher","components":[{"name":"collectionId","type":"bytes32","internalType":"bytes32"},{"name":"payer","type":"address","internalType":"address"},{"name":"serviceProvider","type":"address","internalType":"address"},{"name":"dataService","type":"address","internalType":"address"},{"name":"timestampNs","type":"uint64","internalType":"uint64"},{"name":"valueAggregate","type":"uint128","internalType":"uint128"},{"name":"metadata","type":"bytes","internalType":"bytes"}]},{"name":"signature","type":"bytes","internalType":"bytes"}]}],"outputs":[{"name":"","type":"address","internalType":"address"}],"stateMutability":"view"},{"type":"function","name":"revokeAuthorizedSigner","inputs":[{"name":"signer","type":"address","internalType":"address"}],"outputs":[],"stateMutability":"nonpayable"},{"type":"function","name":"thawSigner","inputs":[{"name":"signer","type":"address","internalType":"address"}],"outputs":[],"stateMutability":"nonpayable"},{"type":"function","name":"tokensCollected","inputs":[{"name":"dataService","type":"address","internalType":"address"},{"name":"collectionId","type":"bytes32","internalType":"bytes32"},{"name":"receiver","type":"address","internalType":"address"},{"name":"payer","type":"address","internalType":"address"}],"outputs":[{"name":"tokens","type":"uint256","internalType":"uint256"}],"stateMutability":"view"},{"type":"event","name":"EIP712DomainChanged","inputs":[],"anonymous":false},{"type":"event","name":"GraphDirectoryInitialized","inputs":[{"name":"graphToken","type":"address","indexed":true,"internalType":"address"},{"name":"graphStaking","type":"address","indexed":true,"internalType":"address"},{"name":"graphPayments","type":"address","indexed":false,"internalType":"address"},{"name":"graphEscrow","type":"address","indexed":false,"internalType":"address"},{"name":"graphController","type":"address","indexed":true,"internalType":"address"},{"name":"graphEpochManager","type":"address","indexed":false,"internalType":"address"},{"name":"graphRewardsManager","type":"address","indexed":false,"internalType":"address"},{"name":"graphTokenGateway","type":"address","indexed":false,"internalType":"address"},{"name":"graphProxyAdmin","type":"address","indexed":false,"internalType":"address"},{"name":"graphCuration","type":"address","indexed":false,"internalType":"address"}],"anonymous":false},{"type":"event","name":"PaymentCollected","inputs":[{"name":"paymentType","type":"uint8","indexed":false,"internalType":"enum IGraphPayments.PaymentTypes"},{"name":"collectionId","type":"bytes32","indexed":true,"internalType":"bytes32"},{"name":"payer","type":"address","indexed":true,"internalType":"address"},{"name":"receiver","type":"address","indexed":false,"internalType":"address"},{"name":"dataService","type":"address","indexed":true,"internalType":"address"},{"name":"tokens","type":"uint256","indexed":false,"internalType":"uint256"}],"anonymous":false},{"type":"event","name":"RAVCollected","inputs":[{"name":"collectionId","type":"bytes32","indexed":true,"internalType":"bytes32"},{"name":"payer","type":"address","indexed":true,"internalType":"address"},{"name":"serviceProvider","type":"address","indexed":false,"internalType":"address"},{"name":"dataService","type":"address","indexed":true,"internalType":"address"},{"name":"timestampNs","type":"uint64","indexed":false,"internalType":"uint64"},{"name":"valueAggregate","type":"uint128","indexed":false,"internalType":"uint128"},{"name":"metadata","type":"bytes","indexed":false,"internalType":"bytes"},{"name":"signature","type":"bytes","indexed":false,"internalType":"bytes"}],"anonymous":false},{"type":"event","name":"SignerAuthorized","inputs":[{"name":"authorizer","type":"address","indexed":true,"internalType":"address"},{"name":"signer","type":"address","indexed":true,"internalType":"address"}],"anonymous":false},{"type":"event","name":"SignerRevoked","inputs":[{"name":"authorizer","type":"address","indexed":true,"internalType":"address"},{"name":"signer","type":"address","indexed":true,"internalType":"address"}],"anonymous":false},{"type":"event","name":"SignerThawCanceled","inputs":[{"name":"authorizer","type":"address","indexed":true,"internalType":"address"},{"name":"signer","type":"address","indexed":true,"internalType":"address"},{"name":"thawEndTimestamp","type":"uint256","indexed":false,"internalType":"uint256"}],"anonymous":false},{"type":"event","name":"SignerThawing","inputs":[{"name":"authorizer","type":"address","indexed":true,"internalType":"address"},{"name":"signer","type":"address","indexed":true,"internalType":"address"},{"name":"thawEndTimestamp","type":"uint256","indexed":false,"internalType":"uint256"}],"anonymous":false},{"type":"error","name":"AuthorizableInvalidSignerProof","inputs":[]},{"type":"error","name":"AuthorizableInvalidSignerProofDeadline","inputs":[{"name":"proofDeadline","type":"uint256","internalType":"uint256"},{"name":"currentTimestamp","type":"uint256","internalType":"uint256"}]},{"type":"error","name":"AuthorizableSignerAlreadyAuthorized","inputs":[{"name":"authorizer","type":"address","internalType":"address"},{"name":"signer","type":"address","internalType":"address"},{"name":"revoked","type":"bool","internalType":"bool"}]},{"type":"error","name":"AuthorizableSignerNotAuthorized","inputs":[{"name":"authorizer","type":"address","internalType":"address"},{"name":"signer","type":"address","internalType":"address"}]},{"type":"error","name":"AuthorizableSignerNotThawing","inputs":[{"name":"signer","type":"address","internalType":"address"}]},{"type":"error","name":"AuthorizableSignerStillThawing","inputs":[{"name":"currentTimestamp","type":"uint256","internalType":"uint256"},{"name":"thawEndTimestamp","type":"uint256","internalType":"uint256"}]},{"type":"error","name":"ECDSAInvalidSignature","inputs":[]},{"type":"error","name":"ECDSAInvalidSignatureLength","inputs":[{"name":"length","type":"uint256","internalType":"uint256"}]},{"type":"error","name":"ECDSAInvalidSignatureS","inputs":[{"name":"s","type":"bytes32","internalType":"bytes32"}]},{"type":"error","name":"GraphDirectoryInvalidZeroAddress","inputs":[{"name":"contractName","type":"bytes","internalType":"bytes"}]},{"type":"error","name":"GraphTallyCollectorCallerNotDataService","inputs":[{"name":"caller","type":"address","internalType":"address"},{"name":"dataService","type":"address","internalType":"address"}]},{"type":"error","name":"GraphTallyCollectorInconsistentRAVTokens","inputs":[{"name":"tokens","type":"uint256","internalType":"uint256"},{"name":"tokensCollected","type":"uint256","internalType":"uint256"}]},{"type":"error","name":"GraphTallyCollectorInvalidRAVSigner","inputs":[]},{"type":"error","name":"GraphTallyCollectorInvalidTokensToCollectAmount","inputs":[{"name":"tokensToCollect","type":"uint256","internalType":"uint256"},{"name":"maxTokensToCollect","type":"uint256","internalType":"uint256"}]},{"type":"error","name":"GraphTallyCollectorUnauthorizedDataService","inputs":[{"name":"dataService","type":"address","internalType":"address"}]},{"type":"error","name":"InvalidShortString","inputs":[]},{"type":"error","name":"StringTooLong","inputs":[{"name":"str","type":"string","internalType":"string"}]}],"bytecode":{"object":"0x6102c0604052348015610010575f5ffd5b50604051613e86380380613e8683398181016040528101906100329190610a65565b808285856100495f8361067460201b90919060201c565b610120818152505061006560018261067460201b90919060201c565b6101408181525050818051906020012060e08181525050808051906020012061010081815250504660a081815250506100a26106c160201b60201c565b608081815250503073ffffffffffffffffffffffffffffffffffffffff1660c08173ffffffffffffffffffffffffffffffffffffffff168152505050505f73ffffffffffffffffffffffffffffffffffffffff168173ffffffffffffffffffffffffffffffffffffffff160361014d576040517f431eb5ba00000000000000000000000000000000000000000000000000000000815260040161014490610b5b565b60405180910390fd5b8073ffffffffffffffffffffffffffffffffffffffff166101e08173ffffffffffffffffffffffffffffffffffffffff16815250506101c66040518060400160405280600a81526020017f4772617068546f6b656e0000000000000000000000000000000000000000000081525061071b60201b60201c565b73ffffffffffffffffffffffffffffffffffffffff166101608173ffffffffffffffffffffffffffffffffffffffff168152505061023e6040518060400160405280600781526020017f5374616b696e670000000000000000000000000000000000000000000000000081525061071b60201b60201c565b73ffffffffffffffffffffffffffffffffffffffff166101808173ffffffffffffffffffffffffffffffffffffffff16815250506102b66040518060400160405280600d81526020017f47726170685061796d656e74730000000000000000000000000000000000000081525061071b60201b60201c565b73ffffffffffffffffffffffffffffffffffffffff166101a08173ffffffffffffffffffffffffffffffffffffffff168152505061032e6040518060400160405280600e81526020017f5061796d656e7473457363726f7700000000000000000000000000000000000081525061071b60201b60201c565b73ffffffffffffffffffffffffffffffffffffffff166101c08173ffffffffffffffffffffffffffffffffffffffff16815250506103a66040518060400160405280600c81526020017f45706f63684d616e61676572000000000000000000000000000000000000000081525061071b60201b60201c565b73ffffffffffffffffffffffffffffffffffffffff166102008173ffffffffffffffffffffffffffffffffffffffff168152505061041e6040518060400160405280600e81526020017f526577617264734d616e6167657200000000000000000000000000000000000081525061071b60201b60201c565b73ffffffffffffffffffffffffffffffffffffffff166102208173ffffffffffffffffffffffffffffffffffffffff16815250506104966040518060400160405280601181526020017f4772617068546f6b656e4761746577617900000000000000000000000000000081525061071b60201b60201c565b73ffffffffffffffffffffffffffffffffffffffff166102408173ffffffffffffffffffffffffffffffffffffffff168152505061050e6040518060400160405280600f81526020017f477261706850726f787941646d696e000000000000000000000000000000000081525061071b60201b60201c565b73ffffffffffffffffffffffffffffffffffffffff166102608173ffffffffffffffffffffffffffffffffffffffff16815250506105866040518060400160405280600881526020017f4375726174696f6e00000000000000000000000000000000000000000000000081525061071b60201b60201c565b73ffffffffffffffffffffffffffffffffffffffff166102808173ffffffffffffffffffffffffffffffffffffffff16815250506101e05173ffffffffffffffffffffffffffffffffffffffff166101805173ffffffffffffffffffffffffffffffffffffffff166101605173ffffffffffffffffffffffffffffffffffffffff167fef5021414834d86e36470f5c1cecf6544fb2bb723f2ca51a4c86fcd8c5919a436101a0516101c05161020051610220516102405161026051610280516040516106589796959493929190610b88565b60405180910390a450806102a0818152505050505050506110da565b5f6020835110156106955761068e8361081d60201b60201c565b90506106bb565b826106a58361088260201b60201c565b5f0190816106b39190610dfc565b5060ff5f1b90505b92915050565b5f7f8b73c3c69bb8fe3d512ecc4cf759cc79239f7b179b0ffacaa9a75d522b39400f60e051610100514630604051602001610700959493929190610ef2565b60405160208183030381529060405280519060200120905090565b5f5f6101e05173ffffffffffffffffffffffffffffffffffffffff1663f7641a5e84805190602001206040518263ffffffff1660e01b81526004016107609190610f43565b602060405180830381865afa15801561077b573d5f5f3e3d5ffd5b505050506040513d601f19601f8201168201806040525081019061079f9190610f5c565b90505f73ffffffffffffffffffffffffffffffffffffffff168173ffffffffffffffffffffffffffffffffffffffff1614158390610813576040517f431eb5ba00000000000000000000000000000000000000000000000000000000815260040161080a9190610fc9565b60405180910390fd5b5080915050919050565b5f5f829050601f8151111561086957826040517f305a27a90000000000000000000000000000000000000000000000000000000081526004016108609190611031565b60405180910390fd5b80518161087590611074565b5f1c175f1b915050919050565b5f819050919050565b5f604051905090565b5f5ffd5b5f5ffd5b5f5ffd5b5f5ffd5b5f601f19601f8301169050919050565b7f4e487b71000000000000000000000000000000000000000000000000000000005f52604160045260245ffd5b6108ea826108a4565b810181811067ffffffffffffffff82111715610909576109086108b4565b5b80604052505050565b5f61091b61088b565b905061092782826108e1565b919050565b5f67ffffffffffffffff821115610946576109456108b4565b5b61094f826108a4565b9050602081019050919050565b8281835e5f83830152505050565b5f61097c6109778461092c565b610912565b905082815260208101848484011115610998576109976108a0565b5b6109a384828561095c565b509392505050565b5f82601f8301126109bf576109be61089c565b5b81516109cf84826020860161096a565b91505092915050565b5f73ffffffffffffffffffffffffffffffffffffffff82169050919050565b5f610a01826109d8565b9050919050565b610a11816109f7565b8114610a1b575f5ffd5b50565b5f81519050610a2c81610a08565b92915050565b5f819050919050565b610a4481610a32565b8114610a4e575f5ffd5b50565b5f81519050610a5f81610a3b565b92915050565b5f5f5f5f60808587031215610a7d57610a7c610894565b5b5f85015167ffffffffffffffff811115610a9a57610a99610898565b5b610aa6878288016109ab565b945050602085015167ffffffffffffffff811115610ac757610ac6610898565b5b610ad3878288016109ab565b9350506040610ae487828801610a1e565b9250506060610af587828801610a51565b91505092959194509250565b5f82825260208201905092915050565b7f436f6e74726f6c6c6572000000000000000000000000000000000000000000005f82015250565b5f610b45600a83610b01565b9150610b5082610b11565b602082019050919050565b5f6020820190508181035f830152610b7281610b39565b9050919050565b610b82816109f7565b82525050565b5f60e082019050610b9b5f83018a610b79565b610ba86020830189610b79565b610bb56040830188610b79565b610bc26060830187610b79565b610bcf6080830186610b79565b610bdc60a0830185610b79565b610be960c0830184610b79565b98975050505050505050565b5f81519050919050565b7f4e487b71000000000000000000000000000000000000000000000000000000005f52602260045260245ffd5b5f6002820490506001821680610c4357607f821691505b602082108103610c5657610c55610bff565b5b50919050565b5f819050815f5260205f209050919050565b5f6020601f8301049050919050565b5f82821b905092915050565b5f60088302610cb87fffffffffffffffffffffffffffffffffffffffffffffffffffffffffffffffff82610c7d565b610cc28683610c7d565b95508019841693508086168417925050509392505050565b5f819050919050565b5f610cfd610cf8610cf384610a32565b610cda565b610a32565b9050919050565b5f819050919050565b610d1683610ce3565b610d2a610d2282610d04565b848454610c89565b825550505050565b5f5f905090565b610d41610d32565b610d4c818484610d0d565b505050565b5b81811015610d6f57610d645f82610d39565b600181019050610d52565b5050565b601f821115610db457610d8581610c5c565b610d8e84610c6e565b81016020851015610d9d578190505b610db1610da985610c6e565b830182610d51565b50505b505050565b5f82821c905092915050565b5f610dd45f1984600802610db9565b1980831691505092915050565b5f610dec8383610dc5565b9150826002028217905092915050565b610e0582610bf5565b67ffffffffffffffff811115610e1e57610e1d6108b4565b5b610e288254610c2c565b610e33828285610d73565b5f60209050601f831160018114610e64575f8415610e52578287015190505b610e5c8582610de1565b865550610ec3565b601f198416610e7286610c5c565b5f5b82811015610e9957848901518255600182019150602085019450602081019050610e74565b86831015610eb65784890151610eb2601f891682610dc5565b8355505b6001600288020188555050505b505050505050565b5f819050919050565b610edd81610ecb565b82525050565b610eec81610a32565b82525050565b5f60a082019050610f055f830188610ed4565b610f126020830187610ed4565b610f1f6040830186610ed4565b610f2c6060830185610ee3565b610f396080830184610b79565b9695505050505050565b5f602082019050610f565f830184610ed4565b92915050565b5f60208284031215610f7157610f70610894565b5b5f610f7e84828501610a1e565b91505092915050565b5f81519050919050565b5f610f9b82610f87565b610fa58185610b01565b9350610fb581856020860161095c565b610fbe816108a4565b840191505092915050565b5f6020820190508181035f830152610fe18184610f91565b905092915050565b5f82825260208201905092915050565b5f61100382610bf5565b61100d8185610fe9565b935061101d81856020860161095c565b611026816108a4565b840191505092915050565b5f6020820190508181035f8301526110498184610ff9565b905092915050565b5f819050602082019050919050565b5f61106b8251610ecb565b80915050919050565b5f61107e82610f87565b8261108884611051565b905061109381611060565b925060208210156110d3576110ce7fffffffffffffffffffffffffffffffffffffffffffffffffffffffffffffffff83602003600802610c7d565b831692505b5050919050565b60805160a05160c05160e05161010051610120516101405161016051610180516101a0516101c0516101e05161020051610220516102405161026051610280516102a051612cfe6111885f395f81816104b1015261090101525f50505f50505f50505f50505f50505f50505f61164801525f50505f61162101525f50505f61141801525f6113dd01525f611ab001525f611a8f01525f61174f01525f6117a501525f6117ce0152612cfe5ff3fe608060405234801561000f575f5ffd5b50600436106100e8575f3560e01c806365e4ad9e1161008a57806384b0196e1161006457806384b0196e146102925780639b952881146102b6578063bea5d2ab146102d4578063fee9f01f14610304576100e8565b806365e4ad9e14610202578063692209ce146102325780637f07d28314610262576100e8565b806326969c4c116100c657806326969c4c1461015457806339aa7416146101845780633a13e1af146101a057806363648817146101d2576100e8565b8063015cdd80146100ec5780631354f01914610108578063181250ff14610124575b5f5ffd5b61010660048036038101906101019190611ca0565b610320565b005b610122600480360381019061011d9190611ca0565b6104a4565b005b61013e60048036038101906101399190611cfe565b6105c8565b60405161014b9190611d7a565b60405180910390f35b61016e60048036038101906101699190611db5565b6105fe565b60405161017b9190611e0b565b60405180910390f35b61019e60048036038101906101999190611ca0565b610618565b005b6101ba60048036038101906101b59190611ca0565b6107af565b6040516101c993929190611e4d565b60405180910390f35b6101ec60048036038101906101e79190611ea0565b610800565b6040516101f99190611ee7565b60405180910390f35b61021c60048036038101906102179190611f00565b61081a565b6040516102299190611f3e565b60405180910390f35b61024c60048036038101906102479190612005565b61082d565b6040516102599190611d7a565b60405180910390f35b61027c60048036038101906102779190612076565b610844565b6040516102899190611d7a565b60405180910390f35b61029a61085a565b6040516102ad9796959493929190612234565b60405180910390f35b6102be6108ff565b6040516102cb9190611d7a565b60405180910390f35b6102ee60048036038101906102e99190611ca0565b610923565b6040516102fb9190611d7a565b60405180910390f35b61031e600480360381019061031991906122b6565b61096c565b005b8061032b3382610bd7565b5f60025f8473ffffffffffffffffffffffffffffffffffffffff1673ffffffffffffffffffffffffffffffffffffffff1681526020019081526020015f20600101541182906103b0576040517fcd3cd55d0000000000000000000000000000000000000000000000000000000081526004016103a79190611ee7565b60405180910390fd5b505f60025f8473ffffffffffffffffffffffffffffffffffffffff1673ffffffffffffffffffffffffffffffffffffffff1681526020019081526020015f206001015490505f60025f8573ffffffffffffffffffffffffffffffffffffffff1673ffffffffffffffffffffffffffffffffffffffff1681526020019081526020015f20600101819055508273ffffffffffffffffffffffffffffffffffffffff163373ffffffffffffffffffffffffffffffffffffffff167f3b4432b11b66b46d9a7b190aa989c0ae85a5395b543540220596dd94dd405ceb836040516104979190611d7a565b60405180910390a3505050565b806104af3382610bd7565b7f0000000000000000000000000000000000000000000000000000000000000000426104db9190612354565b60025f8473ffffffffffffffffffffffffffffffffffffffff1673ffffffffffffffffffffffffffffffffffffffff1681526020019081526020015f20600101819055508173ffffffffffffffffffffffffffffffffffffffff163373ffffffffffffffffffffffffffffffffffffffff167fd939049941f6a15381248e4ac0010f15efdf0f3221923711244c200b5ff2cddf60025f8673ffffffffffffffffffffffffffffffffffffffff1673ffffffffffffffffffffffffffffffffffffffff1681526020019081526020015f20600101546040516105bc9190611d7a565b60405180910390a35050565b6003602052835f5260405f20602052825f5260405f20602052815f5260405f20602052805f5260405f205f935093505050505481565b5f6106118261060c90612606565b610c2c565b9050919050565b806106233382610bd7565b5f60025f8473ffffffffffffffffffffffffffffffffffffffff1673ffffffffffffffffffffffffffffffffffffffff1681526020019081526020015f206001015490505f811183906106ac576040517fcd3cd55d0000000000000000000000000000000000000000000000000000000081526004016106a39190611ee7565b60405180910390fd5b5042811115428290916106f6576040517fbd76307f0000000000000000000000000000000000000000000000000000000081526004016106ed929190612618565b60405180910390fd5b5050600160025f8573ffffffffffffffffffffffffffffffffffffffff1673ffffffffffffffffffffffffffffffffffffffff1681526020019081526020015f206002015f6101000a81548160ff0219169083151502179055508273ffffffffffffffffffffffffffffffffffffffff163373ffffffffffffffffffffffffffffffffffffffff167f2fc91dbd92d741cae16e0315578d7f6cf77043b771692c4bd993658ecfe8942260405160405180910390a3505050565b6002602052805f5260405f205f91509050805f015f9054906101000a900473ffffffffffffffffffffffffffffffffffffffff1690806001015490806002015f9054906101000a900460ff16905083565b5f6108138261080e906126c4565b610cb3565b9050919050565b5f6108258383610cd9565b905092915050565b5f61083a85858585610dfd565b9050949350505050565b5f6108518484845f610dfd565b90509392505050565b5f6060805f5f5f606061086b6113d5565b61087361140f565b46305f5f1b5f67ffffffffffffffff8111156108925761089161238b565b5b6040519080825280602002602001820160405280156108c05781602001602082028036833780820191505090505b507f0f00000000000000000000000000000000000000000000000000000000000000959493929190965096509650965096509650965090919293949596565b7f000000000000000000000000000000000000000000000000000000000000000081565b5f60025f8373ffffffffffffffffffffffffffffffffffffffff1673ffffffffffffffffffffffffffffffffffffffff1681526020019081526020015f20600101549050919050565b5f73ffffffffffffffffffffffffffffffffffffffff1660025f8673ffffffffffffffffffffffffffffffffffffffff1673ffffffffffffffffffffffffffffffffffffffff1681526020019081526020015f205f015f9054906101000a900473ffffffffffffffffffffffffffffffffffffffff1673ffffffffffffffffffffffffffffffffffffffff161460025f8673ffffffffffffffffffffffffffffffffffffffff1673ffffffffffffffffffffffffffffffffffffffff1681526020019081526020015f205f015f9054906101000a900473ffffffffffffffffffffffffffffffffffffffff168560025f8873ffffffffffffffffffffffffffffffffffffffff1673ffffffffffffffffffffffffffffffffffffffff1681526020019081526020015f206002015f9054906101000a900460ff16909192610aeb576040517f0c83a00f000000000000000000000000000000000000000000000000000000008152600401610ae2939291906126d6565b60405180910390fd5b505050610afa8282858761144a565b3360025f8673ffffffffffffffffffffffffffffffffffffffff1673ffffffffffffffffffffffffffffffffffffffff1681526020019081526020015f205f015f6101000a81548173ffffffffffffffffffffffffffffffffffffffff021916908373ffffffffffffffffffffffffffffffffffffffff1602179055508373ffffffffffffffffffffffffffffffffffffffff163373ffffffffffffffffffffffffffffffffffffffff167f6edcdd4150e63c6c36d965976c1c37375609c8b040c50d39e7156437b80e282860405160405180910390a350505050565b610be18282610cd9565b82829091610c26576040517f1e58ab1f000000000000000000000000000000000000000000000000000000008152600401610c1d92919061270b565b60405180910390fd5b50505050565b5f610cac7f2f8962be843489018f0fe44aa06adfead655e3c10d7347a020040f9524f392d3835f015184602001518560400151866060015187608001518860a001518960c0015180519060200120604051602001610c91989796959493929190612750565b60405160208183030381529060405280519060200120611589565b9050919050565b5f5f610cc1835f0151610c2c565b9050610cd18184602001516115a2565b915050919050565b5f5f73ffffffffffffffffffffffffffffffffffffffff168373ffffffffffffffffffffffffffffffffffffffff1614158015610d9f57508273ffffffffffffffffffffffffffffffffffffffff1660025f8473ffffffffffffffffffffffffffffffffffffffff1673ffffffffffffffffffffffffffffffffffffffff1681526020019081526020015f205f015f9054906101000a900473ffffffffffffffffffffffffffffffffffffffff1673ffffffffffffffffffffffffffffffffffffffff16145b8015610df5575060025f8373ffffffffffffffffffffffffffffffffffffffff1673ffffffffffffffffffffffffffffffffffffffff1681526020019081526020015f206002015f9054906101000a900460ff16155b905092915050565b5f5f5f5f8686810190610e109190612807565b9250925092503373ffffffffffffffffffffffffffffffffffffffff16835f01516060015173ffffffffffffffffffffffffffffffffffffffff161433845f0151606001519091610e98576040517f56cbc92e000000000000000000000000000000000000000000000000000000008152600401610e8f92919061270b565b60405180910390fd5b5050610ea3836115cc565b5f835f01515f015190505f845f01516060015190505f855f01516040015190505f610ecc61161e565b73ffffffffffffffffffffffffffffffffffffffff166308ce5f68885f015160400151895f0151606001516040518363ffffffff1660e01b8152600401610f1492919061270b565b602060405180830381865afa158015610f2f573d5f5f3e3d5ffd5b505050506040513d601f19601f82011682018060405250810190610f539190612887565b90505f8111875f01516060015190610fa1576040517fde8b47c0000000000000000000000000000000000000000000000000000000008152600401610f989190611ee7565b60405180910390fd5b50505f5f90505f875f015160a001516fffffffffffffffffffffffffffffffff1690505f60035f8673ffffffffffffffffffffffffffffffffffffffff1673ffffffffffffffffffffffffffffffffffffffff1681526020019081526020015f205f8781526020019081526020015f205f8573ffffffffffffffffffffffffffffffffffffffff1673ffffffffffffffffffffffffffffffffffffffff1681526020019081526020015f205f8a5f01516020015173ffffffffffffffffffffffffffffffffffffffff1673ffffffffffffffffffffffffffffffffffffffff1681526020019081526020015f20549050808211828290916110d9576040517f7007d4a10000000000000000000000000000000000000000000000000000000081526004016110d0929190612618565b60405180910390fd5b50505f8b036110f55780826110ee91906128b2565b925061115a565b808261110191906128b2565b8b11158b828461111191906128b2565b9091611154576040517fc5602bb100000000000000000000000000000000000000000000000000000000815260040161114b929190612618565b60405180910390fd5b50508a92505b50505f8111156112c4578060035f8573ffffffffffffffffffffffffffffffffffffffff1673ffffffffffffffffffffffffffffffffffffffff1681526020019081526020015f205f8681526020019081526020015f205f8473ffffffffffffffffffffffffffffffffffffffff1673ffffffffffffffffffffffffffffffffffffffff1681526020019081526020015f205f895f01516020015173ffffffffffffffffffffffffffffffffffffffff1673ffffffffffffffffffffffffffffffffffffffff1681526020019081526020015f205f82825461123c9190612354565b9250508190555061124b611645565b73ffffffffffffffffffffffffffffffffffffffff16631230fa3e8d895f0151602001518585888c8c6040518863ffffffff1660e01b81526004016112969796959493929190612958565b5f604051808303815f87803b1580156112ad575f5ffd5b505af11580156112bf573d5f5f3e3d5ffd5b505050505b8273ffffffffffffffffffffffffffffffffffffffff16875f01516020015173ffffffffffffffffffffffffffffffffffffffff16857f481a17595c709e8f745444fb9ffc8f0b5e98458de94463971947f548e12bbdb48f868660405161132d939291906129c5565b60405180910390a48273ffffffffffffffffffffffffffffffffffffffff16875f01516020015173ffffffffffffffffffffffffffffffffffffffff16857f3943fc3b19ec289c87b57de7a8bf1448d81ced03d1806144ecaca4ba9e976056858b5f0151608001518c5f015160a001518d5f015160c001518e602001516040516113bb959493929190612a4c565b60405180910390a480975050505050505050949350505050565b606061140a5f7f000000000000000000000000000000000000000000000000000000000000000061166c90919063ffffffff16565b905090565b606061144560017f000000000000000000000000000000000000000000000000000000000000000061166c90919063ffffffff16565b905090565b42821182429091611492576040517fd7705a01000000000000000000000000000000000000000000000000000000008152600401611489929190612618565b60405180910390fd5b50505f463084336040516020016114ac9493929190612b64565b6040516020818303038152906040528051906020012090505f6114ce82611719565b90508273ffffffffffffffffffffffffffffffffffffffff166115348288888080601f0160208091040260200160405190810160405280939291908181526020018383808284375f81840152601f19601f820116905080830192505050505050506115a2565b73ffffffffffffffffffffffffffffffffffffffff1614611581576040517fe03f699800000000000000000000000000000000000000000000000000000000815260040160405180910390fd5b505050505050565b5f61159b61159561174c565b83611802565b9050919050565b5f5f5f5f6115b08686611842565b9250925092506115c08282611897565b82935050505092915050565b6115e5815f0151602001516115e083610cb3565b610cd9565b61161b576040517faa415c3300000000000000000000000000000000000000000000000000000000815260040160405180910390fd5b50565b5f7f0000000000000000000000000000000000000000000000000000000000000000905090565b5f7f0000000000000000000000000000000000000000000000000000000000000000905090565b606060ff5f1b831461168857611681836119f9565b9050611713565b81805461169490612be9565b80601f01602080910402602001604051908101604052809291908181526020018280546116c090612be9565b801561170b5780601f106116e25761010080835404028352916020019161170b565b820191905f5260205f20905b8154815290600101906020018083116116ee57829003601f168201915b505050505090505b92915050565b5f7f19457468657265756d205369676e6564204d6573736167653a0a3332000000005f5281601c52603c5f209050919050565b5f7f000000000000000000000000000000000000000000000000000000000000000073ffffffffffffffffffffffffffffffffffffffff163073ffffffffffffffffffffffffffffffffffffffff161480156117c757507f000000000000000000000000000000000000000000000000000000000000000046145b156117f4577f000000000000000000000000000000000000000000000000000000000000000090506117ff565b6117fc611a6b565b90505b90565b5f6040517f190100000000000000000000000000000000000000000000000000000000000081528360028201528260228201526042812091505092915050565b5f5f5f6041845103611882575f5f5f602087015192506040870151915060608701515f1a905061187488828585611b00565b955095509550505050611890565b5f600285515f1b9250925092505b9250925092565b5f60038111156118aa576118a96128e5565b5b8260038111156118bd576118bc6128e5565b5b03156119f557600160038111156118d7576118d66128e5565b5b8260038111156118ea576118e96128e5565b5b03611921576040517ff645eedf00000000000000000000000000000000000000000000000000000000815260040160405180910390fd5b60026003811115611935576119346128e5565b5b826003811115611948576119476128e5565b5b0361198c57805f1c6040517ffce698f70000000000000000000000000000000000000000000000000000000081526004016119839190611d7a565b60405180910390fd5b60038081111561199f5761199e6128e5565b5b8260038111156119b2576119b16128e5565b5b036119f457806040517fd78bce0c0000000000000000000000000000000000000000000000000000000081526004016119eb9190611e0b565b60405180910390fd5b5b5050565b60605f611a0583611be7565b90505f602067ffffffffffffffff811115611a2357611a2261238b565b5b6040519080825280601f01601f191660200182016040528015611a555781602001600182028036833780820191505090505b5090508181528360208201528092505050919050565b5f7f8b73c3c69bb8fe3d512ecc4cf759cc79239f7b179b0ffacaa9a75d522b39400f7f00000000000000000000000000000000000000000000000000000000000000007f00000000000000000000000000000000000000000000000000000000000000004630604051602001611ae5959493929190612c19565b60405160208183030381529060405280519060200120905090565b5f5f5f7f7fffffffffffffffffffffffffffffff5d576e7357a4501ddfe92f46681b20a0845f1c1115611b3c575f600385925092509250611bdd565b5f6001888888886040515f8152602001604052604051611b5f9493929190612c85565b6020604051602081039080840390855afa158015611b7f573d5f5f3e3d5ffd5b5050506020604051035190505f73ffffffffffffffffffffffffffffffffffffffff168173ffffffffffffffffffffffffffffffffffffffff1603611bd0575f60015f5f1b93509350935050611bdd565b805f5f5f1b935093509350505b9450945094915050565b5f5f60ff835f1c169050601f811115611c2c576040517fb3512b0c00000000000000000000000000000000000000000000000000000000815260040160405180910390fd5b80915050919050565b5f604051905090565b5f5ffd5b5f5ffd5b5f73ffffffffffffffffffffffffffffffffffffffff82169050919050565b5f611c6f82611c46565b9050919050565b611c7f81611c65565b8114611c89575f5ffd5b50565b5f81359050611c9a81611c76565b92915050565b5f60208284031215611cb557611cb4611c3e565b5b5f611cc284828501611c8c565b91505092915050565b5f819050919050565b611cdd81611ccb565b8114611ce7575f5ffd5b50565b5f81359050611cf881611cd4565b92915050565b5f5f5f5f60808587031215611d1657611d15611c3e565b5b5f611d2387828801611c8c565b9450506020611d3487828801611cea565b9350506040611d4587828801611c8c565b9250506060611d5687828801611c8c565b91505092959194509250565b5f819050919050565b611d7481611d62565b82525050565b5f602082019050611d8d5f830184611d6b565b92915050565b5f5ffd5b5f60e08284031215611dac57611dab611d93565b5b81905092915050565b5f60208284031215611dca57611dc9611c3e565b5b5f82013567ffffffffffffffff811115611de757611de6611c42565b5b611df384828501611d97565b91505092915050565b611e0581611ccb565b82525050565b5f602082019050611e1e5f830184611dfc565b92915050565b611e2d81611c65565b82525050565b5f8115159050919050565b611e4781611e33565b82525050565b5f606082019050611e605f830186611e24565b611e6d6020830185611d6b565b611e7a6040830184611e3e565b949350505050565b5f60408284031215611e9757611e96611d93565b5b81905092915050565b5f60208284031215611eb557611eb4611c3e565b5b5f82013567ffffffffffffffff811115611ed257611ed1611c42565b5b611ede84828501611e82565b91505092915050565b5f602082019050611efa5f830184611e24565b92915050565b5f5f60408385031215611f1657611f15611c3e565b5b5f611f2385828601611c8c565b9250506020611f3485828601611c8c565b9150509250929050565b5f602082019050611f515f830184611e3e565b92915050565b60038110611f63575f5ffd5b50565b5f81359050611f7481611f57565b92915050565b5f5ffd5b5f5ffd5b5f5ffd5b5f5f83601f840112611f9b57611f9a611f7a565b5b8235905067ffffffffffffffff811115611fb857611fb7611f7e565b5b602083019150836001820283011115611fd457611fd3611f82565b5b9250929050565b611fe481611d62565b8114611fee575f5ffd5b50565b5f81359050611fff81611fdb565b92915050565b5f5f5f5f6060858703121561201d5761201c611c3e565b5b5f61202a87828801611f66565b945050602085013567ffffffffffffffff81111561204b5761204a611c42565b5b61205787828801611f86565b9350935050604061206a87828801611ff1565b91505092959194509250565b5f5f5f6040848603121561208d5761208c611c3e565b5b5f61209a86828701611f66565b935050602084013567ffffffffffffffff8111156120bb576120ba611c42565b5b6120c786828701611f86565b92509250509250925092565b5f7fff0000000000000000000000000000000000000000000000000000000000000082169050919050565b612107816120d3565b82525050565b5f81519050919050565b5f82825260208201905092915050565b8281835e5f83830152505050565b5f601f19601f8301169050919050565b5f61214f8261210d565b6121598185612117565b9350612169818560208601612127565b61217281612135565b840191505092915050565b5f81519050919050565b5f82825260208201905092915050565b5f819050602082019050919050565b6121af81611d62565b82525050565b5f6121c083836121a6565b60208301905092915050565b5f602082019050919050565b5f6121e28261217d565b6121ec8185612187565b93506121f783612197565b805f5b8381101561222757815161220e88826121b5565b9750612219836121cc565b9250506001810190506121fa565b5085935050505092915050565b5f60e0820190506122475f83018a6120fe565b81810360208301526122598189612145565b9050818103604083015261226d8188612145565b905061227c6060830187611d6b565b6122896080830186611e24565b61229660a0830185611dfc565b81810360c08301526122a881846121d8565b905098975050505050505050565b5f5f5f5f606085870312156122ce576122cd611c3e565b5b5f6122db87828801611c8c565b94505060206122ec87828801611ff1565b935050604085013567ffffffffffffffff81111561230d5761230c611c42565b5b61231987828801611f86565b925092505092959194509250565b7f4e487b71000000000000000000000000000000000000000000000000000000005f52601160045260245ffd5b5f61235e82611d62565b915061236983611d62565b925082820190508082111561238157612380612327565b5b92915050565b5f5ffd5b7f4e487b71000000000000000000000000000000000000000000000000000000005f52604160045260245ffd5b6123c182612135565b810181811067ffffffffffffffff821117156123e0576123df61238b565b5b80604052505050565b5f6123f2611c35565b90506123fe82826123b8565b919050565b5f5ffd5b5f67ffffffffffffffff82169050919050565b61242381612407565b811461242d575f5ffd5b50565b5f8135905061243e8161241a565b92915050565b5f6fffffffffffffffffffffffffffffffff82169050919050565b61246881612444565b8114612472575f5ffd5b50565b5f813590506124838161245f565b92915050565b5f5ffd5b5f67ffffffffffffffff8211156124a7576124a661238b565b5b6124b082612135565b9050602081019050919050565b828183375f83830152505050565b5f6124dd6124d88461248d565b6123e9565b9050828152602081018484840111156124f9576124f8612489565b5b6125048482856124bd565b509392505050565b5f82601f8301126125205761251f611f7a565b5b81356125308482602086016124cb565b91505092915050565b5f60e0828403121561254e5761254d612387565b5b61255860e06123e9565b90505f61256784828501611cea565b5f83015250602061257a84828501611c8c565b602083015250604061258e84828501611c8c565b60408301525060606125a284828501611c8c565b60608301525060806125b684828501612430565b60808301525060a06125ca84828501612475565b60a08301525060c082013567ffffffffffffffff8111156125ee576125ed612403565b5b6125fa8482850161250c565b60c08301525092915050565b5f6126113683612539565b9050919050565b5f60408201905061262b5f830185611d6b565b6126386020830184611d6b565b9392505050565b5f6040828403121561265457612653612387565b5b61265e60406123e9565b90505f82013567ffffffffffffffff81111561267d5761267c612403565b5b61268984828501612539565b5f83015250602082013567ffffffffffffffff8111156126ac576126ab612403565b5b6126b88482850161250c565b60208301525092915050565b5f6126cf368361263f565b9050919050565b5f6060820190506126e95f830186611e24565b6126f66020830185611e24565b6127036040830184611e3e565b949350505050565b5f60408201905061271e5f830185611e24565b61272b6020830184611e24565b9392505050565b61273b81612407565b82525050565b61274a81612444565b82525050565b5f610100820190506127645f83018b611dfc565b612771602083018a611dfc565b61277e6040830189611e24565b61278b6060830188611e24565b6127986080830187611e24565b6127a560a0830186612732565b6127b260c0830185612741565b6127bf60e0830184611dfc565b9998505050505050505050565b5f6127d682611c46565b9050919050565b6127e6816127cc565b81146127f0575f5ffd5b50565b5f81359050612801816127dd565b92915050565b5f5f5f6060848603121561281e5761281d611c3e565b5b5f84013567ffffffffffffffff81111561283b5761283a611c42565b5b6128478682870161263f565b935050602061285886828701611ff1565b9250506040612869868287016127f3565b9150509250925092565b5f8151905061288181611fdb565b92915050565b5f6020828403121561289c5761289b611c3e565b5b5f6128a984828501612873565b91505092915050565b5f6128bc82611d62565b91506128c783611d62565b92508282039050818111156128df576128de612327565b5b92915050565b7f4e487b71000000000000000000000000000000000000000000000000000000005f52602160045260245ffd5b60038110612923576129226128e5565b5b50565b5f81905061293382612912565b919050565b5f61294282612926565b9050919050565b61295281612938565b82525050565b5f60e08201905061296b5f83018a612949565b6129786020830189611e24565b6129856040830188611e24565b6129926060830187611d6b565b61299f6080830186611e24565b6129ac60a0830185611d6b565b6129b960c0830184611e24565b98975050505050505050565b5f6060820190506129d85f830186612949565b6129e56020830185611e24565b6129f26040830184611d6b565b949350505050565b5f81519050919050565b5f82825260208201905092915050565b5f612a1e826129fa565b612a288185612a04565b9350612a38818560208601612127565b612a4181612135565b840191505092915050565b5f60a082019050612a5f5f830188611e24565b612a6c6020830187612732565b612a796040830186612741565b8181036060830152612a8b8185612a14565b90508181036080830152612a9f8184612a14565b90509695505050505050565b5f819050919050565b612ac5612ac082611d62565b612aab565b82525050565b5f8160601b9050919050565b5f612ae182612acb565b9050919050565b5f612af282612ad7565b9050919050565b612b0a612b0582611c65565b612ae8565b82525050565b5f81905092915050565b7f617574686f72697a655369676e657250726f6f660000000000000000000000005f82015250565b5f612b4e601483612b10565b9150612b5982612b1a565b601482019050919050565b5f612b6f8287612ab4565b602082019150612b7f8286612af9565b601482019150612b8e82612b42565b9150612b9a8285612ab4565b602082019150612baa8284612af9565b60148201915081905095945050505050565b7f4e487b71000000000000000000000000000000000000000000000000000000005f52602260045260245ffd5b5f6002820490506001821680612c0057607f821691505b602082108103612c1357612c12612bbc565b5b50919050565b5f60a082019050612c2c5f830188611dfc565b612c396020830187611dfc565b612c466040830186611dfc565b612c536060830185611d6b565b612c606080830184611e24565b9695505050505050565b5f60ff82169050919050565b612c7f81612c6a565b82525050565b5f608082019050612c985f830187611dfc565b612ca56020830186612c76565b612cb26040830185611dfc565b612cbf6060830184611dfc565b9594505050505056fea2646970667358221220122da86c99f143cdba1d3286f03b0db4673756dd8e55707a923af1e5d32c6aff64736f6c634300081b0033","linkReferences":{}},"methodIdentifiers":{"REVOKE_AUTHORIZATION_THAWING_PERIOD()":"9b952881","authorizations(address)":"3a13e1af","authorizeSigner(address,uint256,bytes)":"fee9f01f","cancelThawSigner(address)":"015cdd80","collect(uint8,bytes)":"7f07d283","collect(uint8,bytes,uint256)":"692209ce","eip712Domain()":"84b0196e","encodeRAV((bytes32,address,address,address,uint64,uint128,bytes))":"26969c4c","getThawEnd(address)":"bea5d2ab","isAuthorized(address,address)":"65e4ad9e","recoverRAVSigner(((bytes32,address,address,address,uint64,uint128,bytes),bytes))":"63648817","revokeAuthorizedSigner(address)":"39aa7416","thawSigner(address)":"1354f019","tokensCollected(address,bytes32,address,address)":"181250ff"},"id":9}