{"abi":[{"type":"function","name":"acceptProvisionParameters","inputs":[{"name":"serviceProvider","type":"address","internalType":"address"}],"outputs":[],"stateMutability":"nonpayable"},{"type":"function","name":"addToDelegationPool","inputs":[{"name":"serviceProvider","type":"address","internalType":"address"},{"name":"dataService","type":"address","internalType":"address"},{"name":"tokens","type":"uint256","internalType":"uint256"}],"outputs":[],"stateMutability":"nonpayable"},{"type":"function","name":"getDelegationFeeCut","inputs":[{"name":"serviceProvider","type":"address","internalType":"address"},{"name":"dataService","type":"address","internalType":"address"},{"name":"paymentType","type":"uint8","internalType":"enum IGraphPayments.PaymentTypes"}],"outputs":[{"name":"","type":"uint256","internalType":"uint256"}],"stateMutability":"view"},{"type":"function","name":"getDelegationPool","inputs":[{"name":"serviceProvider","type":"address","internalType":"address"},{"name":"dataService","type":"address","internalType":"address"}],"outputs":[{"name":"","type":"tuple","internalType":"struct IHorizonStakingTypes.DelegationPool","components":[{"name":"tokens","type":"uint256","internalType":"uint256"},{"name":"shares","type":"uint256","internalType":"uint256"},{"name":"tokensThawing","type":"uint256","internalType":"uint256"},{"name":"sharesThawing","type":"uint256","internalType":"uint256"},{"name":"thawingNonce","type":"uint256","internalType":"uint256"}]}],"stateMutability":"view"},{"type":"function","name":"getProviderTokensAvailable","inputs":[{"name":"serviceProvider","type":"address","internalType":"address"},{"name":"verifier","type":"address","internalType":"address"}],"outputs":[{"name":"","type":"uint256","internalType":"uint256"}],"stateMutability":"view"},{"type":"function","name":"getProvision","inputs":[{"name":"serviceProvider","type":"address","internalType":"address"},{"name":"dataService","type":"address","internalType":"address"}],"outputs":[{"name":"provision","type":"tuple","internalType":"struct IHorizonStakingTypes.Provision","components":[{"name":"tokens","type":"uint256","internalType":"uint256"},{"name":"tokensThawing","type":"uint256","internalType":"uint256"},{"name":"sharesThawing","type":"uint256","internalType":"uint256"},{"name":"maxVerifierCut","type":"uint32","internalType":"uint32"},{"name":"thawingPeriod","type":"uint64","internalType":"uint64"},{"name":"createdAt","type":"uint64","internalType":"uint64"},{"name":"maxVerifierCutPending","type":"uint32","internalType":"uint32"},{"name":"thawingPeriodPending","type":"uint64","internalType":"uint64"},{"name":"lastParametersStagedAt","type":"uint256","internalType":"uint256"},{"name":"thawingNonce","type":"uint256","internalType":"uint256"}]}],"stateMutability":"view"},{"type":"function","name":"graphToken","inputs":[],"outputs":[{"name":"","type":"address","internalType":"contract IERC20"}],"stateMutability":"view"},{"type":"function","name":"isAuthorized","inputs":[{"name":"serviceProvider","type":"address","internalType":"address"},{"name":"dataService","type":"address","internalType":"address"},{"name":"caller","type":"address","internalType":"address"}],"outputs":[{"name":"","type":"bool","internalType":"bool"}],"stateMutability":"view"},{"type":"function","name":"setDelegationFeeCut","inputs":[{"name":"serviceProvider","type":"address","internalType":"address"},{"name":"dataService","type":"address","internalType":"address"},{"name":"paymentType","type":"uint8","internalType":"enum IGraphPayments.PaymentTypes"},{"name":"cut","type":"uint256","internalType":"uint256"}],"outputs":[],"stateMutability":"nonpayable"},{"type":"function","name":"setGraphToken","inputs":[{"name":"token","type":"address","internalType":"address"}],"outputs":[],"stateMutability":"nonpayable"},{"type":"function","name":"setOperator","inputs":[{"name":"serviceProvider","type":"address","internalType":"address"},{"name":"dataService","type":"address","internalType":"address"},{"name":"operator","type":"address","internalType":"address"},{"name":"authorized","type":"bool","internalType":"bool"}],"outputs":[],"stateMutability":"nonpayable"},{"type":"function","name":"setProvision","inputs":[{"name":"serviceProvider","type":"address","internalType":"address"},{"name":"dataService","type":"address","internalType":"address"},{"name":"tokens","type":"uint256","internalType":"uint256"},{"name":"maxVerifierCut","type":"uint32","internalType":"uint32"},{"name":"thawingPeriod","type":"uint64","internalType":"uint64"}],"outputs":[],"stateMutability":"nonpayable"},{"type":"function","name":"stakeTo","inputs":[{"name":"serviceProvider","type":"address","internalType":"address"},{"name":"tokens","type":"uint256","internalType":"uint256"}],"outputs":[],"stateMutability":"nonpayable"}],"bytecode":{"object":"0x6080604052348015600e575f5ffd5b506118348061001c5f395ff3fe608060405234801561000f575f5ffd5b50600436106100cd575f3560e01c80637573ef4f1161008a578063a5aa068c11610064578063a5aa068c14610231578063b430c5ea1461024d578063ca94b0e91461026b578063d5f9a58f14610287576100cd565b80637573ef4f146101b55780637c145cc7146101e5578063a2a3172214610215576100cd565b806308ce5f68146100d157806325d9897e1461010157806331aca9ed146101315780633a78b7321461014d57806342c5169314610169578063561285e414610185575b5f5ffd5b6100eb60048036038101906100e69190611090565b6102a3565b6040516100f891906110e6565b60405180910390f35b61011b60048036038101906101169190611090565b61033a565b6040516101289190611218565b60405180910390f35b61014b60048036038101906101469190611267565b610508565b005b610167600480360381019061016291906112cb565b6105d8565b005b610183600480360381019061017e9190611343565b6106cf565b005b61019f600480360381019061019a9190611090565b610785565b6040516101ac919061140d565b60405180910390f35b6101cf60048036038101906101ca9190611426565b610849565b6040516101dc91906110e6565b60405180910390f35b6101ff60048036038101906101fa9190611476565b6108ff565b60405161020c91906114d5565b60405180910390f35b61022f600480360381019061022a91906114ee565b610a06565b005b61024b600480360381019061024691906112cb565b610b9a565b005b610255610bdd565b6040516102629190611587565b60405180910390f35b610285600480360381019061028091906115a0565b610c02565b005b6102a1600480360381019061029c9190611644565b610d98565b005b5f5f5f5f8573ffffffffffffffffffffffffffffffffffffffff1673ffffffffffffffffffffffffffffffffffffffff1681526020019081526020015f205f8473ffffffffffffffffffffffffffffffffffffffff1673ffffffffffffffffffffffffffffffffffffffff1681526020019081526020015f2090508060010154815f015461033191906116e8565b91505092915050565b610342610f95565b5f5f5f8573ffffffffffffffffffffffffffffffffffffffff1673ffffffffffffffffffffffffffffffffffffffff1681526020019081526020015f205f8473ffffffffffffffffffffffffffffffffffffffff1673ffffffffffffffffffffffffffffffffffffffff1681526020019081526020015f209050805f0154825f01818152505080600101548260200181815250508060020154826040018181525050806003015f9054906101000a900463ffffffff16826060019063ffffffff16908163ffffffff16815250508060030160049054906101000a900467ffffffffffffffff16826080019067ffffffffffffffff16908167ffffffffffffffff168152505080600301600c9054906101000a900467ffffffffffffffff168260a0019067ffffffffffffffff16908167ffffffffffffffff16815250508060030160149054906101000a900463ffffffff168260c0019063ffffffff16908163ffffffff16815250508060030160189054906101000a900467ffffffffffffffff168260e0019067ffffffffffffffff16908167ffffffffffffffff16815250508060040154826101000181815250508060050154826101200181815250505092915050565b8060035f8673ffffffffffffffffffffffffffffffffffffffff1673ffffffffffffffffffffffffffffffffffffffff1681526020019081526020015f205f8573ffffffffffffffffffffffffffffffffffffffff1673ffffffffffffffffffffffffffffffffffffffff1681526020019081526020015f205f8473ffffffffffffffffffffffffffffffffffffffff1673ffffffffffffffffffffffffffffffffffffffff1681526020019081526020015f205f6101000a81548160ff02191690831515021790555050505050565b5f5f5f8373ffffffffffffffffffffffffffffffffffffffff1673ffffffffffffffffffffffffffffffffffffffff1681526020019081526020015f205f3373ffffffffffffffffffffffffffffffffffffffff1673ffffffffffffffffffffffffffffffffffffffff1681526020019081526020015f2090508060030160149054906101000a900463ffffffff16816003015f6101000a81548163ffffffff021916908363ffffffff1602179055508060030160189054906101000a900467ffffffffffffffff168160030160046101000a81548167ffffffffffffffff021916908367ffffffffffffffff1602179055505050565b8060025f8673ffffffffffffffffffffffffffffffffffffffff1673ffffffffffffffffffffffffffffffffffffffff1681526020019081526020015f205f8573ffffffffffffffffffffffffffffffffffffffff1673ffffffffffffffffffffffffffffffffffffffff1681526020019081526020015f205f84600281111561075c5761075b61171b565b5b600281111561076e5761076d61171b565b5b81526020019081526020015f208190555050505050565b61078d611008565b60015f8473ffffffffffffffffffffffffffffffffffffffff1673ffffffffffffffffffffffffffffffffffffffff1681526020019081526020015f205f8373ffffffffffffffffffffffffffffffffffffffff1673ffffffffffffffffffffffffffffffffffffffff1681526020019081526020015f206040518060a00160405290815f8201548152602001600182015481526020016002820154815260200160038201548152602001600482015481525050905092915050565b5f60025f8573ffffffffffffffffffffffffffffffffffffffff1673ffffffffffffffffffffffffffffffffffffffff1681526020019081526020015f205f8473ffffffffffffffffffffffffffffffffffffffff1673ffffffffffffffffffffffffffffffffffffffff1681526020019081526020015f205f8360028111156108d6576108d561171b565b5b60028111156108e8576108e761171b565b5b81526020019081526020015f205490509392505050565b5f8373ffffffffffffffffffffffffffffffffffffffff168273ffffffffffffffffffffffffffffffffffffffff160361093c57600190506109ff565b60035f8573ffffffffffffffffffffffffffffffffffffffff1673ffffffffffffffffffffffffffffffffffffffff1681526020019081526020015f205f8473ffffffffffffffffffffffffffffffffffffffff1673ffffffffffffffffffffffffffffffffffffffff1681526020019081526020015f205f8373ffffffffffffffffffffffffffffffffffffffff1673ffffffffffffffffffffffffffffffffffffffff1681526020019081526020015f205f9054906101000a900460ff1690505b9392505050565b805f5f8473ffffffffffffffffffffffffffffffffffffffff1673ffffffffffffffffffffffffffffffffffffffff1681526020019081526020015f205f3373ffffffffffffffffffffffffffffffffffffffff1673ffffffffffffffffffffffffffffffffffffffff1681526020019081526020015f205f015f828254610a8e9190611748565b925050819055505f73ffffffffffffffffffffffffffffffffffffffff1660045f9054906101000a900473ffffffffffffffffffffffffffffffffffffffff1673ffffffffffffffffffffffffffffffffffffffff1614158015610af157505f81115b15610b965760045f9054906101000a900473ffffffffffffffffffffffffffffffffffffffff1673ffffffffffffffffffffffffffffffffffffffff166323b872dd3330846040518463ffffffff1660e01b8152600401610b549392919061178a565b6020604051808303815f875af1158015610b70573d5f5f3e3d5ffd5b505050506040513d601f19601f82011682018060405250810190610b9491906117d3565b505b5050565b8060045f6101000a81548173ffffffffffffffffffffffffffffffffffffffff021916908373ffffffffffffffffffffffffffffffffffffffff16021790555050565b60045f9054906101000a900473ffffffffffffffffffffffffffffffffffffffff1681565b8060015f8573ffffffffffffffffffffffffffffffffffffffff1673ffffffffffffffffffffffffffffffffffffffff1681526020019081526020015f205f8473ffffffffffffffffffffffffffffffffffffffff1673ffffffffffffffffffffffffffffffffffffffff1681526020019081526020015f205f015f828254610c8b9190611748565b925050819055505f73ffffffffffffffffffffffffffffffffffffffff1660045f9054906101000a900473ffffffffffffffffffffffffffffffffffffffff1673ffffffffffffffffffffffffffffffffffffffff1614158015610cee57505f81115b15610d935760045f9054906101000a900473ffffffffffffffffffffffffffffffffffffffff1673ffffffffffffffffffffffffffffffffffffffff166323b872dd3330846040518463ffffffff1660e01b8152600401610d519392919061178a565b6020604051808303815f875af1158015610d6d573d5f5f3e3d5ffd5b505050506040513d601f19601f82011682018060405250810190610d9191906117d3565b505b505050565b6040518061014001604052808481526020015f81526020015f81526020018363ffffffff1681526020018267ffffffffffffffff1681526020014267ffffffffffffffff1681526020018363ffffffff1681526020018267ffffffffffffffff1681526020015f81526020015f8152505f5f8773ffffffffffffffffffffffffffffffffffffffff1673ffffffffffffffffffffffffffffffffffffffff1681526020019081526020015f205f8673ffffffffffffffffffffffffffffffffffffffff1673ffffffffffffffffffffffffffffffffffffffff1681526020019081526020015f205f820151815f015560208201518160010155604082015181600201556060820151816003015f6101000a81548163ffffffff021916908363ffffffff16021790555060808201518160030160046101000a81548167ffffffffffffffff021916908367ffffffffffffffff16021790555060a082015181600301600c6101000a81548167ffffffffffffffff021916908367ffffffffffffffff16021790555060c08201518160030160146101000a81548163ffffffff021916908363ffffffff16021790555060e08201518160030160186101000a81548167ffffffffffffffff021916908367ffffffffffffffff160217905550610100820151816004015561012082015181600501559050505050505050565b6040518061014001604052805f81526020015f81526020015f81526020015f63ffffffff1681526020015f67ffffffffffffffff1681526020015f67ffffffffffffffff1681526020015f63ffffffff1681526020015f67ffffffffffffffff1681526020015f81526020015f81525090565b6040518060a001604052805f81526020015f81526020015f81526020015f81526020015f81525090565b5f5ffd5b5f73ffffffffffffffffffffffffffffffffffffffff82169050919050565b5f61105f82611036565b9050919050565b61106f81611055565b8114611079575f5ffd5b50565b5f8135905061108a81611066565b92915050565b5f5f604083850312156110a6576110a5611032565b5b5f6110b38582860161107c565b92505060206110c48582860161107c565b9150509250929050565b5f819050919050565b6110e0816110ce565b82525050565b5f6020820190506110f95f8301846110d7565b92915050565b611108816110ce565b82525050565b5f63ffffffff82169050919050565b6111268161110e565b82525050565b5f67ffffffffffffffff82169050919050565b6111488161112c565b82525050565b61014082015f8201516111635f8501826110ff565b50602082015161117660208501826110ff565b50604082015161118960408501826110ff565b50606082015161119c606085018261111d565b5060808201516111af608085018261113f565b5060a08201516111c260a085018261113f565b5060c08201516111d560c085018261111d565b5060e08201516111e860e085018261113f565b506101008201516111fd6101008501826110ff565b506101208201516112126101208501826110ff565b50505050565b5f6101408201905061122c5f83018461114e565b92915050565b5f8115159050919050565b61124681611232565b8114611250575f5ffd5b50565b5f813590506112618161123d565b92915050565b5f5f5f5f6080858703121561127f5761127e611032565b5b5f61128c8782880161107c565b945050602061129d8782880161107c565b93505060406112ae8782880161107c565b92505060606112bf87828801611253565b91505092959194509250565b5f602082840312156112e0576112df611032565b5b5f6112ed8482850161107c565b91505092915050565b60038110611302575f5ffd5b50565b5f81359050611313816112f6565b92915050565b611322816110ce565b811461132c575f5ffd5b50565b5f8135905061133d81611319565b92915050565b5f5f5f5f6080858703121561135b5761135a611032565b5b5f6113688782880161107c565b94505060206113798782880161107c565b935050604061138a87828801611305565b925050606061139b8782880161132f565b91505092959194509250565b60a082015f8201516113bb5f8501826110ff565b5060208201516113ce60208501826110ff565b5060408201516113e160408501826110ff565b5060608201516113f460608501826110ff565b50608082015161140760808501826110ff565b50505050565b5f60a0820190506114205f8301846113a7565b92915050565b5f5f5f6060848603121561143d5761143c611032565b5b5f61144a8682870161107c565b935050602061145b8682870161107c565b925050604061146c86828701611305565b9150509250925092565b5f5f5f6060848603121561148d5761148c611032565b5b5f61149a8682870161107c565b93505060206114ab8682870161107c565b92505060406114bc8682870161107c565b9150509250925092565b6114cf81611232565b82525050565b5f6020820190506114e85f8301846114c6565b92915050565b5f5f6040838503121561150457611503611032565b5b5f6115118582860161107c565b92505060206115228582860161132f565b9150509250929050565b5f819050919050565b5f61154f61154a61154584611036565b61152c565b611036565b9050919050565b5f61156082611535565b9050919050565b5f61157182611556565b9050919050565b61158181611567565b82525050565b5f60208201905061159a5f830184611578565b92915050565b5f5f5f606084860312156115b7576115b6611032565b5b5f6115c48682870161107c565b93505060206115d58682870161107c565b92505060406115e68682870161132f565b9150509250925092565b6115f98161110e565b8114611603575f5ffd5b50565b5f81359050611614816115f0565b92915050565b6116238161112c565b811461162d575f5ffd5b50565b5f8135905061163e8161161a565b92915050565b5f5f5f5f5f60a0868803121561165d5761165c611032565b5b5f61166a8882890161107c565b955050602061167b8882890161107c565b945050604061168c8882890161132f565b935050606061169d88828901611606565b92505060806116ae88828901611630565b9150509295509295909350565b7f4e487b71000000000000000000000000000000000000000000000000000000005f52601160045260245ffd5b5f6116f2826110ce565b91506116fd836110ce565b9250828203905081811115611715576117146116bb565b5b92915050565b7f4e487b71000000000000000000000000000000000000000000000000000000005f52602160045260245ffd5b5f611752826110ce565b915061175d836110ce565b9250828201905080821115611775576117746116bb565b5b92915050565b61178481611055565b82525050565b5f60608201905061179d5f83018661177b565b6117aa602083018561177b565b6117b760408301846110d7565b949350505050565b5f815190506117cd8161123d565b92915050565b5f602082840312156117e8576117e7611032565b5b5f6117f5848285016117bf565b9150509291505056fea264697066735822122091b59711a0c95e7cf861e20d0741196ec18ea1d20a33eeaa3942720cfa49478b64736f6c634300081b0033","linkReferences":{}},"methodIdentifiers":{"acceptProvisionParameters(address)":"3a78b732","addToDelegationPool(address,address,uint256)":"ca94b0e9","getDelegationFeeCut(address,address,uint8)":"7573ef4f","getDelegationPool(address,address)":"561285e4","getProviderTokensAvailable(address,address)":"08ce5f68","getProvision(address,address)":"25d9897e","graphToken()":"b430c5ea","isAuthorized(address,address,address)":"7c145cc7","setDelegationFeeCut(address,address,uint8,uint256)":"42c51693","setGraphToken(address)":"a5aa068c","setOperator(address,address,address,bool)":"31aca9ed","setProvision(address,address,uint256,uint32,uint64)":"d5f9a58f","stakeTo(address,uint256)":"a2a31722"},"id":79}