{"abi":[{"type":"function","name":"getCurationPoolSignal","inputs":[{"name":"","type":"bytes32","internalType":"bytes32"}],"outputs":[{"name":"","type":"uint256","internalType":"uint256"}],"stateMutability":"pure"},{"type":"function","name":"isCurated","inputs":[{"name":"","type":"bytes32","internalType":"bytes32"}],"outputs":[{"name":"","type":"bool","internalType":"bool"}],"stateMutability":"pure"}],"bytecode":{"object":"0x6080604052348015600e575f5ffd5b506101a68061001c5f395ff3fe608060405234801561000f575f5ffd5b5060043610610034575f3560e01c80634c4ea0ed1461003857806399439fee14610068575b5f5ffd5b610052600480360381019061004d91906100e1565b610098565b60405161005f9190610126565b60405180910390f35b610082600480360381019061007d91906100e1565b6100a1565b60405161008f9190610157565b60405180910390f35b5f5f9050919050565b5f5f9050919050565b5f5ffd5b5f819050919050565b6100c0816100ae565b81146100ca575f5ffd5b50565b5f813590506100db816100b7565b92915050565b5f602082840312156100f6576100f56100aa565b5b5f610103848285016100cd565b91505092915050565b5f8115159050919050565b6101208161010c565b82525050565b5f6020820190506101395f830184610117565b92915050565b5f819050919050565b6101518161013f565b82525050565b5f60208201905061016a5f830184610148565b9291505056fea26469706673582212206ea555ab799b3d85c6e62470c712a62fb7d75dbf0cac26a3fdc0baf7b2a4c22f64736f6c634300081b0033","linkReferences":{}},"methodIdentifiers":{"getCurationPoolSignal(bytes32)":"99439fee","isCurated(bytes32)":"4c4ea0ed"},"id":79}