{"abi":[{"type":"constructor","inputs":[],"stateMutability":"nonpayable"},{"type":"function","name":"addMinter","inputs":[{"name":"","type":"address","internalType":"address"}],"outputs":[],"stateMutability":"nonpayable"},{"type":"function","name":"allowance","inputs":[{"name":"owner","type":"address","internalType":"address"},{"name":"spender","type":"address","internalType":"address"}],"outputs":[{"name":"","type":"uint256","internalType":"uint256"}],"stateMutability":"view"},{"type":"function","name":"approve","inputs":[{"name":"spender","type":"address","internalType":"address"},{"name":"value","type":"uint256","internalType":"uint256"}],"outputs":[{"name":"","type":"bool","internalType":"bool"}],"stateMutability":"nonpayable"},{"type":"function","name":"balanceOf","inputs":[{"name":"account","type":"address","internalType":"address"}],"outputs":[{"name":"","type":"uint256","internalType":"uint256"}],"stateMutability":"view"},{"type":"function","name":"burn","inputs":[{"name":"amount","type":"uint256","internalType":"uint256"}],"outputs":[],"stateMutability":"nonpayable"},{"type":"function","name":"burnFrom","inputs":[{"name":"from","type":"address","internalType":"address"},{"name":"amount","type":"uint256","internalType":"uint256"}],"outputs":[],"stateMutability":"nonpayable"},{"type":"function","name":"decimals","inputs":[],"outputs":[{"name":"","type":"uint8","internalType":"uint8"}],"stateMutability":"view"},{"type":"function","name":"decreaseAllowance","inputs":[{"name":"spender","type":"address","internalType":"address"},{"name":"subtractedValue","type":"uint256","internalType":"uint256"}],"outputs":[{"name":"","type":"bool","internalType":"bool"}],"stateMutability":"nonpayable"},{"type":"function","name":"increaseAllowance","inputs":[{"name":"spender","type":"address","internalType":"address"},{"name":"addedValue","type":"uint256","internalType":"uint256"}],"outputs":[{"name":"","type":"bool","internalType":"bool"}],"stateMutability":"nonpayable"},{"type":"function","name":"isMinter","inputs":[{"name":"","type":"address","internalType":"address"}],"outputs":[{"name":"","type":"bool","internalType":"bool"}],"stateMutability":"pure"},{"type":"function","name":"mint","inputs":[{"name":"to","type":"address","internalType":"address"},{"name":"amount","type":"uint256","internalType":"uint256"}],"outputs":[],"stateMutability":"nonpayable"},{"type":"function","name":"name","inputs":[],"outputs":[{"name":"","type":"string","internalType":"string"}],"stateMutability":"view"},{"type":"function","name":"permit","inputs":[{"name":"","type":"address","internalType":"address"},{"name":"","type":"address","internalType":"address"},{"name":"","type":"uint256","internalType":"uint256"},{"name":"","type":"uint256","internalType":"uint256"},{"name":"","type":"uint8","internalType":"uint8"},{"name":"","type":"bytes32","internalType":"bytes32"},{"name":"","type":"bytes32","internalType":"bytes32"}],"outputs":[],"stateMutability":"nonpayable"},{"type":"function","name":"removeMinter","inputs":[{"name":"","type":"address","internalType":"address"}],"outputs":[],"stateMutability":"nonpayable"},{"type":"function","name":"renounceMinter","inputs":[],"outputs":[],"stateMutability":"nonpayable"},{"type":"function","name":"symbol","inputs":[],"outputs":[{"name":"","type":"string","internalType":"string"}],"stateMutability":"view"},{"type":"function","name":"totalSupply","inputs":[],"outputs":[{"name":"","type":"uint256","internalType":"uint256"}],"stateMutability":"view"},{"type":"function","name":"transfer","inputs":[{"name":"to","type":"address","internalType":"address"},{"name":"value","type":"uint256","internalType":"uint256"}],"outputs":[{"name":"","type":"bool","internalType":"bool"}],"stateMutability":"nonpayable"},{"type":"function","name":"transferFrom","inputs":[{"name":"from","type":"address","internalType":"address"},{"name":"to","type":"address","internalType":"address"},{"name":"value","type":"uint256","internalType":"uint256"}],"outputs":[{"name":"","type":"bool","internalType":"bool"}],"stateMutability":"nonpayable"},{"type":"event","name":"Approval","inputs":[{"name":"owner","type":"address","indexed":true,"internalType":"address"},{"name":"spender","type":"address","indexed":true,"internalType":"address"},{"name":"value","type":"uint256","indexed":false,"internalType":"uint256"}],"anonymous":false},{"type":"event","name":"Transfer","inputs":[{"name":"from","type":"address","indexed":true,"internalType":"address"},{"name":"to","type":"address","indexed":true,"internalType":"address"},{"name":"value","type":"uint256","indexed":false,"internalType":"uint256"}],"anonymous":false},{"type":"error","name":"ERC20InsufficientAllowance","inputs":[{"name":"spender","type":"address","internalType":"address"},{"name":"allowance","type":"uint256","internalType":"uint256"},{"name":"needed","type":"uint256","internalType":"uint256"}]},{"type":"error","name":"ERC20InsufficientBalance","inputs":[{"name":"sender","type":"address","internalType":"address"},{"name":"balance","type":"uint256","internalType":"uint256"},{"name":"needed","type":"uint256","internalType":"uint256"}]},{"type":"error","name":"ERC20InvalidApprover","inputs":[{"name":"approver","type":"address","internalType":"address"}]},{"type":"error","name":"ERC20InvalidReceiver","inputs":[{"name":"receiver","type":"address","internalType":"address"}]},{"type":"error","name":"ERC20InvalidSender","inputs":[{"name":"sender","type":"address","internalType":"address"}]},{"type":"error","name":"ERC20InvalidSpender","inputs":[{"name":"spender","type":"address","internalType":"address"}]}],"bytecode":{"object":"0x608060405234801561000f575f5ffd5b506040518060400160405280600b81526020017f477261706820546f6b656e0000000000000000000000000000000000000000008152506040518060400160405280600381526020017f4752540000000000000000000000000000000000000000000000000000000000815250816003908161008b919061059a565b50806004908161009b919061059a565b5050506100ba336b033b2e3c9fd0803ce80000006100bf60201b60201c565b61077e565b5f73ffffffffffffffffffffffffffffffffffffffff168273ffffffffffffffffffffffffffffffffffffffff160361012f575f6040517fec442f0500000000000000000000000000000000000000000000000000000000815260040161012691906106a8565b60405180910390fd5b6101405f838361014460201b60201c565b5050565b5f73ffffffffffffffffffffffffffffffffffffffff168373ffffffffffffffffffffffffffffffffffffffff1603610194578060025f82825461018891906106ee565b92505081905550610262565b5f5f5f8573ffffffffffffffffffffffffffffffffffffffff1673ffffffffffffffffffffffffffffffffffffffff1681526020019081526020015f205490508181101561021d578381836040517fe450d38c00000000000000000000000000000000000000000000000000000000815260040161021493929190610730565b60405180910390fd5b8181035f5f8673ffffffffffffffffffffffffffffffffffffffff1673ffffffffffffffffffffffffffffffffffffffff1681526020019081526020015f2081905550505b5f73ffffffffffffffffffffffffffffffffffffffff168273ffffffffffffffffffffffffffffffffffffffff16036102a9578060025f82825403925050819055506102f3565b805f5f8473ffffffffffffffffffffffffffffffffffffffff1673ffffffffffffffffffffffffffffffffffffffff1681526020019081526020015f205f82825401925050819055505b8173ffffffffffffffffffffffffffffffffffffffff168373ffffffffffffffffffffffffffffffffffffffff167fddf252ad1be2c89b69c2b068fc378daa952ba7f163c4a11628f55a4df523b3ef836040516103509190610765565b60405180910390a3505050565b5f81519050919050565b7f4e487b71000000000000000000000000000000000000000000000000000000005f52604160045260245ffd5b7f4e487b71000000000000000000000000000000000000000000000000000000005f52602260045260245ffd5b5f60028204905060018216806103d857607f821691505b6020821081036103eb576103ea610394565b5b50919050565b5f819050815f5260205f209050919050565b5f6020601f8301049050919050565b5f82821b905092915050565b5f6008830261044d7fffffffffffffffffffffffffffffffffffffffffffffffffffffffffffffffff82610412565b6104578683610412565b95508019841693508086168417925050509392505050565b5f819050919050565b5f819050919050565b5f61049b6104966104918461046f565b610478565b61046f565b9050919050565b5f819050919050565b6104b483610481565b6104c86104c0826104a2565b84845461041e565b825550505050565b5f5f905090565b6104df6104d0565b6104ea8184846104ab565b505050565b5b8181101561050d576105025f826104d7565b6001810190506104f0565b5050565b601f82111561055257610523816103f1565b61052c84610403565b8101602085101561053b578190505b61054f61054785610403565b8301826104ef565b50505b505050565b5f82821c905092915050565b5f6105725f1984600802610557565b1980831691505092915050565b5f61058a8383610563565b9150826002028217905092915050565b6105a38261035d565b67ffffffffffffffff8111156105bc576105bb610367565b5b6105c682546103c1565b6105d1828285610511565b5f60209050601f831160018114610602575f84156105f0578287015190505b6105fa858261057f565b865550610661565b601f198416610610866103f1565b5f5b8281101561063757848901518255600182019150602085019450602081019050610612565b868310156106545784890151610650601f891682610563565b8355505b6001600288020188555050505b505050505050565b5f73ffffffffffffffffffffffffffffffffffffffff82169050919050565b5f61069282610669565b9050919050565b6106a281610688565b82525050565b5f6020820190506106bb5f830184610699565b92915050565b7f4e487b71000000000000000000000000000000000000000000000000000000005f52601160045260245ffd5b5f6106f88261046f565b91506107038361046f565b925082820190508082111561071b5761071a6106c1565b5b92915050565b61072a8161046f565b82525050565b5f6060820190506107435f830186610699565b6107506020830185610721565b61075d6040830184610721565b949350505050565b5f6020820190506107785f830184610721565b92915050565b6113758061078b5f395ff3fe608060405234801561000f575f5ffd5b506004361061011f575f3560e01c806370a08231116100ab578063a457c2d71161006f578063a457c2d7146102f1578063a9059cbb14610321578063aa271e1a14610351578063d505accf14610381578063dd62ed3e1461039d5761011f565b806370a082311461026157806379cc67901461029157806395d89b41146102ad578063983b2d56146102cb57806398650275146102e75761011f565b80633092afd5116100f25780633092afd5146101bf578063313ce567146101db57806339509351146101f957806340c10f191461022957806342966c68146102455761011f565b806306fdde0314610123578063095ea7b31461014157806318160ddd1461017157806323b872dd1461018f575b5f5ffd5b61012b6103cd565b6040516101389190610e08565b60405180910390f35b61015b60048036038101906101569190610eb9565b61045d565b6040516101689190610f11565b60405180910390f35b61017961047f565b6040516101869190610f39565b60405180910390f35b6101a960048036038101906101a49190610f52565b610488565b6040516101b69190610f11565b60405180910390f35b6101d960048036038101906101d49190610fa2565b6104b6565b005b6101e36104b9565b6040516101f09190610fe8565b60405180910390f35b610213600480360381019061020e9190610eb9565b6104c1565b6040516102209190610f11565b60405180910390f35b610243600480360381019061023e9190610eb9565b6104eb565b005b61025f600480360381019061025a9190611001565b6104f9565b005b61027b60048036038101906102769190610fa2565b610506565b6040516102889190610f39565b60405180910390f35b6102ab60048036038101906102a69190610eb9565b61054b565b005b6102b5610559565b6040516102c29190610e08565b60405180910390f35b6102e560048036038101906102e09190610fa2565b6105e9565b005b6102ef6105ec565b005b61030b60048036038101906103069190610eb9565b6105ee565b6040516103189190610f11565b60405180910390f35b61033b60048036038101906103369190610eb9565b610660565b6040516103489190610f11565b60405180910390f35b61036b60048036038101906103669190610fa2565b610682565b6040516103789190610f11565b60405180910390f35b61039b60048036038101906103969190611089565b61068c565b005b6103b760048036038101906103b29190611126565b610695565b6040516103c49190610f39565b60405180910390f35b6060600380546103dc90611191565b80601f016020809104026020016040519081016040528092919081815260200182805461040890611191565b80156104535780601f1061042a57610100808354040283529160200191610453565b820191905f5260205f20905b81548152906001019060200180831161043657829003601f168201915b5050505050905090565b5f5f610467610717565b905061047481858561071e565b600191505092915050565b5f600254905090565b5f5f610492610717565b905061049f858285610730565b6104aa8585856107c2565b60019150509392505050565b50565b5f6012905090565b5f6104e13384846104d23388610695565b6104dc91906111ee565b61071e565b6001905092915050565b6104f582826108b2565b5050565b6105033382610931565b50565b5f5f5f8373ffffffffffffffffffffffffffffffffffffffff1673ffffffffffffffffffffffffffffffffffffffff1681526020019081526020015f20549050919050565b6105558282610931565b5050565b60606004805461056890611191565b80601f016020809104026020016040519081016040528092919081815260200182805461059490611191565b80156105df5780601f106105b6576101008083540402835291602001916105df565b820191905f5260205f20905b8154815290600101906020018083116105c257829003601f168201915b5050505050905090565b50565b565b5f5f6105fa3385610695565b90508281101561063f576040517f08c379a000000000000000000000000000000000000000000000000000000000815260040161063690611291565b60405180910390fd5b6106553385858461065091906112af565b61071e565b600191505092915050565b5f5f61066a610717565b90506106778185856107c2565b600191505092915050565b5f60019050919050565b50505050505050565b5f60015f8473ffffffffffffffffffffffffffffffffffffffff1673ffffffffffffffffffffffffffffffffffffffff1681526020019081526020015f205f8373ffffffffffffffffffffffffffffffffffffffff1673ffffffffffffffffffffffffffffffffffffffff1681526020019081526020015f2054905092915050565b5f33905090565b61072b83838360016109b0565b505050565b5f61073b8484610695565b90507fffffffffffffffffffffffffffffffffffffffffffffffffffffffffffffffff81146107bc57818110156107ad578281836040517ffb8f41b20000000000000000000000000000000000000000000000000000000081526004016107a4939291906112f1565b60405180910390fd5b6107bb84848484035f6109b0565b5b50505050565b5f73ffffffffffffffffffffffffffffffffffffffff168373ffffffffffffffffffffffffffffffffffffffff1603610832575f6040517f96c6fd1e0000000000000000000000000000000000000000000000000000000081526004016108299190611326565b60405180910390fd5b5f73ffffffffffffffffffffffffffffffffffffffff168273ffffffffffffffffffffffffffffffffffffffff16036108a2575f6040517fec442f050000000000000000000000000000000000000000000000000000000081526004016108999190611326565b60405180910390fd5b6108ad838383610b7f565b505050565b5f73ffffffffffffffffffffffffffffffffffffffff168273ffffffffffffffffffffffffffffffffffffffff1603610922575f6040517fec442f050000000000000000000000000000000000000000000000000000000081526004016109199190611326565b60405180910390fd5b61092d5f8383610b7f565b5050565b5f73ffffffffffffffffffffffffffffffffffffffff168273ffffffffffffffffffffffffffffffffffffffff16036109a1575f6040517f96c6fd1e0000000000000000000000000000000000000000000000000000000081526004016109989190611326565b60405180910390fd5b6109ac825f83610b7f565b5050565b5f73ffffffffffffffffffffffffffffffffffffffff168473ffffffffffffffffffffffffffffffffffffffff1603610a20575f6040517fe602df05000000000000000000000000000000000000000000000000000000008152600401610a179190611326565b60405180910390fd5b5f73ffffffffffffffffffffffffffffffffffffffff168373ffffffffffffffffffffffffffffffffffffffff1603610a90575f6040517f94280d62000000000000000000000000000000000000000000000000000000008152600401610a879190611326565b60405180910390fd5b8160015f8673ffffffffffffffffffffffffffffffffffffffff1673ffffffffffffffffffffffffffffffffffffffff1681526020019081526020015f205f8573ffffffffffffffffffffffffffffffffffffffff1673ffffffffffffffffffffffffffffffffffffffff1681526020019081526020015f20819055508015610b79578273ffffffffffffffffffffffffffffffffffffffff168473ffffffffffffffffffffffffffffffffffffffff167f8c5be1e5ebec7d5bd14f71427d1e84f3dd0314c0f7b2291e5b200ac8c7c3b92584604051610b709190610f39565b60405180910390a35b50505050565b5f73ffffffffffffffffffffffffffffffffffffffff168373ffffffffffffffffffffffffffffffffffffffff1603610bcf578060025f828254610bc391906111ee565b92505081905550610c9d565b5f5f5f8573ffffffffffffffffffffffffffffffffffffffff1673ffffffffffffffffffffffffffffffffffffffff1681526020019081526020015f2054905081811015610c58578381836040517fe450d38c000000000000000000000000000000000000000000000000000000008152600401610c4f939291906112f1565b60405180910390fd5b8181035f5f8673ffffffffffffffffffffffffffffffffffffffff1673ffffffffffffffffffffffffffffffffffffffff1681526020019081526020015f2081905550505b5f73ffffffffffffffffffffffffffffffffffffffff168273ffffffffffffffffffffffffffffffffffffffff1603610ce4578060025f8282540392505081905550610d2e565b805f5f8473ffffffffffffffffffffffffffffffffffffffff1673ffffffffffffffffffffffffffffffffffffffff1681526020019081526020015f205f82825401925050819055505b8173ffffffffffffffffffffffffffffffffffffffff168373ffffffffffffffffffffffffffffffffffffffff167fddf252ad1be2c89b69c2b068fc378daa952ba7f163c4a11628f55a4df523b3ef83604051610d8b9190610f39565b60405180910390a3505050565b5f81519050919050565b5f82825260208201905092915050565b8281835e5f83830152505050565b5f601f19601f8301169050919050565b5f610dda82610d98565b610de48185610da2565b9350610df4818560208601610db2565b610dfd81610dc0565b840191505092915050565b5f6020820190508181035f830152610e208184610dd0565b905092915050565b5f5ffd5b5f73ffffffffffffffffffffffffffffffffffffffff82169050919050565b5f610e5582610e2c565b9050919050565b610e6581610e4b565b8114610e6f575f5ffd5b50565b5f81359050610e8081610e5c565b92915050565b5f819050919050565b610e9881610e86565b8114610ea2575f5ffd5b50565b5f81359050610eb381610e8f565b92915050565b5f5f60408385031215610ecf57610ece610e28565b5b5f610edc85828601610e72565b9250506020610eed85828601610ea5565b9150509250929050565b5f8115159050919050565b610f0b81610ef7565b82525050565b5f602082019050610f245f830184610f02565b92915050565b610f3381610e86565b82525050565b5f602082019050610f4c5f830184610f2a565b92915050565b5f5f5f60608486031215610f6957610f68610e28565b5b5f610f7686828701610e72565b9350506020610f8786828701610e72565b9250506040610f9886828701610ea5565b9150509250925092565b5f60208284031215610fb757610fb6610e28565b5b5f610fc484828501610e72565b91505092915050565b5f60ff82169050919050565b610fe281610fcd565b82525050565b5f602082019050610ffb5f830184610fd9565b92915050565b5f6020828403121561101657611015610e28565b5b5f61102384828501610ea5565b91505092915050565b61103581610fcd565b811461103f575f5ffd5b50565b5f813590506110508161102c565b92915050565b5f819050919050565b61106881611056565b8114611072575f5ffd5b50565b5f813590506110838161105f565b92915050565b5f5f5f5f5f5f5f60e0888a0312156110a4576110a3610e28565b5b5f6110b18a828b01610e72565b97505060206110c28a828b01610e72565b96505060406110d38a828b01610ea5565b95505060606110e48a828b01610ea5565b94505060806110f58a828b01611042565b93505060a06111068a828b01611075565b92505060c06111178a828b01611075565b91505092959891949750929550565b5f5f6040838503121561113c5761113b610e28565b5b5f61114985828601610e72565b925050602061115a85828601610e72565b9150509250929050565b7f4e487b71000000000000000000000000000000000000000000000000000000005f52602260045260245ffd5b5f60028204905060018216806111a857607f821691505b6020821081036111bb576111ba611164565b5b50919050565b7f4e487b71000000000000000000000000000000000000000000000000000000005f52601160045260245ffd5b5f6111f882610e86565b915061120383610e86565b925082820190508082111561121b5761121a6111c1565b5b92915050565b7f45524332303a2064656372656173656420616c6c6f77616e63652062656c6f775f8201527f207a65726f000000000000000000000000000000000000000000000000000000602082015250565b5f61127b602583610da2565b915061128682611221565b604082019050919050565b5f6020820190508181035f8301526112a88161126f565b9050919050565b5f6112b982610e86565b91506112c483610e86565b92508282039050818111156112dc576112db6111c1565b5b92915050565b6112eb81610e4b565b82525050565b5f6060820190506113045f8301866112e2565b6113116020830185610f2a565b61131e6040830184610f2a565b949350505050565b5f6020820190506113395f8301846112e2565b9291505056fea26469706673582212200cc5233bb178e4dcf5f1891ae8ba9d75cf5f2971fa74d0acda0daea3f752f17a64736f6c634300081b0033","linkReferences":{}},"methodIdentifiers":{"addMinter(address)":"983b2d56","allowance(address,address)":"dd62ed3e","approve(address,uint256)":"095ea7b3","balanceOf(address)":"70a08231","burn(uint256)":"42966c68","burnFrom(address,uint256)":"79cc6790","decimals()":"313ce567","decreaseAllowance(address,uint256)":"a457c2d7","increaseAllowance(address,uint256)":"39509351","isMinter(address)":"aa271e1a","mint(address,uint256)":"40c10f19","name()":"06fdde03","permit(address,address,uint256,uint256,uint8,bytes32,bytes32)":"d505accf","removeMinter(address)":"3092afd5","renounceMinter()":"98650275","symbol()":"95d89b41","totalSupply()":"18160ddd","transfer(address,uint256)":"a9059cbb","transferFrom(address,address,uint256)":"23b872dd"},"id":79}