{"abi":[{"type":"function","name":"outboundTransfer","inputs":[{"name":"","type":"address","internalType":"address"},{"name":"","type":"address","internalType":"address"},{"name":"","type":"uint256","internalType":"uint256"},{"name":"","type":"uint256","internalType":"uint256"},{"name":"","type":"uint256","internalType":"uint256"},{"name":"","type":"bytes","internalType":"bytes"}],"outputs":[{"name":"","type":"bytes","internalType":"bytes"}],"stateMutability":"pure"}],"bytecode":{"object":"0x6080604052348015600e575f5ffd5b506102e18061001c5f395ff3fe608060405234801561000f575f5ffd5b5060043610610029575f3560e01c8063d2ce7d651461002d575b5f5ffd5b61004760048036038101906100429190610171565b61005d565b604051610054919061028b565b60405180910390f35b606060405180602001604052805f8152509050979650505050505050565b5f5ffd5b5f5ffd5b5f73ffffffffffffffffffffffffffffffffffffffff82169050919050565b5f6100ac82610083565b9050919050565b6100bc816100a2565b81146100c6575f5ffd5b50565b5f813590506100d7816100b3565b92915050565b5f819050919050565b6100ef816100dd565b81146100f9575f5ffd5b50565b5f8135905061010a816100e6565b92915050565b5f5ffd5b5f5ffd5b5f5ffd5b5f5f83601f84011261013157610130610110565b5b8235905067ffffffffffffffff81111561014e5761014d610114565b5b60208301915083600182028301111561016a57610169610118565b5b9250929050565b5f5f5f5f5f5f5f60c0888a03121561018c5761018b61007b565b5b5f6101998a828b016100c9565b97505060206101aa8a828b016100c9565b96505060406101bb8a828b016100fc565b95505060606101cc8a828b016100fc565b94505060806101dd8a828b016100fc565b93505060a088013567ffffffffffffffff8111156101fe576101fd61007f565b5b61020a8a828b0161011c565b925092505092959891949750929550565b5f81519050919050565b5f82825260208201905092915050565b8281835e5f83830152505050565b5f601f19601f8301169050919050565b5f61025d8261021b565b6102678185610225565b9350610277818560208601610235565b61028081610243565b840191505092915050565b5f6020820190508181035f8301526102a38184610253565b90509291505056fea26469706673582212209d302f9ba8fa75eabd917963bfd08ef38ff18207e8073efed844b2775d3feb2b64736f6c634300081b0033","linkReferences":{}},"methodIdentifiers":{"outboundTransfer(address,address,uint256,uint256,uint256,bytes)":"d2ce7d65"},"id":79}