{"abi":[{"type":"constructor","inputs":[{"name":"governor_","type":"address","internalType":"address"}],"stateMutability":"nonpayable"},{"type":"function","name":"getContractProxy","inputs":[{"name":"id","type":"bytes32","internalType":"bytes32"}],"outputs":[{"name":"","type":"address","internalType":"address"}],"stateMutability":"view"},{"type":"function","name":"governor","inputs":[],"outputs":[{"name":"","type":"address","internalType":"address"}],"stateMutability":"view"},{"type":"function","name":"partialPaused","inputs":[],"outputs":[{"name":"","type":"bool","internalType":"bool"}],"stateMutability":"pure"},{"type":"function","name":"paused","inputs":[],"outputs":[{"name":"","type":"bool","internalType":"bool"}],"stateMutability":"pure"},{"type":"function","name":"setContractProxy","inputs":[{"name":"id","type":"bytes32","internalType":"bytes32"},{"name":"contractAddress","type":"address","internalType":"address"}],"outputs":[],"stateMutability":"nonpayable"}],"bytecode":{"object":"0x608060405234801561000f575f5ffd5b50604051610454380380610454833981810160405281019061003191906100d5565b8060015f6101000a81548173ffffffffffffffffffffffffffffffffffffffff021916908373ffffffffffffffffffffffffffffffffffffffff16021790555050610100565b5f5ffd5b5f73ffffffffffffffffffffffffffffffffffffffff82169050919050565b5f6100a48261007b565b9050919050565b6100b48161009a565b81146100be575f5ffd5b50565b5f815190506100cf816100ab565b92915050565b5f602082840312156100ea576100e9610077565b5b5f6100f7848285016100c1565b91505092915050565b6103478061010d5f395ff3fe608060405234801561000f575f5ffd5b5060043610610055575f3560e01c80630c340a24146100595780632e292fc7146100775780635c975abb14610095578063e0e99292146100b3578063f7641a5e146100cf575b5f5ffd5b6100616100ff565b60405161006e91906101fb565b60405180910390f35b61007f610124565b60405161008c919061022e565b60405180910390f35b61009d61012b565b6040516100aa919061022e565b60405180910390f35b6100cd60048036038101906100c891906102a8565b610132565b005b6100e960048036038101906100e491906102e6565b610184565b6040516100f691906101fb565b60405180910390f35b60015f9054906101000a900473ffffffffffffffffffffffffffffffffffffffff1681565b5f5f905090565b5f5f905090565b805f5f8481526020019081526020015f205f6101000a81548173ffffffffffffffffffffffffffffffffffffffff021916908373ffffffffffffffffffffffffffffffffffffffff1602179055505050565b5f5f5f8381526020019081526020015f205f9054906101000a900473ffffffffffffffffffffffffffffffffffffffff169050919050565b5f73ffffffffffffffffffffffffffffffffffffffff82169050919050565b5f6101e5826101bc565b9050919050565b6101f5816101db565b82525050565b5f60208201905061020e5f8301846101ec565b92915050565b5f8115159050919050565b61022881610214565b82525050565b5f6020820190506102415f83018461021f565b92915050565b5f5ffd5b5f819050919050565b61025d8161024b565b8114610267575f5ffd5b50565b5f8135905061027881610254565b92915050565b610287816101db565b8114610291575f5ffd5b50565b5f813590506102a28161027e565b92915050565b5f5f604083850312156102be576102bd610247565b5b5f6102cb8582860161026a565b92505060206102dc85828601610294565b9150509250929050565b5f602082840312156102fb576102fa610247565b5b5f6103088482850161026a565b9150509291505056fea264697066735822122029a73ecf89a85df2bf53410cc340e6519e8997c98c61146f79d87b0c9c0959da64736f6c634300081b0033","linkReferences":{}},"methodIdentifiers":{"getContractProxy(bytes32)":"f7641a5e","governor()":"0c340a24","partialPaused()":"2e292fc7","paused()":"5c975abb","setContractProxy(bytes32,address)":"e0e99292"},"id":79}