{"abi":[{"type":"function","name":"currentEpoch","inputs":[],"outputs":[{"name":"","type":"uint256","internalType":"uint256"}],"stateMutability":"pure"},{"type":"function","name":"epochLength","inputs":[],"outputs":[{"name":"","type":"uint256","internalType":"uint256"}],"stateMutability":"pure"}],"bytecode":{"object":"0x6080604052348015600e575f5ffd5b5060dc80601a5f395ff3fe6080604052348015600e575f5ffd5b50600436106030575f3560e01c806357d775f81460345780637667180814604e575b5f5ffd5b603a6068565b60405160459190608f565b60405180910390f35b60546071565b604051605f9190608f565b60405180910390f35b5f6119f6905090565b5f6001905090565b5f819050919050565b6089816079565b82525050565b5f60208201905060a05f8301846082565b9291505056fea26469706673582212205d98807645b385260be39b9f260b548f8b490ecba3c25f424821f382369ecb8664736f6c634300081b0033","linkReferences":{}},"methodIdentifiers":{"currentEpoch()":"76671808","epochLength()":"57d775f8"},"id":79}