{"abi":[{"type":"constructor","inputs":[{"name":"controller","type":"address","internalType":"address"},{"name":"withdrawEscrowThawingPeriod","type":"uint256","internalType":"uint256"}],"stateMutability":"nonpayable"},{"type":"function","name":"MAX_WAIT_PERIOD","inputs":[],"outputs":[{"name":"","type":"uint256","internalType":"uint256"}],"stateMutability":"view"},{"type":"function","name":"WITHDRAW_ESCROW_THAWING_PERIOD","inputs":[],"outputs":[{"name":"","type":"uint256","internalType":"uint256"}],"stateMutability":"view"},{"type":"function","name":"cancelThaw","inputs":[{"name":"collector","type":"address","internalType":"address"},{"name":"receiver","type":"address","internalType":"address"}],"outputs":[],"stateMutability":"nonpayable"},{"type":"function","name":"collect","inputs":[{"name":"paymentType","type":"uint8","internalType":"enum IGraphPayments.PaymentTypes"},{"name":"payer","type":"address","internalType":"address"},{"name":"receiver","type":"address","internalType":"address"},{"name":"tokens","type":"uint256","internalType":"uint256"},{"name":"dataService","type":"address","internalType":"address"},{"name":"dataServiceCut","type":"uint256","internalType":"uint256"},{"name":"receiverDestination","type":"address","internalType":"address"}],"outputs":[],"stateMutability":"nonpayable"},{"type":"function","name":"deposit","inputs":[{"name":"collector","type":"address","internalType":"address"},{"name":"receiver","type":"address","internalType":"address"},{"name":"tokens","type":"uint256","internalType":"uint256"}],"outputs":[],"stateMutability":"nonpayable"},{"type":"function","name":"depositTo","inputs":[{"name":"payer","type":"address","internalType":"address"},{"name":"collector","type":"address","internalType":"address"},{"name":"receiver","type":"address","internalType":"address"},{"name":"tokens","type":"uint256","internalType":"uint256"}],"outputs":[],"stateMutability":"nonpayable"},{"type":"function","name":"escrowAccounts","inputs":[{"name":"payer","type":"address","internalType":"address"},{"name":"collector","type":"address","internalType":"address"},{"name":"receiver","type":"address","internalType":"address"}],"outputs":[{"name":"balance","type":"uint256","internalType":"uint256"},{"name":"tokensThawing","type":"uint256","internalType":"uint256"},{"name":"thawEndTimestamp","type":"uint256","internalType":"uint256"}],"stateMutability":"view"},{"type":"function","name":"getBalance","inputs":[{"name":"payer","type":"address","internalType":"address"},{"name":"collector","type":"address","internalType":"address"},{"name":"receiver","type":"address","internalType":"address"}],"outputs":[{"name":"","type":"uint256","internalType":"uint256"}],"stateMutability":"view"},{"type":"function","name":"initialize","inputs":[],"outputs":[],"stateMutability":"nonpayable"},{"type":"function","name":"multicall","inputs":[{"name":"data","type":"bytes[]","internalType":"bytes[]"}],"outputs":[{"name":"results","type":"bytes[]","internalType":"bytes[]"}],"stateMutability":"nonpayable"},{"type":"function","name":"thaw","inputs":[{"name":"collector","type":"address","internalType":"address"},{"name":"receiver","type":"address","internalType":"address"},{"name":"tokens","type":"uint256","internalType":"uint256"}],"outputs":[],"stateMutability":"nonpayable"},{"type":"function","name":"withdraw","inputs":[{"name":"collector","type":"address","internalType":"address"},{"name":"receiver","type":"address","internalType":"address"}],"outputs":[],"stateMutability":"nonpayable"},{"type":"event","name":"CancelThaw","inputs":[{"name":"payer","type":"address","indexed":true,"internalType":"address"},{"name":"collector","type":"address","indexed":true,"internalType":"address"},{"name":"receiver","type":"address","indexed":true,"internalType":"address"},{"name":"tokensThawing","type":"uint256","indexed":false,"internalType":"uint256"},{"name":"thawEndTimestamp","type":"uint256","indexed":false,"internalType":"uint256"}],"anonymous":false},{"type":"event","name":"Deposit","inputs":[{"name":"payer","type":"address","indexed":true,"internalType":"address"},{"name":"collector","type":"address","indexed":true,"internalType":"address"},{"name":"receiver","type":"address","indexed":true,"internalType":"address"},{"name":"tokens","type":"uint256","indexed":false,"internalType":"uint256"}],"anonymous":false},{"type":"event","name":"EscrowCollected","inputs":[{"name":"paymentType","type":"uint8","indexed":true,"internalType":"enum IGraphPayments.PaymentTypes"},{"name":"payer","type":"address","indexed":true,"internalType":"address"},{"name":"collector","type":"address","indexed":true,"internalType":"address"},{"name":"receiver","type":"address","indexed":false,"internalType":"address"},{"name":"tokens","type":"uint256","indexed":false,"internalType":"uint256"},{"name":"receiverDestination","type":"address","indexed":false,"internalType":"address"}],"anonymous":false},{"type":"event","name":"GraphDirectoryInitialized","inputs":[{"name":"graphToken","type":"address","indexed":true,"internalType":"address"},{"name":"graphStaking","type":"address","indexed":true,"internalType":"address"},{"name":"graphPayments","type":"address","indexed":false,"internalType":"address"},{"name":"graphEscrow","type":"address","indexed":false,"internalType":"address"},{"name":"graphController","type":"address","indexed":true,"internalType":"address"},{"name":"graphEpochManager","type":"address","indexed":false,"internalType":"address"},{"name":"graphRewardsManager","type":"address","indexed":false,"internalType":"address"},{"name":"graphTokenGateway","type":"address","indexed":false,"internalType":"address"},{"name":"graphProxyAdmin","type":"address","indexed":false,"internalType":"address"},{"name":"graphCuration","type":"address","indexed":false,"internalType":"address"}],"anonymous":false},{"type":"event","name":"Initialized","inputs":[{"name":"version","type":"uint64","indexed":false,"internalType":"uint64"}],"anonymous":false},{"type":"event","name":"Thaw","inputs":[{"name":"payer","type":"address","indexed":true,"internalType":"address"},{"name":"collector","type":"address","indexed":true,"internalType":"address"},{"name":"receiver","type":"address","indexed":true,"internalType":"address"},{"name":"tokens","type":"uint256","indexed":false,"internalType":"uint256"},{"name":"thawEndTimestamp","type":"uint256","indexed":false,"internalType":"uint256"}],"anonymous":false},{"type":"event","name":"Withdraw","inputs":[{"name":"payer","type":"address","indexed":true,"internalType":"address"},{"name":"collector","type":"address","indexed":true,"internalType":"address"},{"name":"receiver","type":"address","indexed":true,"internalType":"address"},{"name":"tokens","type":"uint256","indexed":false,"internalType":"uint256"}],"anonymous":false},{"type":"error","name":"AddressEmptyCode","inputs":[{"name":"target","type":"address","internalType":"address"}]},{"type":"error","name":"FailedCall","inputs":[]},{"type":"error","name":"GraphDirectoryInvalidZeroAddress","inputs":[{"name":"contractName","type":"bytes","internalType":"bytes"}]},{"type":"error","name":"InvalidInitialization","inputs":[]},{"type":"error","name":"NotInitializing","inputs":[]},{"type":"error","name":"PaymentsEscrowInconsistentCollection","inputs":[{"name":"balanceBefore","type":"uint256","internalType":"uint256"},{"name":"balanceAfter","type":"uint256","internalType":"uint256"},{"name":"tokens","type":"uint256","internalType":"uint256"}]},{"type":"error","name":"PaymentsEscrowInsufficientBalance","inputs":[{"name":"balance","type":"uint256","internalType":"uint256"},{"name":"minBalance","type":"uint256","internalType":"uint256"}]},{"type":"error","name":"PaymentsEscrowInvalidZeroTokens","inputs":[]},{"type":"error","name":"PaymentsEscrowIsPaused","inputs":[]},{"type":"error","name":"PaymentsEscrowNotThawing","inputs":[]},{"type":"error","name":"PaymentsEscrowStillThawing","inputs":[{"name":"currentTimestamp","type":"uint256","internalType":"uint256"},{"name":"thawEndTimestamp","type":"uint256","internalType":"uint256"}]},{"type":"error","name":"PaymentsEscrowThawingPeriodTooLong","inputs":[{"name":"thawingPeriod","type":"uint256","internalType":"uint256"},{"name":"maxWaitPeriod","type":"uint256","internalType":"uint256"}]}],"bytecode":{"object":"0x6101e0604052348015610010575f5ffd5b506040516130bb3803806130bb833981810160405281019061003291906108d4565b815f73ffffffffffffffffffffffffffffffffffffffff168173ffffffffffffffffffffffffffffffffffffffff16036100a1576040517f431eb5ba0000000000000000000000000000000000000000000000000000000081526004016100989061096c565b60405180910390fd5b8073ffffffffffffffffffffffffffffffffffffffff166101008173ffffffffffffffffffffffffffffffffffffffff168152505061011a6040518060400160405280600a81526020017f4772617068546f6b656e0000000000000000000000000000000000000000000081525061061c60201b60201c565b73ffffffffffffffffffffffffffffffffffffffff1660808173ffffffffffffffffffffffffffffffffffffffff16815250506101916040518060400160405280600781526020017f5374616b696e670000000000000000000000000000000000000000000000000081525061061c60201b60201c565b73ffffffffffffffffffffffffffffffffffffffff1660a08173ffffffffffffffffffffffffffffffffffffffff16815250506102086040518060400160405280600d81526020017f47726170685061796d656e74730000000000000000000000000000000000000081525061061c60201b60201c565b73ffffffffffffffffffffffffffffffffffffffff1660c08173ffffffffffffffffffffffffffffffffffffffff168152505061027f6040518060400160405280600e81526020017f5061796d656e7473457363726f7700000000000000000000000000000000000081525061061c60201b60201c565b73ffffffffffffffffffffffffffffffffffffffff1660e08173ffffffffffffffffffffffffffffffffffffffff16815250506102f66040518060400160405280600c81526020017f45706f63684d616e61676572000000000000000000000000000000000000000081525061061c60201b60201c565b73ffffffffffffffffffffffffffffffffffffffff166101208173ffffffffffffffffffffffffffffffffffffffff168152505061036e6040518060400160405280600e81526020017f526577617264734d616e6167657200000000000000000000000000000000000081525061061c60201b60201c565b73ffffffffffffffffffffffffffffffffffffffff166101408173ffffffffffffffffffffffffffffffffffffffff16815250506103e66040518060400160405280601181526020017f4772617068546f6b656e4761746577617900000000000000000000000000000081525061061c60201b60201c565b73ffffffffffffffffffffffffffffffffffffffff166101608173ffffffffffffffffffffffffffffffffffffffff168152505061045e6040518060400160405280600f81526020017f477261706850726f787941646d696e000000000000000000000000000000000081525061061c60201b60201c565b73ffffffffffffffffffffffffffffffffffffffff166101808173ffffffffffffffffffffffffffffffffffffffff16815250506104d66040518060400160405280600881526020017f4375726174696f6e00000000000000000000000000000000000000000000000081525061061c60201b60201c565b73ffffffffffffffffffffffffffffffffffffffff166101a08173ffffffffffffffffffffffffffffffffffffffff16815250506101005173ffffffffffffffffffffffffffffffffffffffff1660a05173ffffffffffffffffffffffffffffffffffffffff1660805173ffffffffffffffffffffffffffffffffffffffff167fef5021414834d86e36470f5c1cecf6544fb2bb723f2ca51a4c86fcd8c5919a4360c05160e051610120516101405161016051610180516101a0516040516105a49796959493929190610999565b60405180910390a4506276a700811115816276a70090916105fc576040517f5c0f65a10000000000000000000000000000000000000000000000000000000081526004016105f3929190610a15565b60405180910390fd5b5050806101c0818152505061061561071e60201b60201c565b5050610b53565b5f5f6101005173ffffffffffffffffffffffffffffffffffffffff1663f7641a5e84805190602001206040518263ffffffff1660e01b81526004016106619190610a54565b602060405180830381865afa15801561067c573d5f5f3e3d5ffd5b505050506040513d601f19601f820116820180604052508101906106a09190610a6d565b90505f73ffffffffffffffffffffffffffffffffffffffff168173ffffffffffffffffffffffffffffffffffffffff1614158390610714576040517f431eb5ba00000000000000000000000000000000000000000000000000000000815260040161070b9190610af8565b60405180910390fd5b5080915050919050565b5f61072d61081c60201b60201c565b9050805f0160089054906101000a900460ff1615610777576040517ff92ee8a900000000000000000000000000000000000000000000000000000000815260040160405180910390fd5b67ffffffffffffffff8016815f015f9054906101000a900467ffffffffffffffff1667ffffffffffffffff16146108195767ffffffffffffffff815f015f6101000a81548167ffffffffffffffff021916908367ffffffffffffffff1602179055507fc7f505b2f371ae2175ee4913f4499e1f2633a7b5936321eed1cdaeb6115181d267ffffffffffffffff6040516108109190610b3a565b60405180910390a15b50565b5f7ff0c57e16840df040f15088dc2f81fe391c3923bec73e23a9662efc9c229c6a00905090565b5f5ffd5b5f73ffffffffffffffffffffffffffffffffffffffff82169050919050565b5f61087082610847565b9050919050565b61088081610866565b811461088a575f5ffd5b50565b5f8151905061089b81610877565b92915050565b5f819050919050565b6108b3816108a1565b81146108bd575f5ffd5b50565b5f815190506108ce816108aa565b92915050565b5f5f604083850312156108ea576108e9610843565b5b5f6108f78582860161088d565b9250506020610908858286016108c0565b9150509250929050565b5f82825260208201905092915050565b7f436f6e74726f6c6c6572000000000000000000000000000000000000000000005f82015250565b5f610956600a83610912565b915061096182610922565b602082019050919050565b5f6020820190508181035f8301526109838161094a565b9050919050565b61099381610866565b82525050565b5f60e0820190506109ac5f83018a61098a565b6109b9602083018961098a565b6109c6604083018861098a565b6109d3606083018761098a565b6109e0608083018661098a565b6109ed60a083018561098a565b6109fa60c083018461098a565b98975050505050505050565b610a0f816108a1565b82525050565b5f604082019050610a285f830185610a06565b610a356020830184610a06565b9392505050565b5f819050919050565b610a4e81610a3c565b82525050565b5f602082019050610a675f830184610a45565b92915050565b5f60208284031215610a8257610a81610843565b5b5f610a8f8482850161088d565b91505092915050565b5f81519050919050565b8281835e5f83830152505050565b5f601f19601f8301169050919050565b5f610aca82610a98565b610ad48185610912565b9350610ae4818560208601610aa2565b610aed81610ab0565b840191505092915050565b5f6020820190508181035f830152610b108184610ac0565b905092915050565b5f67ffffffffffffffff82169050919050565b610b3481610b18565b82525050565b5f602082019050610b4d5f830184610b2b565b92915050565b60805160a05160c05160e05161010051610120516101405161016051610180516101a0516101c0516124fd610bbe5f395f81816107e0015261114601525f50505f50505f50505f50505f50505f6114f101525f50505f61153f01525f50505f61151801526124fd5ff3fe608060405234801561000f575f5ffd5b50600436106100b2575f3560e01c8063ac9650d81161006f578063ac9650d814610164578063b1d07de414610194578063b2168b6b146101b0578063d6bd603c146101ce578063f93f1cd0146101fe578063f940e3851461021a576100b2565b80631230fa3e146100b657806372eb521e146100d25780637a8df28b146100ee5780637b8ae6cf146101205780638129fc1c1461013e5780638340f54914610148575b5f5ffd5b6100d060048036038101906100cb9190611b19565b610236565b005b6100ec60048036038101906100e79190611bb6565b6106e6565b005b61010860048036038101906101039190611c1a565b6107a3565b60405161011793929190611c79565b60405180910390f35b6101286107de565b6040516101359190611cae565b60405180910390f35b610146610802565b005b610162600480360381019061015d9190611cc7565b610981565b005b61017e60048036038101906101799190611d78565b610a3d565b60405161018b9190611eee565b60405180910390f35b6101ae60048036038101906101a99190611f0e565b610c1e565b005b6101b8610e62565b6040516101c59190611cae565b60405180910390f35b6101e860048036038101906101e39190611c1a565b610e69565b6040516101f59190611cae565b60405180910390f35b61021860048036038101906102139190611cc7565b610f51565b005b610234600480360381019061022f9190611f0e565b611200565b005b61023e6114ee565b73ffffffffffffffffffffffffffffffffffffffff16635c975abb6040518163ffffffff1660e01b8152600401602060405180830381865afa158015610286573d5f5f3e3d5ffd5b505050506040513d601f19601f820116820180604052508101906102aa9190611f81565b156102e1576040517f9e68cf0b00000000000000000000000000000000000000000000000000000000815260040160405180910390fd5b5f5f5f8873ffffffffffffffffffffffffffffffffffffffff1673ffffffffffffffffffffffffffffffffffffffff1681526020019081526020015f205f3373ffffffffffffffffffffffffffffffffffffffff1673ffffffffffffffffffffffffffffffffffffffff1681526020019081526020015f205f8773ffffffffffffffffffffffffffffffffffffffff1673ffffffffffffffffffffffffffffffffffffffff1681526020019081526020015f20905084815f01541015815f01548690916103e5576040517f3db4e6910000000000000000000000000000000000000000000000000000000081526004016103dc929190611fac565b60405180910390fd5b505084815f015f8282546103f99190612000565b925050819055505f610409611515565b73ffffffffffffffffffffffffffffffffffffffff166370a08231306040518263ffffffff1660e01b81526004016104419190612042565b602060405180830381865afa15801561045c573d5f5f3e3d5ffd5b505050506040513d601f19601f82011682018060405250810190610480919061206f565b905061048a611515565b73ffffffffffffffffffffffffffffffffffffffff1663095ea7b36104ad61153c565b886040518363ffffffff1660e01b81526004016104cb92919061209a565b6020604051808303815f875af11580156104e7573d5f5f3e3d5ffd5b505050506040513d601f19601f8201168201806040525081019061050b9190611f81565b5061051461153c565b73ffffffffffffffffffffffffffffffffffffffff166381cd11a08a89898989896040518763ffffffff1660e01b815260040161055696959493929190612134565b5f604051808303815f87803b15801561056d575f5ffd5b505af115801561057f573d5f5f3e3d5ffd5b505050505f61058c611515565b73ffffffffffffffffffffffffffffffffffffffff166370a08231306040518263ffffffff1660e01b81526004016105c49190612042565b602060405180830381865afa1580156105df573d5f5f3e3d5ffd5b505050506040513d601f19601f82011682018060405250810190610603919061206f565b905080876106119190612193565b821482828990919261065b576040517f7e09c9ac00000000000000000000000000000000000000000000000000000000815260040161065293929190611c79565b60405180910390fd5b5050503373ffffffffffffffffffffffffffffffffffffffff168973ffffffffffffffffffffffffffffffffffffffff168b600281111561069f5761069e6120c1565b5b7f399b99b484be516eace7ececa486139581a25b0d2d12dac8bfa0948d07a8c9138b8b896040516106d2939291906121c6565b60405180910390a450505050505050505050565b6106ee6114ee565b73ffffffffffffffffffffffffffffffffffffffff16635c975abb6040518163ffffffff1660e01b8152600401602060405180830381865afa158015610736573d5f5f3e3d5ffd5b505050506040513d601f19601f8201168201806040525081019061075a9190611f81565b15610791576040517f9e68cf0b00000000000000000000000000000000000000000000000000000000815260040160405180910390fd5b61079d84848484611563565b50505050565b5f602052825f5260405f20602052815f5260405f20602052805f5260405f205f925092505050805f0154908060010154908060020154905083565b7f000000000000000000000000000000000000000000000000000000000000000081565b5f61080b6116e1565b90505f815f0160089054906101000a900460ff161590505f825f015f9054906101000a900467ffffffffffffffff1690505f5f8267ffffffffffffffff161480156108535750825b90505f60018367ffffffffffffffff1614801561088657505f3073ffffffffffffffffffffffffffffffffffffffff163b145b905081158015610894575080155b156108cb576040517ff92ee8a900000000000000000000000000000000000000000000000000000000815260040160405180910390fd5b6001855f015f6101000a81548167ffffffffffffffff021916908367ffffffffffffffff1602179055508315610918576001855f0160086101000a81548160ff0219169083151502179055505b610920611708565b831561097a575f855f0160086101000a81548160ff0219169083151502179055507fc7f505b2f371ae2175ee4913f4499e1f2633a7b5936321eed1cdaeb6115181d260016040516109719190612250565b60405180910390a15b5050505050565b6109896114ee565b73ffffffffffffffffffffffffffffffffffffffff16635c975abb6040518163ffffffff1660e01b8152600401602060405180830381865afa1580156109d1573d5f5f3e3d5ffd5b505050506040513d601f19601f820116820180604052508101906109f59190611f81565b15610a2c576040517f9e68cf0b00000000000000000000000000000000000000000000000000000000815260040160405180910390fd5b610a3833848484611563565b505050565b60605f610a48611712565b73ffffffffffffffffffffffffffffffffffffffff163373ffffffffffffffffffffffffffffffffffffffff1614610ae8575f36610a84611719565b5f369050610a929190612000565b908092610aa193929190612271565b8080601f0160208091040260200160405190810160405280939291908181526020018383808284375f81840152601f19601f82011690508083019250505050505050610b36565b5f67ffffffffffffffff811115610b0257610b016122ab565b5b6040519080825280601f01601f191660200182016040528015610b345781602001600182028036833780820191505090505b505b90508383905067ffffffffffffffff811115610b5557610b546122ab565b5b604051908082528060200260200182016040528015610b8857816020015b6060815260200190600190039081610b735790505b5091505f5f90505b84849050811015610c1657610beb30868684818110610bb257610bb16122d8565b5b9050602002810190610bc49190612311565b85604051602001610bd7939291906123df565b604051602081830303815290604052611720565b838281518110610bfe57610bfd6122d8565b5b60200260200101819052508080600101915050610b90565b505092915050565b610c266114ee565b73ffffffffffffffffffffffffffffffffffffffff16635c975abb6040518163ffffffff1660e01b8152600401602060405180830381865afa158015610c6e573d5f5f3e3d5ffd5b505050506040513d601f19601f82011682018060405250810190610c929190611f81565b15610cc9576040517f9e68cf0b00000000000000000000000000000000000000000000000000000000815260040160405180910390fd5b5f5f5f3373ffffffffffffffffffffffffffffffffffffffff1673ffffffffffffffffffffffffffffffffffffffff1681526020019081526020015f205f8473ffffffffffffffffffffffffffffffffffffffff1673ffffffffffffffffffffffffffffffffffffffff1681526020019081526020015f205f8373ffffffffffffffffffffffffffffffffffffffff1673ffffffffffffffffffffffffffffffffffffffff1681526020019081526020015f2090505f816001015403610dbb576040517f8cbd172f00000000000000000000000000000000000000000000000000000000815260040160405180910390fd5b5f816001015490505f826002015490505f83600101819055505f83600201819055508373ffffffffffffffffffffffffffffffffffffffff168573ffffffffffffffffffffffffffffffffffffffff163373ffffffffffffffffffffffffffffffffffffffff167f6c4ed34e7347a8682024ee40d393e45f4075c46c593aaaed3cc3e49dd69335358585604051610e53929190611fac565b60405180910390a45050505050565b6276a70081565b5f5f5f5f8673ffffffffffffffffffffffffffffffffffffffff1673ffffffffffffffffffffffffffffffffffffffff1681526020019081526020015f205f8573ffffffffffffffffffffffffffffffffffffffff1673ffffffffffffffffffffffffffffffffffffffff1681526020019081526020015f205f8473ffffffffffffffffffffffffffffffffffffffff1673ffffffffffffffffffffffffffffffffffffffff1681526020019081526020015f2090508060010154815f015411610f33575f610f47565b8060010154815f0154610f469190612000565b5b9150509392505050565b610f596114ee565b73ffffffffffffffffffffffffffffffffffffffff16635c975abb6040518163ffffffff1660e01b8152600401602060405180830381865afa158015610fa1573d5f5f3e3d5ffd5b505050506040513d601f19601f82011682018060405250810190610fc59190611f81565b15610ffc576040517f9e68cf0b00000000000000000000000000000000000000000000000000000000815260040160405180910390fd5b5f8111611035576040517febfc7cdc00000000000000000000000000000000000000000000000000000000815260040160405180910390fd5b5f5f5f3373ffffffffffffffffffffffffffffffffffffffff1673ffffffffffffffffffffffffffffffffffffffff1681526020019081526020015f205f8573ffffffffffffffffffffffffffffffffffffffff1673ffffffffffffffffffffffffffffffffffffffff1681526020019081526020015f205f8473ffffffffffffffffffffffffffffffffffffffff1673ffffffffffffffffffffffffffffffffffffffff1681526020019081526020015f20905081815f01541015815f0154839091611139576040517f3db4e691000000000000000000000000000000000000000000000000000000008152600401611130929190611fac565b60405180910390fd5b50508181600101819055507f0000000000000000000000000000000000000000000000000000000000000000426111709190612193565b81600201819055508273ffffffffffffffffffffffffffffffffffffffff168473ffffffffffffffffffffffffffffffffffffffff163373ffffffffffffffffffffffffffffffffffffffff167fba109e8a47e57c895aa1802554cd51025499c2b07c3c9b467c70413a4434ffbc8585600201546040516111f2929190611fac565b60405180910390a450505050565b6112086114ee565b73ffffffffffffffffffffffffffffffffffffffff16635c975abb6040518163ffffffff1660e01b8152600401602060405180830381865afa158015611250573d5f5f3e3d5ffd5b505050506040513d601f19601f820116820180604052508101906112749190611f81565b156112ab576040517f9e68cf0b00000000000000000000000000000000000000000000000000000000815260040160405180910390fd5b5f5f5f3373ffffffffffffffffffffffffffffffffffffffff1673ffffffffffffffffffffffffffffffffffffffff1681526020019081526020015f205f8473ffffffffffffffffffffffffffffffffffffffff1673ffffffffffffffffffffffffffffffffffffffff1681526020019081526020015f205f8373ffffffffffffffffffffffffffffffffffffffff1673ffffffffffffffffffffffffffffffffffffffff1681526020019081526020015f2090505f81600201540361139d576040517f8cbd172f00000000000000000000000000000000000000000000000000000000815260040160405180910390fd5b4281600201541042826002015490916113ed576040517f78a1b6f20000000000000000000000000000000000000000000000000000000081526004016113e4929190611fac565b60405180910390fd5b50505f815f015482600101541161140857816001015461140d565b815f01545b905080825f015f8282546114219190612000565b925050819055505f82600101819055505f826002018190555061146c3382611447611515565b73ffffffffffffffffffffffffffffffffffffffff166117a09092919063ffffffff16565b8273ffffffffffffffffffffffffffffffffffffffff168473ffffffffffffffffffffffffffffffffffffffff163373ffffffffffffffffffffffffffffffffffffffff167f3115d1449a7b732c986cba18244e897a450f61e1bb8d589cd2e69e6c8924f9f7846040516114e09190611cae565b60405180910390a450505050565b5f7f0000000000000000000000000000000000000000000000000000000000000000905090565b5f7f0000000000000000000000000000000000000000000000000000000000000000905090565b5f7f0000000000000000000000000000000000000000000000000000000000000000905090565b805f5f8673ffffffffffffffffffffffffffffffffffffffff1673ffffffffffffffffffffffffffffffffffffffff1681526020019081526020015f205f8573ffffffffffffffffffffffffffffffffffffffff1673ffffffffffffffffffffffffffffffffffffffff1681526020019081526020015f205f8473ffffffffffffffffffffffffffffffffffffffff1673ffffffffffffffffffffffffffffffffffffffff1681526020019081526020015f205f015f8282546116269190612193565b9250508190555061165f338261163a611515565b73ffffffffffffffffffffffffffffffffffffffff166118689092919063ffffffff16565b8173ffffffffffffffffffffffffffffffffffffffff168373ffffffffffffffffffffffffffffffffffffffff168573ffffffffffffffffffffffffffffffffffffffff167f7cfff908a4b583f36430b25d75964c458d8ede8a99bd61be750e97ee1b2f3a96846040516116d39190611cae565b60405180910390a450505050565b5f7ff0c57e16840df040f15088dc2f81fe391c3923bec73e23a9662efc9c229c6a00905090565b611710611932565b565b5f33905090565b5f5f905090565b60605f5f8473ffffffffffffffffffffffffffffffffffffffff16846040516117499190612404565b5f60405180830381855af49150503d805f8114611781576040519150601f19603f3d011682016040523d82523d5f602084013e611786565b606091505b5091509150611796858383611972565b9250505092915050565b5f811115611863578273ffffffffffffffffffffffffffffffffffffffff1663a9059cbb83836040518363ffffffff1660e01b81526004016117e392919061209a565b6020604051808303815f875af11580156117ff573d5f5f3e3d5ffd5b505050506040513d601f19601f820116820180604052508101906118239190611f81565b611862576040517f08c379a000000000000000000000000000000000000000000000000000000000815260040161185990612474565b60405180910390fd5b5b505050565b5f81111561192d578273ffffffffffffffffffffffffffffffffffffffff166323b872dd8330846040518463ffffffff1660e01b81526004016118ad93929190612492565b6020604051808303815f875af11580156118c9573d5f5f3e3d5ffd5b505050506040513d601f19601f820116820180604052508101906118ed9190611f81565b61192c576040517f08c379a000000000000000000000000000000000000000000000000000000000815260040161192390612474565b60405180910390fd5b5b505050565b61193a6119ff565b611970576040517fd7e6bcf800000000000000000000000000000000000000000000000000000000815260040160405180910390fd5b565b6060826119875761198282611a1d565b6119f7565b5f82511480156119ad57505f8473ffffffffffffffffffffffffffffffffffffffff163b145b156119ef57836040517f9996b3150000000000000000000000000000000000000000000000000000000081526004016119e69190612042565b60405180910390fd5b8190506119f8565b5b9392505050565b5f611a086116e1565b5f0160089054906101000a900460ff16905090565b5f81511115611a2f5780518082602001fd5b6040517fd6bda27500000000000000000000000000000000000000000000000000000000815260040160405180910390fd5b5f5ffd5b5f5ffd5b60038110611a75575f5ffd5b50565b5f81359050611a8681611a69565b92915050565b5f73ffffffffffffffffffffffffffffffffffffffff82169050919050565b5f611ab582611a8c565b9050919050565b611ac581611aab565b8114611acf575f5ffd5b50565b5f81359050611ae081611abc565b92915050565b5f819050919050565b611af881611ae6565b8114611b02575f5ffd5b50565b5f81359050611b1381611aef565b92915050565b5f5f5f5f5f5f5f60e0888a031215611b3457611b33611a61565b5b5f611b418a828b01611a78565b9750506020611b528a828b01611ad2565b9650506040611b638a828b01611ad2565b9550506060611b748a828b01611b05565b9450506080611b858a828b01611ad2565b93505060a0611b968a828b01611b05565b92505060c0611ba78a828b01611ad2565b91505092959891949750929550565b5f5f5f5f60808587031215611bce57611bcd611a61565b5b5f611bdb87828801611ad2565b9450506020611bec87828801611ad2565b9350506040611bfd87828801611ad2565b9250506060611c0e87828801611b05565b91505092959194509250565b5f5f5f60608486031215611c3157611c30611a61565b5b5f611c3e86828701611ad2565b9350506020611c4f86828701611ad2565b9250506040611c6086828701611ad2565b9150509250925092565b611c7381611ae6565b82525050565b5f606082019050611c8c5f830186611c6a565b611c996020830185611c6a565b611ca66040830184611c6a565b949350505050565b5f602082019050611cc15f830184611c6a565b92915050565b5f5f5f60608486031215611cde57611cdd611a61565b5b5f611ceb86828701611ad2565b9350506020611cfc86828701611ad2565b9250506040611d0d86828701611b05565b9150509250925092565b5f5ffd5b5f5ffd5b5f5ffd5b5f5f83601f840112611d3857611d37611d17565b5b8235905067ffffffffffffffff811115611d5557611d54611d1b565b5b602083019150836020820283011115611d7157611d70611d1f565b5b9250929050565b5f5f60208385031215611d8e57611d8d611a61565b5b5f83013567ffffffffffffffff811115611dab57611daa611a65565b5b611db785828601611d23565b92509250509250929050565b5f81519050919050565b5f82825260208201905092915050565b5f819050602082019050919050565b5f81519050919050565b5f82825260208201905092915050565b8281835e5f83830152505050565b5f601f19601f8301169050919050565b5f611e2e82611dec565b611e388185611df6565b9350611e48818560208601611e06565b611e5181611e14565b840191505092915050565b5f611e678383611e24565b905092915050565b5f602082019050919050565b5f611e8582611dc3565b611e8f8185611dcd565b935083602082028501611ea185611ddd565b805f5b85811015611edc5784840389528151611ebd8582611e5c565b9450611ec883611e6f565b925060208a01995050600181019050611ea4565b50829750879550505050505092915050565b5f6020820190508181035f830152611f068184611e7b565b905092915050565b5f5f60408385031215611f2457611f23611a61565b5b5f611f3185828601611ad2565b9250506020611f4285828601611ad2565b9150509250929050565b5f8115159050919050565b611f6081611f4c565b8114611f6a575f5ffd5b50565b5f81519050611f7b81611f57565b92915050565b5f60208284031215611f9657611f95611a61565b5b5f611fa384828501611f6d565b91505092915050565b5f604082019050611fbf5f830185611c6a565b611fcc6020830184611c6a565b9392505050565b7f4e487b71000000000000000000000000000000000000000000000000000000005f52601160045260245ffd5b5f61200a82611ae6565b915061201583611ae6565b925082820390508181111561202d5761202c611fd3565b5b92915050565b61203c81611aab565b82525050565b5f6020820190506120555f830184612033565b92915050565b5f8151905061206981611aef565b92915050565b5f6020828403121561208457612083611a61565b5b5f6120918482850161205b565b91505092915050565b5f6040820190506120ad5f830185612033565b6120ba6020830184611c6a565b9392505050565b7f4e487b71000000000000000000000000000000000000000000000000000000005f52602160045260245ffd5b600381106120ff576120fe6120c1565b5b50565b5f81905061210f826120ee565b919050565b5f61211e82612102565b9050919050565b61212e81612114565b82525050565b5f60c0820190506121475f830189612125565b6121546020830188612033565b6121616040830187611c6a565b61216e6060830186612033565b61217b6080830185611c6a565b61218860a0830184612033565b979650505050505050565b5f61219d82611ae6565b91506121a883611ae6565b92508282019050808211156121c0576121bf611fd3565b5b92915050565b5f6060820190506121d95f830186612033565b6121e66020830185611c6a565b6121f36040830184612033565b949350505050565b5f819050919050565b5f67ffffffffffffffff82169050919050565b5f819050919050565b5f61223a612235612230846121fb565b612217565b612204565b9050919050565b61224a81612220565b82525050565b5f6020820190506122635f830184612241565b92915050565b5f5ffd5b5f5ffd5b5f5f8585111561228457612283612269565b5b838611156122955761229461226d565b5b6001850283019150848603905094509492505050565b7f4e487b71000000000000000000000000000000000000000000000000000000005f52604160045260245ffd5b7f4e487b71000000000000000000000000000000000000000000000000000000005f52603260045260245ffd5b5f5ffd5b5f5ffd5b5f5ffd5b5f5f8335600160200384360303811261232d5761232c612305565b5b80840192508235915067ffffffffffffffff82111561234f5761234e612309565b5b60208301925060018202360383131561236b5761236a61230d565b5b509250929050565b5f81905092915050565b828183375f83830152505050565b5f6123968385612373565b93506123a383858461237d565b82840190509392505050565b5f6123b982611dec565b6123c38185612373565b93506123d3818560208601611e06565b80840191505092915050565b5f6123eb82858761238b565b91506123f782846123af565b9150819050949350505050565b5f61240f82846123af565b915081905092915050565b5f82825260208201905092915050565b7f217472616e7366657200000000000000000000000000000000000000000000005f82015250565b5f61245e60098361241a565b91506124698261242a565b602082019050919050565b5f6020820190508181035f83015261248b81612452565b9050919050565b5f6060820190506124a55f830186612033565b6124b26020830185612033565b6124bf6040830184611c6a565b94935050505056fea2646970667358221220d89c29fee78e2522c97c0b97179a61886e144fdf71d203c2490dd6da8d5577be64736f6c634300081b0033","linkReferences":{}},"methodIdentifiers":{"MAX_WAIT_PERIOD()":"b2168b6b","WITHDRAW_ESCROW_THAWING_PERIOD()":"7b8ae6cf","cancelThaw(address,address)":"b1d07de4","collect(uint8,address,address,uint256,address,uint256,address)":"1230fa3e","deposit(address,address,uint256)":"8340f549","depositTo(address,address,address,uint256)":"72eb521e","escrowAccounts(address,address,address)":"7a8df28b","getBalance(address,address,address)":"d6bd603c","initialize()":"8129fc1c","multicall(bytes[])":"ac9650d8","thaw(address,address,uint256)":"f93f1cd0","withdraw(address,address)":"f940e385"},"id":8}