{"abi":[{"type":"constructor","inputs":[{"name":"controller","type":"address","internalType":"address"},{"name":"graphTallyCollector","type":"address","internalType":"address"}],"stateMutability":"nonpayable"},{"type":"function","name":"GRAPH_TALLY_COLLECTOR","inputs":[],"outputs":[{"name":"","type":"address","internalType":"contract IGraphTallyCollector"}],"stateMutability":"view"},{"type":"function","name":"acceptProvisionPendingParameters","inputs":[{"name":"indexer","type":"address","internalType":"address"},{"name":"","type":"bytes","internalType":"bytes"}],"outputs":[],"stateMutability":"nonpayable"},{"type":"function","name":"collect","inputs":[{"name":"indexer","type":"address","internalType":"address"},{"name":"paymentType","type":"uint8","internalType":"enum IGraphPayments.PaymentTypes"},{"name":"data","type":"bytes","internalType":"bytes"}],"outputs":[{"name":"","type":"uint256","internalType":"uint256"}],"stateMutability":"nonpayable"},{"type":"function","name":"getDelegationRatio","inputs":[],"outputs":[{"name":"","type":"uint32","internalType":"uint32"}],"stateMutability":"view"},{"type":"function","name":"getProvisionTokensRange","inputs":[],"outputs":[{"name":"","type":"uint256","internalType":"uint256"},{"name":"","type":"uint256","internalType":"uint256"}],"stateMutability":"view"},{"type":"function","name":"getThawingPeriodRange","inputs":[],"outputs":[{"name":"","type":"uint64","internalType":"uint64"},{"name":"","type":"uint64","internalType":"uint64"}],"stateMutability":"view"},{"type":"function","name":"getVerifierCutRange","inputs":[],"outputs":[{"name":"","type":"uint32","internalType":"uint32"},{"name":"","type":"uint32","internalType":"uint32"}],"stateMutability":"view"},{"type":"function","name":"isRegistered","inputs":[{"name":"","type":"address","internalType":"address"}],"outputs":[{"name":"","type":"bool","internalType":"bool"}],"stateMutability":"view"},{"type":"function","name":"paymentsDestination","inputs":[{"name":"","type":"address","internalType":"address"}],"outputs":[{"name":"","type":"address","internalType":"address"}],"stateMutability":"view"},{"type":"function","name":"register","inputs":[{"name":"indexer","type":"address","internalType":"address"},{"name":"data","type":"bytes","internalType":"bytes"}],"outputs":[],"stateMutability":"nonpayable"},{"type":"function","name":"setPaymentsDestination","inputs":[{"name":"paymentsDestination_","type":"address","internalType":"address"}],"outputs":[],"stateMutability":"nonpayable"},{"type":"function","name":"setProvisionTokensRange","inputs":[{"name":"minimumProvisionTokens","type":"uint256","internalType":"uint256"}],"outputs":[],"stateMutability":"nonpayable"},{"type":"function","name":"slash","inputs":[{"name":"","type":"address","internalType":"address"},{"name":"","type":"bytes","internalType":"bytes"}],"outputs":[],"stateMutability":"pure"},{"type":"function","name":"startService","inputs":[{"name":"","type":"address","internalType":"address"},{"name":"","type":"bytes","internalType":"bytes"}],"outputs":[],"stateMutability":"pure"},{"type":"function","name":"stopService","inputs":[{"name":"","type":"address","internalType":"address"},{"name":"","type":"bytes","internalType":"bytes"}],"outputs":[],"stateMutability":"pure"},{"type":"event","name":"DelegationRatioSet","inputs":[{"name":"ratio","type":"uint32","indexed":false,"internalType":"uint32"}],"anonymous":false},{"type":"event","name":"GraphDirectoryInitialized","inputs":[{"name":"graphToken","type":"address","indexed":true,"internalType":"address"},{"name":"graphStaking","type":"address","indexed":true,"internalType":"address"},{"name":"graphPayments","type":"address","indexed":false,"internalType":"address"},{"name":"graphEscrow","type":"address","indexed":false,"internalType":"address"},{"name":"graphController","type":"address","indexed":true,"internalType":"address"},{"name":"graphEpochManager","type":"address","indexed":false,"internalType":"address"},{"name":"graphRewardsManager","type":"address","indexed":false,"internalType":"address"},{"name":"graphTokenGateway","type":"address","indexed":false,"internalType":"address"},{"name":"graphProxyAdmin","type":"address","indexed":false,"internalType":"address"},{"name":"graphCuration","type":"address","indexed":false,"internalType":"address"}],"anonymous":false},{"type":"event","name":"Initialized","inputs":[{"name":"version","type":"uint64","indexed":false,"internalType":"uint64"}],"anonymous":false},{"type":"event","name":"PaymentsDestinationSet","inputs":[{"name":"indexer","type":"address","indexed":true,"internalType":"address"},{"name":"destination","type":"address","indexed":true,"internalType":"address"}],"anonymous":false},{"type":"event","name":"ProvisionPendingParametersAccepted","inputs":[{"name":"serviceProvider","type":"address","indexed":true,"internalType":"address"}],"anonymous":false},{"type":"event","name":"ProvisionTokensRangeSet","inputs":[{"name":"min","type":"uint256","indexed":false,"internalType":"uint256"},{"name":"max","type":"uint256","indexed":false,"internalType":"uint256"}],"anonymous":false},{"type":"event","name":"ServicePaymentCollected","inputs":[{"name":"serviceProvider","type":"address","indexed":true,"internalType":"address"},{"name":"feeType","type":"uint8","indexed":true,"internalType":"enum IGraphPayments.PaymentTypes"},{"name":"tokens","type":"uint256","indexed":false,"internalType":"uint256"}],"anonymous":false},{"type":"event","name":"ServiceProviderRegistered","inputs":[{"name":"serviceProvider","type":"address","indexed":true,"internalType":"address"},{"name":"data","type":"bytes","indexed":false,"internalType":"bytes"}],"anonymous":false},{"type":"event","name":"ServiceProviderSlashed","inputs":[{"name":"serviceProvider","type":"address","indexed":true,"internalType":"address"},{"name":"tokens","type":"uint256","indexed":false,"internalType":"uint256"}],"anonymous":false},{"type":"event","name":"ServiceStarted","inputs":[{"name":"serviceProvider","type":"address","indexed":true,"internalType":"address"},{"name":"data","type":"bytes","indexed":false,"internalType":"bytes"}],"anonymous":false},{"type":"event","name":"ServiceStopped","inputs":[{"name":"serviceProvider","type":"address","indexed":true,"internalType":"address"},{"name":"data","type":"bytes","indexed":false,"internalType":"bytes"}],"anonymous":false},{"type":"event","name":"ThawingPeriodRangeSet","inputs":[{"name":"min","type":"uint64","indexed":false,"internalType":"uint64"},{"name":"max","type":"uint64","indexed":false,"internalType":"uint64"}],"anonymous":false},{"type":"event","name":"VerifierCutRangeSet","inputs":[{"name":"min","type":"uint32","indexed":false,"internalType":"uint32"},{"name":"max","type":"uint32","indexed":false,"internalType":"uint32"}],"anonymous":false},{"type":"error","name":"GraphDirectoryInvalidZeroAddress","inputs":[{"name":"contractName","type":"bytes","internalType":"bytes"}]},{"type":"error","name":"InvalidInitialization","inputs":[]},{"type":"error","name":"NotInitializing","inputs":[]},{"type":"error","name":"ProvisionManagerInvalidRange","inputs":[{"name":"min","type":"uint256","internalType":"uint256"},{"name":"max","type":"uint256","internalType":"uint256"}]},{"type":"error","name":"ProvisionManagerInvalidValue","inputs":[{"name":"message","type":"bytes","internalType":"bytes"},{"name":"value","type":"uint256","internalType":"uint256"},{"name":"min","type":"uint256","internalType":"uint256"},{"name":"max","type":"uint256","internalType":"uint256"}]},{"type":"error","name":"ProvisionManagerNotAuthorized","inputs":[{"name":"serviceProvider","type":"address","internalType":"address"},{"name":"caller","type":"address","internalType":"address"}]},{"type":"error","name":"ProvisionManagerProvisionNotFound","inputs":[{"name":"serviceProvider","type":"address","internalType":"address"}]},{"type":"error","name":"SubstreamsDataServiceIndexerMismatch","inputs":[{"name":"ravServiceProvider","type":"address","internalType":"address"},{"name":"indexer","type":"address","internalType":"address"}]},{"type":"error","name":"SubstreamsDataServiceIndexerNotRegistered","inputs":[{"name":"indexer","type":"address","internalType":"address"}]},{"type":"error","name":"SubstreamsDataServiceInvalidPaymentType","inputs":[{"name":"paymentType","type":"uint8","internalType":"enum IGraphPayments.PaymentTypes"}]}],"bytecode":{"object":"0x6101e0604052348015610010575f5ffd5b50604051612a80380380612a808339818101604052810190610032919061087e565b81805f73ffffffffffffffffffffffffffffffffffffffff168173ffffffffffffffffffffffffffffffffffffffff16036100a2576040517f431eb5ba00000000000000000000000000000000000000000000000000000000815260040161009990610916565b60405180910390fd5b8073ffffffffffffffffffffffffffffffffffffffff166101008173ffffffffffffffffffffffffffffffffffffffff168152505061011b6040518060400160405280600a81526020017f4772617068546f6b656e000000000000000000000000000000000000000000008152506105f960201b60201c565b73ffffffffffffffffffffffffffffffffffffffff1660808173ffffffffffffffffffffffffffffffffffffffff16815250506101926040518060400160405280600781526020017f5374616b696e67000000000000000000000000000000000000000000000000008152506105f960201b60201c565b73ffffffffffffffffffffffffffffffffffffffff1660a08173ffffffffffffffffffffffffffffffffffffffff16815250506102096040518060400160405280600d81526020017f47726170685061796d656e7473000000000000000000000000000000000000008152506105f960201b60201c565b73ffffffffffffffffffffffffffffffffffffffff1660c08173ffffffffffffffffffffffffffffffffffffffff16815250506102806040518060400160405280600e81526020017f5061796d656e7473457363726f770000000000000000000000000000000000008152506105f960201b60201c565b73ffffffffffffffffffffffffffffffffffffffff1660e08173ffffffffffffffffffffffffffffffffffffffff16815250506102f76040518060400160405280600c81526020017f45706f63684d616e6167657200000000000000000000000000000000000000008152506105f960201b60201c565b73ffffffffffffffffffffffffffffffffffffffff166101208173ffffffffffffffffffffffffffffffffffffffff168152505061036f6040518060400160405280600e81526020017f526577617264734d616e616765720000000000000000000000000000000000008152506105f960201b60201c565b73ffffffffffffffffffffffffffffffffffffffff166101408173ffffffffffffffffffffffffffffffffffffffff16815250506103e76040518060400160405280601181526020017f4772617068546f6b656e476174657761790000000000000000000000000000008152506105f960201b60201c565b73ffffffffffffffffffffffffffffffffffffffff166101608173ffffffffffffffffffffffffffffffffffffffff168152505061045f6040518060400160405280600f81526020017f477261706850726f787941646d696e00000000000000000000000000000000008152506105f960201b60201c565b73ffffffffffffffffffffffffffffffffffffffff166101808173ffffffffffffffffffffffffffffffffffffffff16815250506104d76040518060400160405280600881526020017f4375726174696f6e0000000000000000000000000000000000000000000000008152506105f960201b60201c565b73ffffffffffffffffffffffffffffffffffffffff166101a08173ffffffffffffffffffffffffffffffffffffffff16815250506101005173ffffffffffffffffffffffffffffffffffffffff1660a05173ffffffffffffffffffffffffffffffffffffffff1660805173ffffffffffffffffffffffffffffffffffffffff167fef5021414834d86e36470f5c1cecf6544fb2bb723f2ca51a4c86fcd8c5919a4360c05160e051610120516101405161016051610180516101a0516040516105a59796959493929190610943565b60405180910390a450508073ffffffffffffffffffffffffffffffffffffffff166101c08173ffffffffffffffffffffffffffffffffffffffff16815250506105f26106fb60201b60201c565b5050610ac7565b5f5f6101005173ffffffffffffffffffffffffffffffffffffffff1663f7641a5e84805190602001206040518263ffffffff1660e01b815260040161063e91906109c8565b602060405180830381865afa158015610659573d5f5f3e3d5ffd5b505050506040513d601f19601f8201168201806040525081019061067d91906109e1565b90505f73ffffffffffffffffffffffffffffffffffffffff168173ffffffffffffffffffffffffffffffffffffffff16141583906106f1576040517f431eb5ba0000000000000000000000000000000000000000000000000000000081526004016106e89190610a6c565b60405180910390fd5b5080915050919050565b5f61070a6107f960201b60201c565b9050805f0160089054906101000a900460ff1615610754576040517ff92ee8a900000000000000000000000000000000000000000000000000000000815260040160405180910390fd5b67ffffffffffffffff8016815f015f9054906101000a900467ffffffffffffffff1667ffffffffffffffff16146107f65767ffffffffffffffff815f015f6101000a81548167ffffffffffffffff021916908367ffffffffffffffff1602179055507fc7f505b2f371ae2175ee4913f4499e1f2633a7b5936321eed1cdaeb6115181d267ffffffffffffffff6040516107ed9190610aae565b60405180910390a15b50565b5f7ff0c57e16840df040f15088dc2f81fe391c3923bec73e23a9662efc9c229c6a00905090565b5f5ffd5b5f73ffffffffffffffffffffffffffffffffffffffff82169050919050565b5f61084d82610824565b9050919050565b61085d81610843565b8114610867575f5ffd5b50565b5f8151905061087881610854565b92915050565b5f5f6040838503121561089457610893610820565b5b5f6108a18582860161086a565b92505060206108b28582860161086a565b9150509250929050565b5f82825260208201905092915050565b7f436f6e74726f6c6c6572000000000000000000000000000000000000000000005f82015250565b5f610900600a836108bc565b915061090b826108cc565b602082019050919050565b5f6020820190508181035f83015261092d816108f4565b9050919050565b61093d81610843565b82525050565b5f60e0820190506109565f83018a610934565b6109636020830189610934565b6109706040830188610934565b61097d6060830187610934565b61098a6080830186610934565b61099760a0830185610934565b6109a460c0830184610934565b98975050505050505050565b5f819050919050565b6109c2816109b0565b82525050565b5f6020820190506109db5f8301846109b9565b92915050565b5f602082840312156109f6576109f5610820565b5b5f610a038482850161086a565b91505092915050565b5f81519050919050565b8281835e5f83830152505050565b5f601f19601f8301169050919050565b5f610a3e82610a0c565b610a4881856108bc565b9350610a58818560208601610a16565b610a6181610a24565b840191505092915050565b5f6020820190508181035f830152610a848184610a34565b905092915050565b5f67ffffffffffffffff82169050919050565b610aa881610a8c565b82525050565b5f602082019050610ac15f830184610a9f565b92915050565b60805160a05160c05160e05161010051610120516101405161016051610180516101a0516101c051611f54610b2c5f395f818161054e0152610e2901525f50505f50505f50505f50505f50505f50505f50505f50505f61093901525f5050611f545ff3fe608060405234801561000f575f5ffd5b50600436106100f3575f3560e01c8063819ba36611610095578063c3c5a54711610064578063c3c5a54714610260578063cb8347fe14610290578063ce0fc0cc146102ac578063dedf6726146102c8576100f3565b8063819ba366146101d75780638d84925d146101f65780639309d70e14610212578063b15d2a2c14610230576100f3565b8063482468b7116100d1578063482468b7146101615780636ccec5b81461018057806371ce020a1461019c5780638180083b146101bb576100f3565b806307e736d8146100f75780631ebb7c301461012757806324b8fbf614610145575b5f5ffd5b610111600480360381019061010c919061114a565b6102e4565b60405161011e9190611184565b60405180910390f35b61012f610314565b60405161013c91906111bb565b60405180910390f35b61015f600480360381019061015a9190611235565b610322565b005b6101696104d7565b604051610177929190611292565b60405180910390f35b61019a6004803603810190610195919061114a565b6104e9565b005b6101a46104f6565b6040516101b29291906112db565b60405180910390f35b6101d560048036038101906101d09190611235565b610508565b005b6101df61050d565b6040516101ed92919061131a565b60405180910390f35b610210600480360381019061020b919061136b565b61051f565b005b61021a61054c565b60405161022791906113f1565b60405180910390f35b61024a6004803603810190610245919061142d565b610570565b604051610257919061149e565b60405180910390f35b61027a6004803603810190610275919061114a565b6107d9565b60405161028791906114d1565b60405180910390f35b6102aa60048036038101906102a59190611235565b6107f6565b005b6102c660048036038101906102c19190611235565b6107fb565b005b6102e260048036038101906102dd9190611235565b610918565b005b6068602052805f5260405f205f915054906101000a900473ffffffffffffffffffffffffffffffffffffffff1681565b5f61031d61091d565b905090565b8261032b610936565b73ffffffffffffffffffffffffffffffffffffffff16637c145cc78230336040518463ffffffff1660e01b8152600401610367939291906114ea565b602060405180830381865afa158015610382573d5f5f3e3d5ffd5b505050506040513d601f19601f820116820180604052508101906103a69190611549565b813390916103eb576040517fcc5d3c8b0000000000000000000000000000000000000000000000000000000081526004016103e2929190611574565b60405180910390fd5b5050835f6103f88261095d565b905061040381610a48565b61040d815f610aa1565b5f858581019061041d91906115d6565b9050600160675f8973ffffffffffffffffffffffffffffffffffffffff1673ffffffffffffffffffffffffffffffffffffffff1681526020019081526020015f205f6101000a81548160ff02191690831515021790555061047e8782610ba9565b8673ffffffffffffffffffffffffffffffffffffffff167f159567bea25499a91f60e1fbb349ff2a1f8c1b2883198f25c1e12c99eddb44fa87876040516104c692919061165b565b60405180910390a250505050505050565b5f5f6104e1610c81565b915091509091565b6104f33382610ba9565b50565b5f5f610500610cb1565b915091509091565b505050565b5f5f610517610ce8565b915091509091565b610549817fffffffffffffffffffffffffffffffffffffffffffffffffffffffffffffffff610cf7565b50565b7f000000000000000000000000000000000000000000000000000000000000000081565b5f8461057a610936565b73ffffffffffffffffffffffffffffffffffffffff16637c145cc78230336040518463ffffffff1660e01b81526004016105b6939291906114ea565b602060405180830381865afa1580156105d1573d5f5f3e3d5ffd5b505050506040513d601f19601f820116820180604052508101906105f59190611549565b8133909161063a576040517fcc5d3c8b000000000000000000000000000000000000000000000000000000008152600401610631929190611574565b60405180910390fd5b5050855f6106478261095d565b905061065281610a48565b61065c815f610aa1565b8760675f8273ffffffffffffffffffffffffffffffffffffffff1673ffffffffffffffffffffffffffffffffffffffff1681526020019081526020015f205f9054906101000a900460ff1681906106e9576040517fd687f5280000000000000000000000000000000000000000000000000000000081526004016106e09190611184565b60405180910390fd5b505f5f90505f60028111156107015761070061167d565b5b8960028111156107145761071361167d565b5b0361072b576107248a8989610d8c565b9050610768565b886040517f94341e9d00000000000000000000000000000000000000000000000000000000815260040161075f91906116f0565b60405180910390fd5b88600281111561077b5761077a61167d565b5b8a73ffffffffffffffffffffffffffffffffffffffff167f54fe682bfb66381a9382e13e4b95a3dd4f960eafbae063fdea3539d144ff3ff5836040516107c1919061149e565b60405180910390a38095505050505050949350505050565b6067602052805f5260405f205f915054906101000a900460ff1681565b505050565b82610804610936565b73ffffffffffffffffffffffffffffffffffffffff16637c145cc78230336040518463ffffffff1660e01b8152600401610840939291906114ea565b602060405180830381865afa15801561085b573d5f5f3e3d5ffd5b505050506040513d601f19601f8201168201806040525081019061087f9190611549565b813390916108c4576040517fcc5d3c8b0000000000000000000000000000000000000000000000000000000081526004016108bb929190611574565b60405180910390fd5b50506108cf84610f52565b8373ffffffffffffffffffffffffffffffffffffffff167ff53cf6521a1b5fc0c04bffa70374a4dc2e3474f2b2ac1643c3bcc54e2db4a93960405160405180910390a250505050565b505050565b5f600260189054906101000a900463ffffffff16905090565b5f7f0000000000000000000000000000000000000000000000000000000000000000905090565b61096561106c565b5f61096e610936565b73ffffffffffffffffffffffffffffffffffffffff166325d9897e84306040518363ffffffff1660e01b81526004016109a8929190611574565b61014060405180830381865afa1580156109c4573d5f5f3e3d5ffd5b505050506040513d601f19601f820116820180604052508101906109e891906118e4565b90505f8160a0015167ffffffffffffffff1614158390610a3e576040517f7b3c09bf000000000000000000000000000000000000000000000000000000008152600401610a359190611184565b60405180910390fd5b5080915050919050565b610a9e8160200151825f0151610a5e919061193d565b5f546001546040518060400160405280600681526020017f746f6b656e730000000000000000000000000000000000000000000000000000815250610fcd565b50565b5f5f610aab610cb1565b915091505f83610abf578460800151610ac5565b8460e001515b9050610b268167ffffffffffffffff168467ffffffffffffffff168467ffffffffffffffff166040518060400160405280600d81526020017f74686177696e67506572696f6400000000000000000000000000000000000000815250610fcd565b5f5f610b30610c81565b915091505f86610b44578760600151610b4a565b8760c001515b9050610b9f8163ffffffff168463ffffffff168463ffffffff166040518060400160405280600e81526020017f6d61785665726966696572437574000000000000000000000000000000000000815250610fcd565b5050505050505050565b8060685f8473ffffffffffffffffffffffffffffffffffffffff1673ffffffffffffffffffffffffffffffffffffffff1681526020019081526020015f205f6101000a81548173ffffffffffffffffffffffffffffffffffffffff021916908373ffffffffffffffffffffffffffffffffffffffff1602179055508073ffffffffffffffffffffffffffffffffffffffff168273ffffffffffffffffffffffffffffffffffffffff167e3215dc05a2fc4e6a1e2c2776311d207c730ee51085aae221acc5cbe6fb55c160405160405180910390a35050565b5f5f600260109054906101000a900463ffffffff16600260149054906101000a900463ffffffff16915091509091565b5f5f60025f9054906101000a900467ffffffffffffffff16600260089054906101000a900467ffffffffffffffff16915091509091565b5f5f5f54600154915091509091565b8082111582829091610d40576040517fccccdafb000000000000000000000000000000000000000000000000000000008152600401610d3792919061131a565b60405180910390fd5b5050815f81905550806001819055507f90699b8b4bf48918fea1129c85f9bc7b51285df7ecc982910813c7805f5688498282604051610d8092919061131a565b60405180910390a15050565b5f5f5f8484810190610d9e9190611bf0565b915091508573ffffffffffffffffffffffffffffffffffffffff16825f01516040015173ffffffffffffffffffffffffffffffffffffffff1614825f015160400151879091610e24576040517f920958e8000000000000000000000000000000000000000000000000000000008152600401610e1b929190611574565b60405180910390fd5b50505f7f000000000000000000000000000000000000000000000000000000000000000073ffffffffffffffffffffffffffffffffffffffff1663692209ce5f858560685f8d73ffffffffffffffffffffffffffffffffffffffff1673ffffffffffffffffffffffffffffffffffffffff1681526020019081526020015f205f9054906101000a900473ffffffffffffffffffffffffffffffffffffffff16604051602001610ed593929190611dc0565b6040516020818303038152906040525f6040518463ffffffff1660e01b8152600401610f0393929190611e6d565b6020604051808303815f875af1158015610f1f573d5f5f3e3d5ffd5b505050506040513d601f19601f82011682018060405250810190610f439190611ea9565b90508093505050509392505050565b610f5d816001611037565b610f65610936565b73ffffffffffffffffffffffffffffffffffffffff16633a78b732826040518263ffffffff1660e01b8152600401610f9d9190611184565b5f604051808303815f87803b158015610fb4575f5ffd5b505af1158015610fc6573d5f5f3e3d5ffd5b5050505050565b610fe28383866110529092919063ffffffff16565b818585859091929361102d576040517f0871e13d0000000000000000000000000000000000000000000000000000000081526004016110249493929190611ed4565b60405180910390fd5b5050505050505050565b5f6110418361095d565b905061104d8183610aa1565b505050565b5f8284101580156110635750818411155b90509392505050565b6040518061014001604052805f81526020015f81526020015f81526020015f63ffffffff1681526020015f67ffffffffffffffff1681526020015f67ffffffffffffffff1681526020015f63ffffffff1681526020015f67ffffffffffffffff1681526020015f81526020015f81525090565b5f604051905090565b5f5ffd5b5f5ffd5b5f73ffffffffffffffffffffffffffffffffffffffff82169050919050565b5f611119826110f0565b9050919050565b6111298161110f565b8114611133575f5ffd5b50565b5f8135905061114481611120565b92915050565b5f6020828403121561115f5761115e6110e8565b5b5f61116c84828501611136565b91505092915050565b61117e8161110f565b82525050565b5f6020820190506111975f830184611175565b92915050565b5f63ffffffff82169050919050565b6111b58161119d565b82525050565b5f6020820190506111ce5f8301846111ac565b92915050565b5f5ffd5b5f5ffd5b5f5ffd5b5f5f83601f8401126111f5576111f46111d4565b5b8235905067ffffffffffffffff811115611212576112116111d8565b5b60208301915083600182028301111561122e5761122d6111dc565b5b9250929050565b5f5f5f6040848603121561124c5761124b6110e8565b5b5f61125986828701611136565b935050602084013567ffffffffffffffff81111561127a576112796110ec565b5b611286868287016111e0565b92509250509250925092565b5f6040820190506112a55f8301856111ac565b6112b260208301846111ac565b9392505050565b5f67ffffffffffffffff82169050919050565b6112d5816112b9565b82525050565b5f6040820190506112ee5f8301856112cc565b6112fb60208301846112cc565b9392505050565b5f819050919050565b61131481611302565b82525050565b5f60408201905061132d5f83018561130b565b61133a602083018461130b565b9392505050565b61134a81611302565b8114611354575f5ffd5b50565b5f8135905061136581611341565b92915050565b5f602082840312156113805761137f6110e8565b5b5f61138d84828501611357565b91505092915050565b5f819050919050565b5f6113b96113b46113af846110f0565b611396565b6110f0565b9050919050565b5f6113ca8261139f565b9050919050565b5f6113db826113c0565b9050919050565b6113eb816113d1565b82525050565b5f6020820190506114045f8301846113e2565b92915050565b60038110611416575f5ffd5b50565b5f813590506114278161140a565b92915050565b5f5f5f5f60608587031215611445576114446110e8565b5b5f61145287828801611136565b945050602061146387828801611419565b935050604085013567ffffffffffffffff811115611484576114836110ec565b5b611490878288016111e0565b925092505092959194509250565b5f6020820190506114b15f83018461130b565b92915050565b5f8115159050919050565b6114cb816114b7565b82525050565b5f6020820190506114e45f8301846114c2565b92915050565b5f6060820190506114fd5f830186611175565b61150a6020830185611175565b6115176040830184611175565b949350505050565b611528816114b7565b8114611532575f5ffd5b50565b5f815190506115438161151f565b92915050565b5f6020828403121561155e5761155d6110e8565b5b5f61156b84828501611535565b91505092915050565b5f6040820190506115875f830185611175565b6115946020830184611175565b9392505050565b5f6115a5826110f0565b9050919050565b6115b58161159b565b81146115bf575f5ffd5b50565b5f813590506115d0816115ac565b92915050565b5f602082840312156115eb576115ea6110e8565b5b5f6115f8848285016115c2565b91505092915050565b5f82825260208201905092915050565b828183375f83830152505050565b5f601f19601f8301169050919050565b5f61163a8385611601565b9350611647838584611611565b6116508361161f565b840190509392505050565b5f6020820190508181035f83015261167481848661162f565b90509392505050565b7f4e487b71000000000000000000000000000000000000000000000000000000005f52602160045260245ffd5b600381106116bb576116ba61167d565b5b50565b5f8190506116cb826116aa565b919050565b5f6116da826116be565b9050919050565b6116ea816116d0565b82525050565b5f6020820190506117035f8301846116e1565b92915050565b5f5ffd5b7f4e487b71000000000000000000000000000000000000000000000000000000005f52604160045260245ffd5b6117438261161f565b810181811067ffffffffffffffff821117156117625761176161170d565b5b80604052505050565b5f6117746110df565b9050611780828261173a565b919050565b5f5ffd5b5f8151905061179781611341565b92915050565b6117a68161119d565b81146117b0575f5ffd5b50565b5f815190506117c18161179d565b92915050565b6117d0816112b9565b81146117da575f5ffd5b50565b5f815190506117eb816117c7565b92915050565b5f610140828403121561180757611806611709565b5b61181261014061176b565b90505f61182184828501611789565b5f83015250602061183484828501611789565b602083015250604061184884828501611789565b604083015250606061185c848285016117b3565b6060830152506080611870848285016117dd565b60808301525060a0611884848285016117dd565b60a08301525060c0611898848285016117b3565b60c08301525060e06118ac848285016117dd565b60e0830152506101006118c184828501611789565b610100830152506101206118d784828501611789565b6101208301525092915050565b5f61014082840312156118fa576118f96110e8565b5b5f611907848285016117f1565b91505092915050565b7f4e487b71000000000000000000000000000000000000000000000000000000005f52601160045260245ffd5b5f61194782611302565b915061195283611302565b925082820390508181111561196a57611969611910565b5b92915050565b5f819050919050565b61198281611970565b811461198c575f5ffd5b50565b5f8135905061199d81611979565b92915050565b5f813590506119b1816117c7565b92915050565b5f6fffffffffffffffffffffffffffffffff82169050919050565b6119db816119b7565b81146119e5575f5ffd5b50565b5f813590506119f6816119d2565b92915050565b5f5ffd5b5f67ffffffffffffffff821115611a1a57611a1961170d565b5b611a238261161f565b9050602081019050919050565b5f611a42611a3d84611a00565b61176b565b905082815260208101848484011115611a5e57611a5d6119fc565b5b611a69848285611611565b509392505050565b5f82601f830112611a8557611a846111d4565b5b8135611a95848260208601611a30565b91505092915050565b5f60e08284031215611ab357611ab2611709565b5b611abd60e061176b565b90505f611acc8482850161198f565b5f830152506020611adf84828501611136565b6020830152506040611af384828501611136565b6040830152506060611b0784828501611136565b6060830152506080611b1b848285016119a3565b60808301525060a0611b2f848285016119e8565b60a08301525060c082013567ffffffffffffffff811115611b5357611b52611785565b5b611b5f84828501611a71565b60c08301525092915050565b5f60408284031215611b8057611b7f611709565b5b611b8a604061176b565b90505f82013567ffffffffffffffff811115611ba957611ba8611785565b5b611bb584828501611a9e565b5f83015250602082013567ffffffffffffffff811115611bd857611bd7611785565b5b611be484828501611a71565b60208301525092915050565b5f5f60408385031215611c0657611c056110e8565b5b5f83013567ffffffffffffffff811115611c2357611c226110ec565b5b611c2f85828601611b6b565b9250506020611c4085828601611357565b9150509250929050565b611c5381611970565b82525050565b611c628161110f565b82525050565b611c71816112b9565b82525050565b611c80816119b7565b82525050565b5f81519050919050565b5f82825260208201905092915050565b8281835e5f83830152505050565b5f611cb882611c86565b611cc28185611c90565b9350611cd2818560208601611ca0565b611cdb8161161f565b840191505092915050565b5f60e083015f830151611cfb5f860182611c4a565b506020830151611d0e6020860182611c59565b506040830151611d216040860182611c59565b506060830151611d346060860182611c59565b506080830151611d476080860182611c68565b5060a0830151611d5a60a0860182611c77565b5060c083015184820360c0860152611d728282611cae565b9150508091505092915050565b5f604083015f8301518482035f860152611d998282611ce6565b91505060208301518482036020860152611db38282611cae565b9150508091505092915050565b5f6060820190508181035f830152611dd88186611d7f565b9050611de7602083018561130b565b611df46040830184611175565b949350505050565b5f611e0682611c86565b611e108185611601565b9350611e20818560208601611ca0565b611e298161161f565b840191505092915050565b5f819050919050565b5f611e57611e52611e4d84611e34565b611396565b611302565b9050919050565b611e6781611e3d565b82525050565b5f606082019050611e805f8301866116e1565b8181036020830152611e928185611dfc565b9050611ea16040830184611e5e565b949350505050565b5f60208284031215611ebe57611ebd6110e8565b5b5f611ecb84828501611789565b91505092915050565b5f6080820190508181035f830152611eec8187611dfc565b9050611efb602083018661130b565b611f08604083018561130b565b611f15606083018461130b565b9594505050505056fea2646970667358221220d308f0f0a13fe3075731ad1c1da582112495afcae3814ddf354b3009f569eb2b64736f6c634300081b0033","linkReferences":{}},"methodIdentifiers":{"GRAPH_TALLY_COLLECTOR()":"9309d70e","acceptProvisionPendingParameters(address,bytes)":"ce0fc0cc","collect(address,uint8,bytes)":"b15d2a2c","getDelegationRatio()":"1ebb7c30","getProvisionTokensRange()":"819ba366","getThawingPeriodRange()":"71ce020a","getVerifierCutRange()":"482468b7","isRegistered(address)":"c3c5a547","paymentsDestination(address)":"07e736d8","register(address,bytes)":"24b8fbf6","setPaymentsDestination(address)":"6ccec5b8","setProvisionTokensRange(uint256)":"8d84925d","slash(address,bytes)":"cb8347fe","startService(address,bytes)":"dedf6726","stopService(address,bytes)":"8180083b"},"id":78}